:020000040800F2
:10000000803B002041490008794800087B480008EF
:100010007D4800087F480008814800080000000073
:1000200000000000000000000000000083480008FD
:100030008548000800000000714900088748000852
:1000400075490008794900087D4900088149000880
:1000500085490008894900088D4900089149000830
:1000600095490008994900089D490008A1490008E0
:10007000A5490008A9490008AD490008B149000890
:10008000B5490008B9490008BD490008C149000840
:10009000C5490008C9490008CD490008D1490008F0
:1000A000D5490008D9490008DD490008E1490008A0
:1000B000E5490008E9490008ED490008F149000850
:1000C000F5490008F9490008FD490008014A0008FF
:1000D000054A0008094A00080D4A0008114A0008AC
:1000E000154A0008194A00081D4A0008214A00085C
:1000F000254A0008294A00082D4A0008314A00080C
:10010000354A0008394A00083D4A0008414A0008BB
:10011000454A0008494A00084D4A0008514A00086B
:10012000554A0008594A00085D4A0008614A00081B
:10013000654A0008694A00086D4A0008714A0008CB
:10014000754A0008794A00087D4A00088948000875
:10015000814A0008854A0008894A00088D4A00083B
:10016000914A0008954A0008994A00089D4A0008EB
:10017000A14A0008A54A0008A94A0008AD4A00089B
:10018000B14A0008B54A000800215FF0FF32C36899
:100190005A607FF08042C3685A6151F0004151F4C7
:1001A0000061C068816170477CB5040000250026AD
:1001B00000200090032000F03EFDE0680069009000
:1001C000761CBB48864204D20098C00F0028F1D0AC
:1001D00001E0002017E00020009951F0010100919A
:1001E0000099E2681161E16809690091401CB04919
:1001F000884203D20099C907F5D4FFE7032000F035
:100200001AFD2800C0B276BD30B4050000200024DD
:100210000024EC78002C11D19BB2DB1C042493FB4E
:10022000F4F3D2B205EB8202D2F8D040002203E010
:100230000D682560091D521C9A42F9D3C0B230BC2A
:10024000704710B4002392B2D21C042392FBF3F245
:10025000D0F8D030002003E01C680C60091D401C61
:100260009042F9D3080010BC704730B4002300223C
:100270000024C47001248470402484800C00E4B203
:10028000012C0DD15FF0A0430121C1720821017042
:10029000042141704FF4A071C180022101720CE071
:1002A000C9B2002909D1834B0021C1720C21017010
:1002B000062141704FF4A061C180C36013F5006155
:1002C000016100210EE013EB411414F5106400EB02
:1002D0008105AC6113EB411414F5306400EB81052A
:1002E0006C65491C4478A142EDD313F580614161EE
:1002F00013F58861C0F8CC10002108E013EB41141D
:1003000014F5A06400EB8105C5F89040491C047801
:10031000A142F3D300210AE04FF4805404FB0134DE
:1003200014F5805400EB8105C5F8D040491C0478D1
:10033000A142F1D313F56063C0F80C311000C0B2D4
:1003400030BC704770B50400002500200020002656
:10035000207A012825D1E068816B31F48031607A00
:10036000002801D051F48011E06881630020E0682A
:10037000C06830F0400030F4800030F4003030F4D9
:100380000020E168C8602000FFF70EFFE078012838
:1003900021D1052060F3440656F02006E06886600F
:1003A00019E0E068C06850F04000E168C8602000D3
:1003B000FFF7FAFE002151F4803151F4802151F40D
:1003C0000021607A002801D051F48011E068816337
:1003D000142000F037FCE078012808D1E06880683C
:1003E000052161F3440050F02000E1688860280096
:1003F000C0B270BD01000020002252F00102CB68A3
:100400009B681A43C9688A60C0B270470100002027
:10041000002252F00102CB689B6833EA0202C968ED
:100420008A60C0B270471CB502000024002300207F
:100430000090009850F020000090009861F38A101E
:1004400000900098D1680861D068006900905B1C3A
:100450001748834205D20098C0F340100028F3D11A
:10046000FFE7032000F0E7FB2000C0B216BD1CB57B
:1004700001000024002200200090009850F010009D
:1004800000900098CB681861C86800690090521C01
:100490000748824205D20098C0F300100028F3D12B
:1004A000FFE7032000F0C7FB2000C0B216BD00002C
:1004B000410D03000000044010B50024C268D2685A
:1004C00032F0005232F080420B00DBB2012B02D13D
:1004D00052F0005204E0C9B2002901D152F080422A
:1004E000C068C260322000F0ADFB2000C0B210BD79
:1004F000C068406910F00100704780B5FFF7F8FF51
:10050000012801D0012000E00020C0B202BD01009E
:100510000020C8684069C968896908407047026955
:10052000126861F30102006902607047F8B50400C7
:100530000025002000200026002700200020D4F8FD
:100540000C1108602069006830F4C050216908600F
:10055000E07A01282AD103212000FFF7E0FF802064
:10056000E1684862202060F31F46802060F30F0698
:10057000E068866216EB164666F30F07802060F38C
:100580001F47E068C0F8047117EB174060F30F07CE
:10059000202060F31F47E068C0F8087117EB174090
:1005A00060F30F07BFB2E068C0F80C7110212000A3
:1005B000FFF739FF2000FFF75AFF0020216908618B
:1005C0000020216948615FF0FF30216988610020C7
:1005D0002169C86100211CE000200BE004EB8100D0
:1005E00080690068C00F0028F6D0002050F08040DD
:1005F00050F0006004EB81029269106004EB81000E
:1006000080690022026104EB81008069FF22826020
:10061000491C60788142E1D300211CE000200BE0FE
:1006200004EB8100406D0068C00F0028F6D0002068
:1006300050F0804050F0006004EB8102526D106079
:1006400004EB8100406D0022026104EB8100406DEB
:10065000FF228260491C60788142E1D3002050F47F
:100660008070216909698143084321690861E07844
:1006700001280ED1002050F0010050F0020040216E
:1006800061F38A0050F48030402161F359402169C0
:100690000863200000F003F82800C0B2F2BD70B576
:1006A0000400002500260020E16888617FF080407A
:1006B000E16848612000FFF767FDE078002801D17C
:1006C00056F0100656F4006656F4805656F400565E
:1006D00056F4802656F4002656F0080656F4801686
:1006E00056F4001656F0804656F00406E06880691D
:1006F000B0430643E06886612800C0B270BD0021A7
:1007000000698068400810F00300002805D0022826
:1007100007D004D3032802D005E0032004E0022020
:1007200002E0012000E00220C0B2704710B40100D6
:10073000002000230A6994688A691268640814F02A
:100740000304002C04D0022C05D001D3032C06D1C5
:10075000D20AD20205E0032464F30A0201E0D20ABD
:10076000D2028C69226053F480730A6952689A43FA
:10077000134309694B60C0B210BC704770B40022CB
:10078000002300244B78012B0AD10B7800EB830364
:100790009E69012591F900309D4065F30F0409E041
:1007A0000B7800EB83035E6D012591F900309D40CD
:1007B000C4EA05443568C5F3C033002B0DD18B68FE
:1007C00063F30A05CB7863F39345C98861F39955C0
:1007D00055F0805555F4004535600169C9690C43F1
:1007E0000069C4611000C0B270BC704700224B7831
:1007F000012B14D10B7800EB83039B691B68DB0F83
:10080000002B05D0002353F0804353F0006300E039
:100810000023097800EB81008069036013E00B7806
:1008200000EB83035B6D1B68DB0F002B05D00023FF
:1008300053F0804353F0006300E00023097800EB9D
:100840008100406D03601000C0B2704770B5002495
:100850000022002200224A78012A62D10A7800EBA5
:100860008202926913680A7800EB82029269156924
:100870004A69002A05D1ED0CED04012262F3DC4542
:1008800011E04A6962F312054E698A689619761E6C
:100890008A68B6FBF2F262F3DC45CA78012A02D11B
:1008A000012262F35E750A7800EB8202926915619B
:1008B000C278012A06D10A7800EB820292690D699A
:1008C00055610FE0CA78012A0CD04A69002A09D084
:1008D000012591F9002015FA02F205696D6B2A4392
:1008E00005696A63CA78012A08D102699268D2054B
:1008F00002D453F0005301E053F0805353F080636F
:1009000053F000430A7800EB820292691360CA78C0
:10091000012A4ED14B699BB20A78C968FFF774FC73
:1009200047E00A7800EB8202526D13680A7800EB08
:100930008202526D15694A69002A06D18A6862F3FB
:100940001205012262F3DC4511E04E698A689619AE
:10095000761E8A68B6FBF2F262F3DC45C5F3C9463F
:100960008A68564366F312056A03520B4A610A7895
:1009700000EB8202526D1561C278012A05D10A7816
:1009800000EB8202526D0D695561CA78012A07D1C8
:100990004A79002A02D053F0005301E053F080530B
:1009A00053F0806353F00043097800EB8100406D01
:1009B00003602000C0B270BDF0B400220024002308
:1009C00000234B78012B3AD185692E682F694B693A
:1009D000002B04D1FF09FF0157F400270FE08B68BB
:1009E000D1F814C0634505D28B684B618B6863F303
:1009F000060702E04B6963F3060757F400272F61EF
:100A0000C378012B05D10B7800EB83039B690F6939
:100A10005F6156F0806656F000462E60C378002B6A
:100A20003ED14B69002B3BD0012391F900108B4044
:100A30001C430169496B0C430069446330E00B7847
:100A400000EB83035B6D1C680B7800EB83035B6D2D
:100A50001D694B69002B05D18B6863F3060555F4BE
:100A6000002506E08B684B618B6863F3060555F43F
:100A700000250B7800EB83035B6D1D61C378012BB0
:100A800005D10B7800EB83035B6D0D695D6154F05C
:100A9000806454F00044097800EB8100406D0460EC
:100AA0001000C0B2F0BC70470200002000234B7859
:100AB000012B0ED1097802EB81018B691A681100B4
:100AC000C90F002901D052F0804252F400121A607E
:100AD00007E0097802EB81014A6D116851F40011B9
:100AE0001160C0B2704710B40200002000234B78A0
:100AF000012B04D10B7802EB8302936903E00B789E
:100B000002EB8302536D1A6832F40012CC78032C86
:100B100002D0C978022901D152F080521A60C0B2C5
:100B200010BC70470100086980690969C9690840FB
:100B3000000C70470200C9B202EB8100406D806872
:100B400011694969084070470100086980690969AD
:100B5000C969084080B27047002151F0C04151F48A
:100B60000021182262F30601426D1161C17801294A
:100B70000CD1002100F2CC51426D5161416D0968E8
:100B800051F000415FF08021406D016070470EE040
:100B900002684368024408305FEAC37C44BF4B44A8
:100BA0005B1E52F804CB43F804CB091FF9D150F86F
:100BB000041B0029ECD17047E0B50121012000F0B1
:100BC000D6F80121802000F0E6F84FF4C0500090E4
:100BD00003208DF8050002208DF8040000208DF818
:100BE000060000208DF807006946074800F01AF952
:100BF0000A220B21044800F075F90A220C21024850
:100C000000F070F907BD00000000024080B54FF40D
:100C1000C06000F091F943208DF8000001208DF8AC
:100C2000010003208DF8020001208DF803006846C2
:100C300000F087F901BD37214843FFE7401E002837
:100C4000FCD1704780B54FF47A714843FFF7F3FF4A
:100C500001BD7047704770477047704770477047D5
:100C60000021DFF8A02111700021DFF89821117018
:100C7000C0B2012802D0042805D009E00120DFF825
:100C80008411087004E00520DFF878110870FFE790
:100C90007047002100210021022100210221DFF8FC
:100CA0005C11096811F00C01002904D0042906D058
:100CB000082908D033E0DFF85011016032E0DFF896
:100CC0004C1101602EE0DFF838110968C1F3805142
:100CD000DFF82C21126812F03F0200290AD0DFF859
:100CE0002C11B1FBF2F2DFF818110968C1F3881179
:100CF0004A4309E0DFF81011B1FBF2F2DFF800110E
:100D00000968C1F388114A43DFF8F4100968C1F398
:100D10000141491C4900B2FBF1F1016002E0DFF83A
:100D2000E8100160DFF8D410096811F0F00109093A
:100D3000DFF8DC20515C0268CA404260DFF8BC107A
:100D4000096811F4E051890ADFF8C420515C426857
:100D5000CA408260DFF8A410096811F46041490BB1
:100D6000DFF8AC20515C4268CA40C2607047C9B22B
:100D7000002907D0DFF89C1009680843DFF89410B9
:100D8000086007E0DFF88C10096831EA0000DFF83E
:100D9000841008607047C9B2002907D0DFF87810C6
:100DA00009680843DFF87010086005E01A4909680F
:100DB00031EA0000184908607047C9B2002905D01F
:100DC0001649096808431549086005E01349096890
:100DD00031EA0000114908607047C9B2002905D006
:100DE0000F49096808430E49086005E00C49096885
:100DF00031EA00000A4908607047000008380240E4
:100E000004380240703802400024F40000127A00D6
:100E1000600100203038024034380240403802403F
:100E20004438024030B4002200220022002347E070
:100E300001229A400C681440944240D10468032572
:100E40001A00D2B252009540AC43046004680D7998
:100E50001A00D2B2520095402C4304600A79012A4C
:100E600002D00A79022A1AD1846803251A00D2B264
:100E700052009540AC43846084684D791A00D2B228
:100E8000520095402C438460426801249C40A24358
:100E9000426042688C799C40A4B222434260C4689C
:100EA00003251A00D2B252009540AC43C460C46816
:100EB000CD791A00D2B2520095402C43C4605B1C1D
:100EC000102BB5D330BC70470022006989B20842AC
:100ED00001D0012000E00020C0B2704701837047BC
:100EE0004183704770B400230023D2B211F007038E
:100EF000DBB29B009A400B009BB2DB1000EB83043B
:100F00000B009BB2DB1000EB83031D6A0F2611F070
:100F10000703DBB29B009E40B54325620B009BB2EA
:100F2000DB1000EB83031B6A1A4389B2C91000EB84
:100F30008100026270BC7047224908432249086060
:100F40007047002100210F23C17800291FD01E49BE
:100F5000096811F4E061D1F5E061090AD1F10402F8
:100F6000DBB20B41417811FA02F281780B401A434F
:100F7000120116490378CA540121027812F01F02A7
:100F80009140134A0078401142F8201009E00121F5
:100F9000027812F01F0291400E4A0078401142F888
:100FA00020107047042806D10B48006850F0040058
:100FB0000949086005E00848006830F00400064967
:100FC000086070470000FA050CED00E000E400E066
:100FD00000E100E080E100E010E000E070B5050015
:100FE00000262800FFF789FA002870D02800FFF7B4
:100FF0008EFA0400002C01D1002069E0C4F3C04047
:10100000002803D0280000F05AF90643C4F38040BA
:10101000002803D0280000F0E2F80643C4F34000A3
:10102000002804D0002050F00200E9684861200048
:10103000C00F002803D0280000F06CF80643C4F36A
:10104000C020002803D0280000F089F80643C4F32C
:10105000C000002803D0280000F097F90643C4F32D
:101060000010002803D0280000F09EF90643C4F3C6
:101070000030002803D0280000F03EFA0643C4F3F5
:101080004030002803D0280000F08BFA0643C4F358
:101090000050002803D0280000F003FB0643C4F3EF
:1010A0004050002803D0280000F009FB0643C4F399
:1010B0008070002803D0280000F00BF80643C4F32A
:1010C0008000002803D0280000F012F8064330000A
:1010D00070BD10B504002000DFF800160968496AE9
:1010E0008847002050F08040E1684861012010BD31
:1010F00038B50400E0684568C5F38000002805D0D5
:101100002000DFF8D8150968896A8847E0684560DB
:10111000012032BD10B50400A07A002809D0D4F80F
:101120000C01006830F0020040084000D4F80C11B7
:101130000860002050F001002169496831EA000090
:10114000216948602000DFF894150968896988479B
:10115000002050F00040E1684861012010BD1CB53E
:10116000040000208DF8000094F812018DF80000B2
:101170002000DFF868150968496988472069816897
:10118000002050F40060E2685061A07A002824D06A
:10119000C80722D594F8150101281ED19DF800003A
:1011A00003281AD1002050F00100D4F80C1109686E
:1011B0000143D4F80C21116050F00200D4F80C1156
:1011C00009680843D4F80C110860DFF814050068BA
:1011D00050F00600DFF808150860012016BDF8B5CC
:1011E0000600002400203000FFF7AEFC050062E09E
:1011F000E8075ED52100C9B2300000F099FA070077
:10120000F80722D50120A0403169496B31EA00007E
:1012100031694863002757F0010706EB84008069B5
:1012200087602100C9B23000DFF8B024126852682C
:101230009047F078012808D1002C06D196F81101CA
:10124000042802D13000FFF787FCC7F3C000002854
:1012500006D0002757F0080706EB840080698760F6
:10126000C7F30010002806D0002757F0100706EB40
:10127000840080698760C7F38010002806D00027AB
:1012800057F0400706EB840080698760C7F3400091
:10129000002806D0002757F0020706EB840080697B
:1012A0008760C7F3C010002803D02100300000F091
:1012B000CCF8641C6D08002D9AD10120F2BDF8B560
:1012C0000600002400203000FFF72CFC050058E049
:1012D000E80754D52100C9B23000FFF72BFC070006
:1012E000F80730D5002757F0010706EB8400406D62
:1012F0008760F078012812D106EB8400406D006908
:10130000282101FB04F13144D1F87C134003400B48
:10131000081A282101FB04F13144C1F88C03210093
:10132000C9B23000DFF8B423126812689047F07831
:10133000012808D1002C06D196F81101052802D108
:101340003000FFF709FCC7F34000002806D0002753
:1013500057F0020706EB8400406D8760C7F3C000BA
:1013600000280CD03000DFF87413096889688847BA
:10137000002050F0080006EB8401496D8860641C71
:101380006D08002DA4D10120F2BD10B5040020008D
:10139000DFF848130968C9688847002050F0080042
:1013A000E1684861012010BDF8B50400002555F042
:1013B0001005E0688069A843E1688861E068066A12
:1013C00016F00F012820414304EB010010F55D7772
:1013D0003000400C10F00F00012808D0022807D080
:1013E00003281DD004281CD006281BD026E025E0A9
:1013F00030004004400D002811D03000C0F30A1224
:1014000092B2F9682000FEF71CFFF868C6F30A11D3
:101410000844F860B969C6F30A104118B9610DE0D3
:101420000CE00BE0082204F2CC512000FEF709FF8B
:10143000B969C6F30A104118B961FFE7E06880692D
:101440000543E06885610120F2BD2DE9F04104000B
:101450000D0000200020282000FB05F0204410F59E
:101460008E767069B769C71BB068B84200D2B7689A
:10147000FF1CBF0804EB8500806980692FE070695C
:10148000D6F81880B0EB0808B068404501D2D6F80D
:10149000088018F10307BF0843469BB22A00D2B266
:1014A000F1682000FEF7B0FEF0684044F060B069DB
:1014B00018EB0008C6F8188004EB85008069806985
:1014C0007169B26991420AD1012296F9001012FAAB
:1014D00001F12269526B32EA01012269516380B243
:1014E000874206D2B0697169884202D270690028C9
:1014F000C5D10120BDE8F081F8B504000021002528
:10150000002600270020002051F0010120694068DA
:1015100030EA01012069416000212000FEF783FFCD
:1015200000200AE004EB80018969FF228A6004EB55
:101530008001496DFF228A60401C61788842F1D3A6
:101540005FF0FF3021698861012060F30F05012001
:1015500060F31F452069C56156F0080656F0010684
:1015600056F002062069466157F0010757F0080758
:1015700057F00207206907612069006830F4FE60B7
:10158000216908602000FFF7E7FA002050F480503E
:10159000E1684861200051490968096988470120CC
:1015A000F2BD7FB504004F482000FFF7BFF8684642
:1015B000FFF76FFB019EE068C56835F47055E06881
:1015C000C5602000FFF79BF8032808D10020A07019
:1015D0004FF40070A080092060F38D2557E00120B2
:1015E000A0704020A080404880194049884203D222
:1015F0000E2060F38D254AE03D4880193D49884220
:1016000003D20D2060F38D2541E03B4880193B4912
:10161000884203D20C2060F38D2538E038488019C9
:101620003849884203D20B2060F38D252FE03648DD
:1016300080193649884203D20A2060F38D2526E0BE
:10164000334880193349884203D2092060F38D253D
:101650001DE0314880193149884203D2082060F3E7
:101660008D2514E02E4880192E49884203D2072088
:1016700060F38D250BE02C4886192C48864203D256
:10168000062060F38D2502E0052060F38D25E068DB
:10169000C560002050F40050E1684861012004B0AA
:1016A00070BD38B50400002520000C490968C969DF
:1016B000884755F48015E0684561012032BD38B592
:1016C00004000025200005490968096A884755F487
:1016D0000015E0684561012032BD00007401002062
:1016E00010ED00E0007A030A401E1BFF40420F008D
:1016F00000DC0BFFE0C810002013FBFE20D6130017
:10170000003DE7FE006A180000D3CEFE40771B00C4
:10171000C05BB3FEC091210000CA91FE40AC27001F
:10172000C01D6AFE40E13300803C36FEE09C410073
:101730000269126903695B6BCB40DB0113F0800324
:101740001A43C9B200EB810080698068104070477D
:101750001CB5049C89B200918DF8042003218DF8FA
:1017600005108DF806308DF807406946FFF75AFBE3
:1017700013BD80B501217F20FFF7F9FA01215FF049
:101780008050FFF71AFB012000F068FB0020FFF7F4
:1017900067FA002000F062FB08220021DFF8A006B3
:1017A000FFF7A0FB08220121DFF89406FFF79AFB60
:1017B00000200090002302220121DFF88406FFF7B9
:1017C000C7FF00200090002302220221DFF87006EC
:1017D000FFF7BEFF00200090002303220421DFF862
:1017E0006006FFF7B5FF00200090002303220821C8
:1017F000DFF84C06FFF7ACFF022000900023032225
:101800001021DFF83C06FFF7A3FF02200090002321
:1018100003222021DFF82806FFF79AFF012000901D
:10182000012301224FF48071DFF81406FFF790FFC7
:101830004FF48071DFF80806FFF750FB002000909E
:10184000002301224FF48061DFF8F405FFF780FFE9
:101850004FF48061DFF8E805FFF742FB01200090BC
:10186000002301220121DFF8DC05FFF771FF0020D2
:101870000090012301224021DFF8C805FFF768FF2F
:1018800000200090012301228021DFF8B805FFF736
:101890005FFF01200090002301224FF48071DFF8E8
:1018A000A405FFF755FF01200090002301224FF40B
:1018B0000071DFF89005FFF74BFF01200090012336
:1018C00001224FF48061DFF87C05FFF741FF012022
:1018D0000090012301224FF40061DFF86805FFF753
:1018E00037FF01200090002301224FF40051DFF860
:1018F0005405FFF72DFF01200090002301224FF433
:101900008041DFF84005FFF723FF0020009000230F
:1019100003220121DFF83005FFF71AFF00200090B5
:10192000002303220221DFF82005FFF711FF00202A
:101930000090002303220421DFF80C05FFF708FFC5
:1019400000200090002303220821DFF8FC04FFF7A9
:10195000FFFE00200090002303222021DFF8E8048E
:10196000FFF7F6FE01200090012301224FF40071E1
:10197000DFF8D404FFF7ECFE4FF40071DFF8C80481
:10198000FFF7ACFA06220A21DFF8BC04FFF7AAFA37
:1019900001200090002302224FF48061DFF8A804A8
:1019A000FFF7D6FE06220B21DFF89C04FFF79AFA18
:1019B00001200090002302224FF40061DFF8880428
:1019C000FFF7C6FE06220C21DFF87C04FFF78AFA37
:1019D00001200090002302224FF48051DFF86804B8
:1019E000FFF7B6FE00200090002301224FF40051C3
:1019F000DFF85404FFF7ACFE4FF40051DFF8480461
:101A0000FFF76CFA00200090002301224FF4804180
:101A1000DFF83404FFF79CFE4FF48041DFF8280420
:101A2000FFF75CFA00200090002301224FF40041F0
:101A3000DFF81404FFF78CFE002000900023012241
:101A40000221DFF80804FFF783FE00200090002346
:101A500001220421DFF8F403FFF77AFE0421DFF806
:101A6000EC03FFF73BFA002000900023012208213D
:101A7000DFF8D803FFF76CFE0821DFF8D003FFF78B
:101A80002DFA00200090002301221021DFF8BC0372
:101A9000FFF75EFE1021DFF8B403FFF71FFA0722FD
:101AA0000521DFF8A803FFF71DFA07220621DFF85A
:101AB0009C03FFF717FA0020009000230222202148
:101AC000DFF88803FFF744FE002000900023022285
:101AD0004021DE48FFF73CFE002000900023012259
:101AE0008021DA48FFF734FE8021D848FFF7F6F965
:101AF00000200090002301224FF48071D348FFF7AB
:101B000027FE4FF48071D148FFF7E8F900200090DC
:101B1000002301224FF40071CC48FFF719FE4FF467
:101B20000071CA48FFF7DAF9002000900023012273
:101B30004FF48061C548FFF70BFE002000900023A2
:101B400001224FF40061C148FFF702FE002000901F
:101B5000002301224FF48051BC48FFF7F9FD4FF4F8
:101B60008051BA48FFF7BAF9002000900023012203
:101B70004FF40051B548FFF7EBFD00200090002323
:101B800001224FF48041B148FFF7E2FD4FF480415C
:101B9000AE48FFF7A5F901200090002300224FF482
:101BA0000041AA48FFF7D4FD012000900023002245
:101BB0000121A748FFF7CCFD02200090002300225E
:101BC0000221A348FFF7C4FD00200090002301225A
:101BD00004219F48FFF7BCFD002000900023002255
:101BE00008219B48FFF7B4FD00200090002300224D
:101BF00010219748FFF7ACFD002000900023002241
:101C000020219348FFF7A4FD00200090002301222B
:101C10004FF480718E48FFF79BFD00200090002359
:101C200000224FF400718A48FFF792FD00200090D7
:101C3000012301224FF480618548FFF789FD4FF4AD
:101C400080618348FFF74AF90020009001230122B8
:101C50004FF400617E48FFF77BFD002000900023D9
:101C600000224FF480517A48FFF772FD0020009067
:101C7000002300224FF400517548FFF769FD012051
:101C800000900123012201217248FFF761FD01212B
:101C90007048FFF723F9012000900123012202215F
:101CA0006C48FFF755FD02216A48FFF717F900203D
:101CB00000900023012204216648FFF749FD00201F
:101CC00000900023032208216248FFF741FD002015
:101CD00000900023032210215E48FFF739FD002009
:101CE00000900023032220215A48FFF731FD0020F5
:101CF00000900023032240215648FFF729FD0020D1
:101D000000900023032280215248FFF721FD00208C
:101D10000090002303224FF480714E48FFF718FD16
:101D200000200090002303224FF400714948FFF780
:101D30000FFD00200090002303224FF480614548EE
:101D4000FFF706FD00200090002301224FF4006100
:101D50004048FFF7FDFC00200090002301224FF4D3
:101D600080513C48FFF7F4FC002000900023012242
:101D70004FF400513748FFF7EBFC002000900023A0
:101D800001224FF480413348FFF7E2FC002000902D
:101D9000002301224FF400412E48FFF7D9FC002018
:101DA00000900023012201212B48FFF7D1FC0020E5
:101DB00000900023012202212748FFF7C9FC0020E0
:101DC00000900023012204212348FFF7C1FC0020DA
:101DD00000900023012208211F48FFF7B9FC0020D2
:101DE00000900023012210211B48FFF7B1FC0020C6
:101DF00000900023012240211748FFF7A9FC402151
:101E00001548FFF76BF802200090002301224FF4E1
:101E100080411148FFF79CFC4FF480410E48FFF7CA
:101E20005DF802200090002301224FF400410A488F
:101E3000FFF78EFC4FF400410748FFF74FF801BD54
:101E4000000002400004024000080240000C024072
:101E5000001002400014024000180240C0B20149C4
:101E60000860704720000E4210B500244A78002A0E
:101E700018D0012A1CD0032A17D0052A09D0062A17
:101E800004D0082A0BD0092A06D014E000F00FF97C
:101E900013E000F093F910E000F0BCF90DE000F061
:101EA00019FA0AE000F032FA07E000F04AFA04E01A
:101EB00000F09AFA01E000F0D3FA2000C0B210BDA1
:101EC00070B504000E00002594F81201032818D103
:101ED0003079022810DA31002000D4F8E425926825
:101EE0009047F08800280BD12800C0B2002807D105
:101EF000200000F036FB03E03100200000F0B0FAD3
:101F000003E03100200000F0ABFA2800C0B270BD41
:101F100070B505000E000024B188307810F0600024
:101F2000202808D131002800D5F8E4259268904790
:101F30002000C0B2BAE07078002868D0012834D000
:101F4000032840F0B18095F81201022802D003283E
:101F50000DD025E00800C0B2002807D00800C0B2AC
:101F6000802803D0C9B2280000F003FC1CE0708870
:101F700000280BD10800C0B2002807D00800C0B26A
:101F8000802803D0C9B2280000F0F3FB31002800FC
:101F9000D5F8E42592689047280000F0E2FA03E0C3
:101FA0003100280000F05CFA7EE095F8120102286A
:101FB00002D003280DD025E00800C0B2002807D0C9
:101FC0000800C0B2802803D0C9B2280000F0D1FBBD
:101FD0001CE07088002814D10800C0B200280DD081
:101FE0000800C0B2802809D0C9B2280000F0E4FB84
:101FF00031002800D5F8E42592689047280000F0C9
:10200000B0FA03E03100280000F02AFA4CE095F81D
:102010001201022802D003280DD040E00800C0B20F
:10202000002807D00800C0B2802803D0C9B2280019
:1020300000F09FFB37E00800C0B2000614D5C9B21B
:1020400011F07F012820414305EB010090F81E01AB
:10205000002804D00120DFF87C13086018E000207D
:10206000DFF87013086013E0080611D4C9B2282005
:10207000414305EB010090F87603002804D00120CD
:10208000DFF85013086003E00020DFF84813086011
:102090000222DFF84013280000F021FA03E03100AB
:1020A000280000F0DDF9FFE72000C0B270BD38B5B0
:1020B00004000D00E888ADF80000688880B2000ACE
:1020C000C0B2012808D0022819D0032822D006283F
:1020D0005BD007285ED062E06946A078D4F8EC2592
:1020E00012689047BDF80010002966D0E9880029E1
:1020F00063D0BDF80010EA88914255D257E0694696
:10210000A078D4F8E425926A904702214170C4F87F
:10211000F005E7E7A878002808D0022814D00CD3EF
:1021200004281FD017D3052823D029E06946A078BA
:10213000D4F8EC2552689047D4E76946A078D4F8E3
:10214000EC2592689047F7E76946A078D4F8EC252B
:10215000D2689047F0E76946A078D4F8EC25126978
:102160009047E9E76946A078D4F8EC255269904792
:10217000E2E76946A078D4F8EC2592699047DBE75E
:102180002900200000F06CF917E02900200000F081
:1021900067F912E02900200000F062F90DE0290043
:1021A000200000F05DF908E0E988ADF80010BDF806
:1021B00000200100200000F092F931BD38B5050083
:1021C0008888002822D1C88800281FD18C7814F074
:1021D0007F0495F81201032803D1280000F040F98C
:1021E00017E085F814412100C9B2280000F007FB70
:1021F000280000F0B6F9E4B2002C03D0022085F8E4
:10220000120106E0012085F8120102E0280000F02A
:1022100027F931BD10B5040048886F4A10706E4828
:102220000078022803DB200000F01AF951E094F84E
:102230001201022802D0032818D047E0664800782F
:1022400000280FD06448007884F81001032084F837
:10225000120161480178200000F02DFC200000F000
:1022600080F902E0200000F07CF932E05A48007862
:1022700000280FD1022084F812015748007884F812
:10228000100155480178200000F023FC200000F0E8
:1022900068F91AE05048007894F81011884211D07B
:1022A00094F81011200000F014FC4B48007884F8DA
:1022B000100149480178200000F0FDFB200000F0EB
:1022C00050F902E0200000F04CF902E0200000F09C
:1022D000C7F810BD80B5CA88012A02D000F0C0F846
:1022E00013E090F81221022A02D0032A05D00AE056
:1022F00001223A4900F0F3F807E0012210F5887155
:1023000000F0EDF801E000F0ABF801BD80B590F809
:102310001221921E012A11D80121314A1160D0F8F0
:102320001811002905D02E49096851F002012C4AE4
:10233000116002222A4900F0D2F801E000F090F882
:1023400001BD10B504000020488801280BD10120F0
:10235000C4F818012000D4F8E425926890472000C2
:1023600000F0FFF835E04888022832D18888C0B2F2
:1023700000282ED120694068898889B2090AC9B22B
:10238000012907D01AD303290CD007D3052911D06E
:102390000CD313E0012161F3061012E0022161F376
:1023A00006100EE0032161F306100AE0042161F338
:1023B000061006E0052161F3061002E0012161F339
:1023C000061008490860012084F81601200000F07A
:1023D000C8F810BD5C1B00207C1B0020601B002087
:1023E000641B0020581B002010B5040094F8120153
:1023F000801E01280ED8488801280AD10020C4F880
:1024000018012000D4F8E42592689047200000F0DD
:10241000A8F802E0200000F023F810BD90F8CC25C9
:102420000A7090F8CD254A7090F8CE2590F8CF35F7
:102430001B029A184A8090F8D02590F8D1351B02DB
:102440009A188A8090F8D22590F8D3351B029A18F2
:10245000CA80C988C0F84011012180F81111704765
:1024600010B504008021200000F083F90021200035
:1024700000F07FF92000FEF76FFB10BDF8B50400F7
:102480000D0017000026002C1ED0200000F01DF8C3
:102490004000801C388038883100C9B26854761CEE
:1024A00003203100C9B26854761C0AE0207831005C
:1024B000C9B26854641C761C00203100C9B268544B
:1024C000761C20780028F1D1F1BD0200002001E047
:1024D000401C521C11780029FAD1C0B2704710B5C7
:1024E000130000241A0092B2C0F83C211A0092B2E4
:1024F000C0F83821022280F811219BB20A00002185
:1025000000F017F92000C0B210BD10B51300002470
:102510009BB20A00002100F00CF92000C0B210BDEF
:1025200010B5130000241A0092B2C0F894231A00C8
:1025300092B2C0F89023032280F811219BB20A00C6
:10254000002100F0D2F82000C0B210BD10B5130079
:1025500000249BB20A00002100F0C7F82000C0B29E
:1025600010BD38B504000025042084F811010023B3
:1025700000220021200000F0DCF82000FEF7ECFA39
:102580002800C0B232BD38B504000025052084F80B
:102590001101002300220021200000F0A6F82000F5
:1025A000FEF7DAFA2800C0B232BD10B50400C9B295
:1025B0002000FDF75AFE012084F81201002084F863
:1025C0001401002012E0282101FB00F1214411F543
:1025D0008E7101224A700870C8800022CA704022A1
:1025E0008A600022CA6000224A61401C61788842E9
:1025F000E9D3002012E0282101FB00F1214411F56C
:102600005D7100224A700870C8800022CA704022A2
:102610008A600022CA6000224A61401C61788842B8
:10262000E9D32000FDF7F2FE2000FDF78BFE00212C
:102630002000FDF741FF2000FDF778FF2000FDF7A7
:10264000D9FE10BD38B50C060AD50D00EDB215F057
:102650007F052824654300EB050414F58E7409E01A
:102660000D00EDB215F07F052824654300EB05044D
:1026700014F55D7411F07F052570C9B2C909617048
:1026800092B2A260E3706178002901D02178E180E4
:10269000DBB2022B01D1002121712100FEF76EF87F
:1026A000002032BD80B50A060AD50B00DBB213F05C
:1026B0007F032822534300EB030212F58E7209E0D8
:1026C0000B00DBB213F07F032822534300EB03021D
:1026D00012F55D7211F07F031370C9B2C909517010
:1026E0001100FEF783F8002002BD38B50C0025006C
:1026F000EDB215F07F0528214D4300EB050111F5E2
:102700005D71CA609BB24B6100238B6100234B70EB
:1027100014F07F040C70C378012B00D10A610A7891
:10272000002A02D1FEF748F901E0FEF78FF80020F9
:1027300032BD38B50C002500EDB215F07F0528211B
:102740004D4300EB050111F58E7101254D7014F01C
:102750007F040C70CA600A6100228A614B610A78AA
:10276000002A02D1FEF728F901E0FEF76FF80020F9
:1027700032BD80B50A0011060AD51300DBB213F092
:102780007F0328214B4300EB030111F58E7107E015
:102790001300DBB228214B4300EB030111F55D71FF
:1027A00001238B7012F07F030B70D2B2D2094A70F2
:1027B000FEF77AF9002002BD80B50A0011060AD59D
:1027C0001300DBB213F07F0328214B4300EB03011E
:1027D00011F58E7107E01300DBB228214B4300EBAB
:1027E000030111F55D7100238B7012F07F030B70F4
:1027F000D2B2D2094A70FEF776F9002002BD00225B
:1028000061F30A12016909680A43006902607047AE
:102810002DE9F04104000D0016001F00DDF81880BE
:102820002000FEF7C9F9200000F014F8C4F8E475A0
:10283000C4F8E885C4F8EC652900C9B22000FFF7A8
:10284000B4FED4F8E805006880472000FEF7DEF902
:10285000BDE8F081002070471CB5040069462000E7
:10286000FFF7DCFD9DF8000010F01F00002803D0EA
:1028700002280BD005D30EE069462000FFF7F4FADA
:1028800010E069462000FFF71BFB0BE069462000C3
:10289000FFF73EFB06E09DF8001011F080012000DC
:1028A000FFF767FF002016BD10B504000800C0B296
:1028B000002833D114F55D7194F8110103283CD13F
:1028C0008868CA69904217D2CA698868121ACA61B0
:1028D000E078012803D1C8688A681044C860C869D4
:1028E0008A68904201D2CA6900E08A6892B2C968D7
:1028F0002000FFF72BFE20E0D4F8E4050069002853
:1029000008D094F81201032804D12000D4F8E4156B
:10291000096988472000FFF724FE0EE0D4F8E4059B
:102920008069002809D094F81201032805D1C9B2A2
:102930002000D4F8E42592699047002010BD38B5F6
:1029400004000800C0B200285BD114F58E7594F81D
:10295000110102284AD1A868E969884217D2E969B9
:10296000A868091AE961E078012803D1E868A96834
:102970000844E860EA6992B2E9682000FFF7C5FD03
:102980000023002200212000FFF7AFFE2EE0286A7E
:10299000A968B0FBF1F201FB1200002815D1286AEA
:1029A000A968884211D3286A696A88420DD2002238
:1029B00000212000FFF7A9FD00206862002300220B
:1029C00000212000FFF791FE10E0D4F8E405C06874
:1029D000002808D094F81201032804D12000D4F86C
:1029E000E415C96888472000FFF7CDFD94F816016B
:1029F000012815D1200000F015F8002084F81601F8
:102A00000EE0D4F8E4054069002809D094F81201DA
:102A1000032805D1C9B22000D4F8E42552699047B3
:102A2000002032BD024909680069416000207047FA
:102A3000581B002010B50400002340220021200074
:102A4000FFF700FE0023402280212000FFF7FAFD5F
:102A5000012084F81201A078D4F8E8154968884765
:102A6000002010BD10B50400D4F8E80500698047C7
:102A700094F8130184F81201032084F81201002055
:102A800010BD80B590F8121180F81311042180F860
:102A90001211D0F8E805C0688047002002BD80B55B
:102AA000D0F8E415C969002903D0D0F8E415C96944
:102AB0008847002002BD10B50400C9B22000D4F838
:102AC000E42512689047D4F8E80580688047002024
:102AD00010BD80B5C9B2D0F8E425526890470020F7
:102AE00002BD80B5D0F8E415096A8847002002BD10
:102AF00080B5D0F8E415496A8847002002BD10B5BA
:102B00000400D4F8E80540698047012084F81501E5
:102B1000002010BD10B50400D4F8E8058069804796
:102B200000212000D4F8E42552689047002084F862
:102B30001501002010BD00002DE9F04F93B0824632
:102B4000029117461C9800220FF2C4411D468DF8D1
:102B50002F0008920CAE1291DFF88C830CE0252830
:102B60000FD017F8011B0298D0470028029000F000
:102B7000BA800898401C089038780028EFD108984F
:102B8000B4E10020002205900690079201E040F099
:102B9000010017F8011F2029F9D023290CD02B2977
:102BA00004D02D2905D0302909D00BE040F00200D7
:102BB000EFE740F00400ECE740F00800E9E740F000
:102BC0001000E6E72A290CD12A6852F8041B2A6073
:102BD00000290A9103D549420A9140F004007F1C64
:102BE00010E00A9209E00A99414505DA01EB8103F8
:102BF00002EB4302303A0A927F1C3A78A2F130018C
:102C00000A29F0D339782E2903D04FF0FF320992E8
:102C100022E017F8011F2A2906D1296851F8042B50
:102C2000296009927F1C17E02D290CBF7F1C002111
:102C3000002209920BE00A0008D1099A424505DA00
:102C400002EB820403EB4403303B09937F1C3B7887
:102C5000A3F130020A2AEED3ADF82C00397812988D
:102C600000F0EAF908B117F8010B8DF82E009DF875
:102C70002E00682804BF3978682903D162208DF8B6
:102C80002E007F1C0CA8049017F8012B252A13D0C6
:102C9000582A4DD0632A00F0AA80642A18BF692AF6
:102CA00071D06F2A44D0702A39D0732A09D0752A7E
:102CB00018BF782A3CD0A3E001218DF8302005917F
:102CC000A8E0286850F8044B2860039494B99DF854
:102CD0002F0058B10FF2403000F0BAF94FF0FF3436
:102CE000241A00F097804FF0FF30FFE00FF24430DD
:102CF00003908FE0DDF82490B9F1000F04D5204651
:102D000000F0C6F9044608E04A460021204600F0DB
:102D1000DBF9002814BF041B4C4606947AE02868AF
:102D200050F8041B286001910CA9039178215AE006
:102D30009DF82E00622802D0682806D00BE0296892
:102D400051F8040B2960C0B209E0296851F8040B5E
:102D5000296080B203E0296851F8040B29600190D2
:102D60009DF82C00010739D50198002836D042F093
:102D70002001782932D1059830213154401C431C60
:102D8000059332542AE09DF82E00622802D068286C
:102D900006D00BE0296851F8040B296040B209E025
:102DA000296851F8040B296000B203E0296851F842
:102DB000040B29600028019002D505982D210AE016
:102DC000BDF82C00810702D505982B2103E0C00730
:102DD00004D5059820213154401C05900CA8059974
:102DE00001440391114601A800F083F812E001208C
:102DF0000590286850F8041B28608DF8301009E011
:102E000025218DF8301001231100059302D00220F6
:102E1000727005900A980599079A401A0699801AC7
:102E2000A0EB01099DF82C00410711D42020B9F135
:102E3000000F8DF800000BDD4C4601236A4601A906
:102E4000504600F0CEF800287FF44DAF641EF4D158
:102E5000059C0DF1300B64B11BF8012B01A9504604
:102E600000F0AFF8002801D4641EF5D100287FF4EB
:102E70003AAF079C3020002C8DF800000ADD0123BA
:102E80006A4601A9504600F0ACF800287FF42BAF49
:102E9000641EF4D1DDF80CB0069C64B11BF8012B64
:102EA00001A9504600F08DF8002801D4641EF5D128
:102EB00000287FF418AF9DF82C0041077FF55CAE29
:102EC0002020B9F1000F8DF800007FF755AE4C4679
:102ED00001236A4601A9504600F083F800287FF4D8
:102EE00002AF641EF4D147E6CBCCCC0C13B0BDE8E6
:102EF000F08FF0B402466F29D46808BF082605D0C9
:102F000041F02000782814BF0A26102618251368DF
:102F1000642918BF6929184602D1002B48BF4042D6
:102F200058B9136A4BB9082E27D192F82800010727
:102F300023D530201725E0751FE0B0FBF6F706FB20
:102F4000170030306D1EC3B23A2B03DA60553800DB
:102F500003D106E040185138F8E793686719BB427F
:102F6000EBD3082E09D192F82800010705D5605D42
:102F7000302802D06D1E30206055C5F11803106A4C
:102F8000536161198342916008DA118DC31A4FF6BB
:102F9000EF70014093611185F0BC704700280ED599
:102FA00092F8280000F01400102808D1546A116922
:102FB0009069641A241AE31A012BA8BF9361F0BC2C
:102FC000704710B503460C4611466068984760602C
:102FD00020B1E069401CE061002010BD4FF0FF30DF
:102FE00010BDF8B505460E4617461C4600205CB1DC
:102FF00017F8011B7068A847706030B1F069401C79
:10300000F0610020641EF3D1F2BD4FF0FF30F2BD3D
:10301000686C747A4C0000007072696E74665F733D
:103020003A2062616420257320617267756D656E58
:103030007400000000000000C9B202788A421AB190
:103040001CBF10F8012FF9E718BF002070470000DF
:1030500080B500B906A005490B681BB122220021EA
:10306000984701E000F05CF8222002BD741B0020AC
:10307000636F6E73747261696E742068616E646CE4
:1030800065723A20626164206D65737361676500E3
:1030900000F10103810704D010F8011B820781B100
:1030A000FAD10268A2F10131914311F0803104BFDD
:1030B00050F8042FF6E709BAB1FA81F100EBD1001C
:1030C000401CC01A70470000C9B2830706D0521EC8
:1030D00022D310F8013B9942F7D11FE0083A13D3ED
:1030E00002F1040241EA012141EA014150F8043BA6
:1030F000121F21BF4B40A3F1013C2CEA030C1CF032
:10310000803FF3D0C9B2001F083210F8013B521EB5
:1031100028BF91EA030FF8D818BF0120401E70475E
:10312000012000F001B8000080B5AFF30080024A32
:1031300011001820ABBEFBE72600020010B403000C
:10314000002000200A00511E92B2002A13D01A78E3
:1031500090EA02205B1C0822040405D5040041F219
:10316000210090EA440000E04000521E1400E4B246
:10317000002CF1D1E6E780B210BC704738B50A00E8
:1031800092B2012A02D10422B24B1A700A0092B202
:10319000852A05D00A0040F2054392B29A423BD1FB
:1031A0000278AC4B1A70401C0278AA4B5A70401C33
:1031B0000278A84B9A70401C0A0092B2852A0DD161
:1031C000002207E00378A34C1500EDB22C44E37015
:1031D000401C521C1300DBB2802BF3DB0A0040F2D0
:1031E000054392B29A420ED1002207E00378994C2F
:1031F0001500ADB22C44E370401C521C13009BB26E
:10320000B3F5806FF2DB0278924B83F80324401C05
:103210000078904A82F804048E48007801282FD163
:10322000080080B2852812D180218B48FFF786FFE5
:1032300080B2884991F80314864A92F8042452EA2D
:103240000122904201D1A02021E0A1201FE040F204
:10325000054089B2814213D14FF480617E48FFF767
:103260006DFF80B27B4991F803147A4A92F80424E6
:1032700052EA0122904201D1A02008E0A12006E0FC
:1032800074480078042801D1A32000E0A12032BDB9
:1032900080B589B2714AD268904701BD1CB5002043
:1032A0008DF8000000F04AF9002858D06C480068FA
:1032B000401C6B4908606A4801686A4800F04CF994
:1032C000002407E06848210089B2415C674800F0AB
:1032D00043F9641C200080B2654909688842F1D333
:1032E0005BA000F039F96048007868282ED15E486C
:1032F000407811282AD15C488078042826D15A4881
:10330000C078012822D158480079C0281ED15648DB
:10331000407916281AD1682056490870112055495D
:10332000487004205349887001205249C870C42055
:103330005049087116204F49487106214D48474AA7
:10334000D268904701204C49087008E000204849A5
:103350000860012049490870012049490870474820
:103360000078002814D147480068401C454908608F
:1033700044480068444988420AD300204149086013
:1033800043208DF8000001216846FFF781FF5AE0D5
:103390003B480078012856D10020394908703B4845
:1033A00001883148FFF7EAFEA02806D04BD3A228B7
:1033B0002CD020D3A32834D045E034480088421FC5
:1033C00092B2254932480068324B181800F0FAF8DA
:1033D0002F4800682D490988491F08182C490860A2
:1033E00006208DF8000001216846FFF751FF0020FC
:1033F0002649088027E015208DF800000121684645
:10340000FFF746FF0020214908801CE006208DF8C8
:10341000000001216846FFF73BFF00201B490880A0
:1034200011E006208DF8000001216846FFF730FF0B
:1034300000201649088000F0EBF80221502000F02F
:1034400000F900F0F5F813BD1348144908607047FF
:103450000D0A0000501500205315002038010020EF
:103460006C1B00205C490008740F002068490008AC
:10347000541B0020E81A00207D1B00207E1B00202A
:103480007F1B0020701B0020C0C62D00781B002071
:10349000681B0020000002080400FA050CED00E0A3
:1034A00000207047002070470020704730B4002291
:1034B00013E00378234C244D2D686355401C224BA8
:1034C0001B685B1C204C23601F4B1B68B3F5006F0F
:1034D00002D100231C4C2360521C8A42E9D30020F5
:1034E00030BC704730B440290ED100220AE0835C22
:1034F000164C174D2D886355154B1B885B1C144CBF
:103500002380521C8A42F2D340290ED200220AE0C4
:10351000835C0E4C0E4D2D8863550D4B1B885B1C38
:103520000B4C2380521C8A42F2D3402903D0084816
:10353000008808490860002030BC704705480068D2
:103540007047000080010020401B0020740F002005
:10355000781B0020541B00200EB4C0B5024603A8FF
:1035600000210190009101AB0121044878440C3006
:10357000FFF7E2FA06BC5DF810FB00BF6D13000018
:1035800080B50B4801680B480140B1F1005F0ED1D6
:103590000948006809490860084800680849086047
:1035A0000348006880F3088805480068804701BD2B
:1035B000000002080000FE2F04000208301B00205B
:1035C000341B0020F8B504000F00150000F020F8AF
:1035D000002613E03978781C0278471CD2B2120218
:1035E00052FA81F1080080B241F61A22904203D0CB
:1035F00089B2200000F080F8A41CB61C300029001D
:1036000080B289B28842E5D300F012F8F1BD000023
:10361000DFF87C010068002809D5DFF87801DFF8C1
:1036200078110860DFF87401DFF86C1108607047EA
:10363000DFF85C01006850F00040DFF854110860CA
:10364000704738B50400002009200800C0B20028E7
:1036500001D100250EE00800C0B2012802D14FF4CC
:10366000807507E0C9B2022902D14FF4007501E06C
:103670004FF4407500F096F80100C9B2092939D11C
:10368000DFF80C01006830F44070DFF804110860C6
:10369000DFF8FC0000680543DFF8F4000560DFF8A0
:1036A000F000006830F0F800DFF8E4100860DFF8A0
:1036B000E0000068044354F00204DFF8D400046022
:1036C000DFF8CC00006850F48030DFF8C4100860E8
:1036D00000F068F8DFF8B810096831F00201DFF88F
:1036E000B0201160DFF8A810096831F0F801DFF8A8
:1036F000A0201160C0B232BD38B504000D00092011
:1037000000F050F80100C9B209291AD12048006818
:1037100030F440701E4908601D48006850F4807005
:103720001B4908601A48006850F0010018490860F9
:10373000258000F037F81649096849084900144AFD
:103740001160C0B232BD092015480068C00301D520
:10375000012019E012480068C00601D5062013E0D8
:103760000F480068C00501D502200DE00C48006834
:1037700010F0E00F01D0072006E00948006880073C
:1037800001D5082000E00920C0B270470000000009
:10379000103C024023016745043C0240AB89EFCD59
:1037A0000C3C024080B509208DF80000FFF7CBFFEC
:1037B0008DF8000003E0FFF7C6FF8DF800009DF8CC
:1037C00000000128F7D09DF8000002BD80B502215D
:1037D000B648FDF779FB002803D00120B4490870F2
:1037E00002E00020B2490870B1480078012840F09A
:1037F0001681B0480068401CAE490860AD480068BA
:10380000002800F00C81AC480078002840F095803A
:10381000A8480168A9484118A948814280F08D80D4
:103820004FF48061A148FDF75BFBC82000F0A9F9C7
:103830004FF480619D48FDF751FB4FF40051A148C2
:10384000FDF74CFB04219948FDF748FB0A2000F0E6
:1038500098F980219B48FDF743FB4FF400519A48AB
:10386000FDF73EFB142000F08CF94FF400719548F1
:10387000FDF736FB4FF480419348FDF731FB4FF4E1
:1038800080719048FDF72CFB04218E48FDF728FB42
:10389000142000F076F908218A48FDF721FB0F205B
:1038A00000F06FF94FF480518648FDF719FB1021A5
:1038B0008448FDF715FB0F2000F063F94FF4004139
:1038C0008248FDF70BFB4FF400518048FDF706FBE3
:1038D0000A2000F056F94FF400617C48FDF7FEFA2B
:1038E0000F2000F04EF94FF480417848FDF7F6FACA
:1038F0004FF480517548FDF7F1FA40F6B83000F00A
:1039000040F904217148FDF7E9FA01206A4908707D
:1039100000206F49088000206E49086000206E4931
:10392000087000206D49087000206D490870022160
:103930005E48FDF7C9FA0028F9D15E480068694978
:1039400088426CD304216148FDF7CAFA052000F0D3
:1039500018F94FF480515D48FDF7C2FA4FF48041E9
:103960005A48FDF7BDFA322000F00BF94FF4006120
:103970005648FDF7B5FA4FF400515448FDF7B0FA38
:103980004FF400415148FDF7ABFA322000F0F9F84E
:1039900010214C48FDF7A2FA4FF480514948FDF739
:1039A0009DFA08214748FDF799FA04214548FDF79B
:1039B00095FA4FF480714348FDF790FA142000F017
:1039C000E0F84FF480414048FDF788FA4FF4005189
:1039D0003D48FDF783FA4FF400713A48FDF77EFA4F
:1039E00080213848FDF77AFA0A2000F0CAF8002052
:1039F00031490870002036490880002035490860A8
:103A000000203549087000203449087000203449EE
:103A1000087002212548FDF757FA0028F9D12448FB
:103A20000078002802D100202249086001BD80B53D
:103A30002D48006810F1010F35D000F092F9FFF722
:103A4000E7FD02212820FFF7FCFD02213020FFF7CF
:103A5000F8FD02213820FFF7F4FD02214020FFF796
:103A6000F0FD02214820FFF7ECFDFFF7E1FD1F48C4
:103A7000FFF772FDFFF712FCFFF7A8FE164800786B
:103A80000028F7D04FF400510848FDF71DFA002830
:103A9000F0D14FF480510548FDF716FA0028E9D11E
:103AA00000F006F9E6E7FFF76BFDFEE700100240C5
:103AB0007A1B0020381B00207C01002078ECFFFFDF
:103AC00038B32D00000C02400008024000140240F0
:103AD000781B0020541B00207D1B00207E1B002033
:103AE0007F1B0020C1C62D0000000C0820490008E3
:103AF000020052B2002A08D509012D4A40B210F046
:103B00000F00104400F8041C03E00901294A40B2E8
:103B10001154704780B5411EB1F1807F01D301205F
:103B20000EE0401E244908600F215FF0FF30FFF7D0
:103B3000DFFF00202149086007202149086000209C
:103B400002BD80B545F20820FFF7E4FF7FF00400D6
:103B5000FDF728FA01BD80B21521484316490860D7
:103B600000201649086001201549086014480068C3
:103B7000C003FBD500201249086000200F490860EF
:103B8000704780B245F2082148430B490860002085
:103B90000A49086001200A49086009480068C00312
:103BA000FBD50020064908600020044908607047E2
:103BB00018ED00E000E400E014E000E018E000E0B0
:103BC00010E000E080B54FF480617448FDF788F99B
:103BD000C820FFF7D6FF4FF480617048FDF77EF9EB
:103BE0004FF400516E48FDF779F904216B48FDF759
:103BF00075F90A20FFF7C5FF80216948FDF770F9C4
:103C00004FF400516748FDF76BF91420FFF7B9FF37
:103C10004FF400716248FDF763F94FF48041614849
:103C2000FDF75EF94FF480715D48FDF759F9042105
:103C30005B48FDF755F91420FFF7A3FF082158480A
:103C4000FDF74EF90F20FFF79CFF4FF480515448C9
:103C5000FDF746F910215248FDF742F90F20FFF712
:103C600090FF4FF400415048FDF738F94FF40051F0
:103C70004D48FDF733F90A20FFF783FF4FF4006149
:103C80004948FDF72BF90F20FFF77BFF4FF48041E8
:103C90004548FDF723F94FF480514348FDF71EF9DD
:103CA0001420FFF76EFF04213F48FDF717F901BD0F
:103CB00080B504213C48FDF713F90520FFF761FFAB
:103CC0004FF480513848FDF70BF94FF480413648E6
:103CD000FDF706F93220FFF754FF4FF40061324838
:103CE000FDF7FEF84FF400512F48FDF7F9F84FF4B7
:103CF00000412D48FDF7F4F83220FFF742FF102174
:103D00002748FDF7EBF84FF480512548FDF7E6F81A
:103D100008212348FDF7E2F804212148FDF7DEF8E9
:103D20004FF480711E48FDF7D9F81420FFF729FFE2
:103D30004FF480411B48FDF7D1F84FF4005119486A
:103D4000FDF7CCF84FF400711548FDF7C7F8802156
:103D50001348FDF7C3F80A20FFF713FFFFF774FBC2
:103D600001BD80B5FDF705FDFFF72CFF0F48009062
:103D70000F4B104A01211048FEF74AFD4FF48061B5
:103D80000E48FDF7ADF8FFF7DCFE00F006F95FF432
:103D9000E1310B4800F036F901BD0000001002408F
:103DA000000C024000080240001402401C010020E8
:103DB0008C000020E4000020800900200000024068
:103DC000004C0040E0B501210220FCF7D0FF80202C
:103DD000009001208DF8040003208DF805000120DB
:103DE0008DF8060000208DF8070069465548FDF75C
:103DF00019F880215348FDF771F807BDE0B501219E
:103E00000220FCF7B4FF8020009000208DF8040011
:103E100003208DF8050000208DF8060000208DF8A5
:103E2000070069464748FCF7FDFF07BD80B5FFF76F
:103E3000C9FF40214348FDF751F85020FFF78BFEA2
:103E400080214048FDF74AF85020FFF784FE80218A
:103E50003C48FDF745F85020FFF77DFE40213948EA
:103E6000FDF73EF85020FFF776FE01BD80B5FFF765
:103E7000A9FF40213348FDF733F880213148FDF791
:103E80002FF85020FFF767FE40212E48FDF726F857
:103E90005020FFF760FE80212A48FDF71FF85020D0
:103EA000FFF759FE01BD38B50400FFF78BFF8025F1
:103EB0001FE080212348FDF711F807E02800C0B279
:103EC0002042F6D180211F48FDF70AF85020FFF765
:103ED00042FE40211B48FDF701F85020FFF73BFE52
:103EE00040211848FCF7FCFF5020FFF734FEEDB2EC
:103EF0006D082800C0B20028E0D131BD10B5022401
:103F0000FFF77CFF0520FFF726FE80210D48FCF718
:103F1000DBFF002806D0641E200080B20028F4D108
:103F200001200EE040210748FCF7D8FF5020FFF7A2
:103F300012FE40210348FCF7D3FF5020FFF70BFE91
:103F4000002010BD0004024070B504000D001600F2
:103F5000FFF76CFF64002000C0B2FFF7A4FFFFF77B
:103F6000CDFF002801D0012016E02800C0B2FFF7E5
:103F70009AFFFFF7C3FF002801D001200CE03000BA
:103F8000C0B2FFF790FFFFF7B9FF002801D0012072
:103F900002E0FFF76BFF002070BD80B5802220217A
:103FA0002C20FFF7D1FF00222A212C20FFF7CCFF85
:103FB0001F222B212C20FFF7C7FF00222C212C20B1
:103FC000FFF7C2FF00222D212C20FFF7BDFF1C228E
:103FD00030212C20FFF7B8FF1C2240212C20FFF7B6
:103FE000B3FF1C2250212C20FFF7AEFF1C226021C2
:103FF0002C20FFF7A9FF1C2270212C20FFF7A4FF23
:1040000001BD00001FB504002A48844204D10121EB
:104010001020FCF7E2FE22E02748844205D101216E
:104020005FF40030FCF7C9FE19E02448844205D152
:1040300001215FF48020FCF7C0FE10E0204884429C
:1040400005D101215FF40020FCF7B7FE07E01D4811
:10405000844204D101215FF48010FCF7AEFE5FF4CE
:10406000E13000900020ADF804000020ADF806001B
:104070000020ADF808000C20ADF80A000020ADF8D3
:104080000C006946200000F01FF80121200000F01C
:104090007FF81FBD10B504004021094800F08AF8E0
:1040A0000028F9D02100C9B289B2054800F07EF895
:1040B000200010BD001001400044004000480040B6
:1040C000004C00400050004038B584B005000C00A2
:1040D0000020002000200020A0890028298A31F437
:1040E0004051E08801432982A98928480140A088DD
:1040F00001432089014360890143A981A98A31F4E0
:104100004071A0890143A9826846FCF7C2FD1D48A1
:10411000854202D01C48854201D1039900E00299F2
:10412000A889000406D51920414320684000B1FB4E
:10413000F0F205E01920414320688000B1FBF0F265
:104140006420B2FBF0F109010B001B097FF0630052
:1041500000FB0322A889000408D5D0003230642275
:10416000B0FBF2F010F00700014307E0100132301D
:104170006422B0FBF2F010F00F000143298105B07A
:1041800030BD00000010014000140140F3E9FFFFC2
:10419000C9B2002904D0818951F40051818104E021
:1041A00082894DF6FF710A4082817047C905C90DA9
:1041B0008180704700220A0092B2B2F5007F008829
:1041C000084201D0012000E00020C0B2704700008A
:1041D00010B504000223402281212000FEF732FAAC
:1041E0000223402201212000FEF72CFA032308229B
:1041F00082212000FEF726FAB04802210171002139
:104200004171AF48006880474023AE4A0121200039
:10421000FEF76BFA002010BD10B5040081212000CC
:10422000FEF740FA01212000FEF73CFA822120002F
:10423000FEF738FAA24840688047002010BD38B524
:1042400004000D00287810F06000C0B200282DD0C6
:10425000202825D1E88800281AD0287800060BD518
:10426000EA8899496878964B9B689847EA88964906
:104270002000FEF734F911E0687894490860E88876
:1042800093490860EA8890492000FEF749F905E063
:104290000022002168788A4B9B689847002026E01E
:1042A00029002000FEF7DCF8022020E068780628CC
:1042B00004D00A2808D00B280CD017E029002000D1
:1042C000FEF7CEF8022012E0012282492000FEF71C
:1042D00006F90BE06888C0B2002803D1A8787D49B0
:1042E000086003E029002000FEF7BAF8002032BD84
:1042F00080B576480068FF280AD075480268724980
:10430000724800686E4B9B689847FF206F490860B1
:10431000002002BD10B570490978012906D16F4906
:104320000968002910D100216B4A11706A49097887
:10433000022907D1002300228121FEF7FAF900208B
:1043400065490870002010BD6449096841290DD3F2
:1043500063490A684023624909684031604C216022
:104360005E49096840395D4C216014E05C490A6887
:104370005A490B685A490C68584909680C19584938
:104380000C600021554C2160190089B2402902D1EE
:104390000221514C21709BB2524992B20A448121B0
:1043A000FEF7C7F90020CEE710B50400C9B22820F7
:1043B000414304EB0100D0F88C1389B24148404AD4
:1043C0001269904740233F4A01212000FEF78DF9F2
:1043D000002010BD80B5444909684A1C424B1A6050
:1043E000052904D10021404A116000F002F80020A4
:1043F00002BD10B53849097800295AD138490968F1
:10440000B1F5006F02D10021354A116034490968C5
:10441000364A1268914203D100202F49087048E0C3
:10442000324909682E4A1268914206D22C4909681D
:10443000D1F50061294A116006E02C490A68284933
:104440000968521A25490A6024490968412910D38C
:1044500023490A684023224909684031204C2160E1
:104460001E49096840391D4C216001211A4C2170F8
:1044700018E01B490A6819490B6819490C68174963
:1044800009680C1916490C600021144C21601900B0
:1044900089B2402903D102210F4C217002E0012191
:1044A0000D4C21709BB20F4992B20A448121FEF754
:1044B00040F910BD432008800D4870474C01002092
:1044C00038010020A81A0020281B002070010020BD
:1044D0004C1B00203C1B00207B1B0020481B0020A5
:1044E000441B002080010020501B0020401B0020A6
:1044F0004800002080B54848006850F470004649E4
:1045000008604648006850F00100444908600020F7
:104510004349086041480168424801403F48016002
:104520004148424908603D48006830F480203B49DA
:10453000086000203E49086000F005F85FF0006068
:104540003C49086001BD82B000200190002000902D
:104550003248006850F48030304908602F480068C5
:1045600010F4003000900198401C01900098002841
:1045700003D10198B0F5A04FF0D12848006880031E
:1045800002D50120009001E0002000900098012851
:104590003ED12948006850F08050274908602748DC
:1045A000006850F44040254908601D4800681C49D7
:1045B00008601B48006850F400401949086018481A
:1045C000006850F4A050164908601D48174908605B
:1045D0001248006850F08070104908600F48006869
:1045E0008001FBD540F20570164908600C48006850
:1045F000800880000A4908600948006850F00200FD
:10460000074908600648006810F00C000828F9D136
:1046100002B070470000000088ED00E00038024062
:1046200008380240FFFFF6FE103000240438024034
:104630000C38024008ED00E04038024000700040B5
:1046400008544007003C0240122008802C48704764
:10465000042008802B48704780B50A00C0B20028AB
:1046600004D129492948FDF709FF03E026492848D4
:10467000FDF704FF244802BD80B50A002249254801
:10468000FDF7FCFE204802BD80B51A20088000F02E
:1046900022F8214802BD80B50A00C0B2002804D12A
:1046A00019491E48FDF7EAFE03E017491B48FDF7CC
:1046B000E5FE154802BD80B50A00C0B2002804D14D
:1046C00011491748FDF7DAFE03E00F491448FDF7DA
:1046D000D5FE0D4802BD10B51248006812490C689D
:1046E000124909680818002808D00822104900F06B
:1046F00023F804220F49200000F01EF810BD00002E
:104700004C0100207801002058190020E8470008DB
:104710000C4800080C49000800010020504900081E
:1047200030490008107AFF1F147AFF1F187AFF1F04
:10473000020100201201002030B4002300231AE0FF
:104740000400240F37341D00EDB201F815400AE0D3
:104750000400240F0A2CF3D20400240F30341D006F
:10476000EDB201F81540000100241D00EDB201EB8F
:1047700045056C705B1C1C001500E4B2EDB2AC4248
:10478000E6D330BC704730B4002512E050F8042B5B
:10479000D30744BF4A44521E091F042942F8045B50
:1047A000FAD213468C0744BF15809B1CC90748BF2B
:1047B0001D7050F8041B0029E8D130BC7047000080
:1047C00010B5074979441831064C7C44163404E08E
:1047D0000A68081D114488470146A142F8D110BD5E
:1047E000740000009400000053544D333220566989
:1047F000727475616C20436F6D506F727420696EB6
:10480000204853206D6F64650000000053544D3301
:1048100032205669727475616C20436F6D506F72EF
:104820007420696E204653204D6F646500000000BF
:104830004EF68851CEF20001086840F4700008601E
:10484000BFF34F8FBFF36F8F4FF00070E1EE100A90
:104850007047000033FFFFFF001A000080010020B6
:10486000000000002BC3FFFF800100004C0200008D
:1048700000000020000000007047FEE7FEE7FEE7B2
:10488000FEE770477047704780B50248FCF7A6FB0B
:1048900001BD00008009002000F00DF8002801D0C3
:1048A000FFF78EFFAFF300800020AFF30080FFF72B
:1048B000BEF800F002F80120704700F001B80000D7
:1048C00007463846FEF730FCFBE700000548014686
:1048D00003B4684680F30988AFF30080FFF7A8FFB0
:1048E000FFF7DAFFA5EDF5FE38B504460D4628467C
:1048F00000F006F8A84218BF0024204632BD000090
:104900000149FFF7C7BB00BF0000002053544D69A9
:1049100063726F656C656374726F6E6963730000B8
:1049200052756E20546F20496170200D0A000000FE
:1049300056435020496E74657266616365000000DD
:104940000148804701480047F5440008CD48000869
:1049500056435020436F6E66696700006B6B203DC5
:10496000202564200D0A0000253032582000000068
:10497000FFF7FEBFFFF7FEBFFFF7FEBFFFF7FEBF6B
:10498000FFF7FEBFFFF7FEBFFFF7FEBFFFF7FEBF5B
:10499000FFF7FEBFFFF7FEBFFFF7FEBFFFF7FEBF4B
:1049A000FFF7FEBFFFF7FEBFFFF7FEBFFFF7FEBF3B
:1049B000FFF7FEBFFFF7FEBFFFF7FEBFFFF7FEBF2B
:1049C000FFF7FEBFFFF7FEBFFFF7FEBFFFF7FEBF1B
:1049D000FFF7FEBFFFF7FEBFFFF7FEBFFFF7FEBF0B
:1049E000FFF7FEBFFFF7FEBFFFF7FEBFFFF7FEBFFB
:1049F000FFF7FEBFFFF7FEBFFFF7FEBFFFF7FEBFEB
:104A0000FFF7FEBFFFF7FEBFFFF7FEBFFFF7FEBFDA
:104A1000FFF7FEBFFFF7FEBFFFF7FEBFFFF7FEBFCA
:104A2000FFF7FEBFFFF7FEBFFFF7FEBFFFF7FEBFBA
:104A3000FFF7FEBFFFF7FEBFFFF7FEBFFFF7FEBFAA
:104A4000FFF7FEBFFFF7FEBFFFF7FEBFFFF7FEBF9A
:104A5000FFF7FEBFFFF7FEBFFFF7FEBFFFF7FEBF8A
:104A6000FFF7FEBFFFF7FEBFFFF7FEBFFFF7FEBF7A
:104A7000FFF7FEBFFFF7FEBFFFF7FEBFFFF7FEBF6A
:104A8000FFF7FEBFFFF7FEBFFFF7FEBFFFF7FEBF5A
:104A9000FFF7FEBFFFF7FEBFFFF7FEBFFFF7FEBF4A
:104AA000FFF7FEBFFFF7FEBFFFF7FEBFFFF7FEBF3A
:104AB000FFF7FEBFFFF7FEBF02040101581A0020F6
:104AC000A81A0020581A0020581A002000000000E0
:104AD000581A002000000000440000203000002090
:104AE00000000000000000000000000000000000C6
:104AF00000000000000000000000000000000000B6
:104B000009024300020100C0320904000001020250
:104B10000100052400100105240100010424020203
:104B20000524060001070582030800FF09040100AF
:104B3000020A00000007050102400000070581028B
:104B400040000000D1410008194200083F4200081F
:104B500000000000F142000815430008A9430008C6
:104B6000D54300080000000000000000B544000824
:104B7000A92800083F290008592800089F2A000892
:104B8000352A0008832A0008652A0008E32A00085D
:104B9000F12A0008FF2A0008152B000849460008E2
:104BA0005146000879460008594600088946000821
:104BB00097460008B74600081A03000000000000EE
:104BC00000000000000000000000000000000000E5
:104BD00000000000530C0008550C0008570C00089A
:104BE000590C00085B0C00085D0C00085F0C000805
:104BF000A1340008A5340008A9340008AD34000829
:104C0000E534000812010002020200408704475701
:104C10000002010203010000000000000102030481
:104C20000102030406070809FF000000B800002085
:084C3000040309040100000067
:04000005080048CDDA
:00000001FF
