:020000040802F0
:10000000D8910020E5EF0208F5E50208F7E50208BF
:1000100001E6020803E6020805E602080000000007
:1000200000000000000000000000000007E60208D9
:1000300009E6020800000000A78402080BE6020897
:10004000C1F00208C5F00208C9F00208CDF00208AC
:10005000D1F00208D5F00208D9F00208DDF002085C
:10006000E1F00208E5F00208E9F00208EDF002080C
:10007000F1F00208F5F00208F9F002085DE6020866
:10008000FDF002086DE6020801F1020805F1020820
:1000900009F102080DF1020811F1020815F1020838
:1000A00019F102081DF1020821F1020825F10208E8
:1000B0007DE6020829F102082DF1020831F102085B
:1000C00035F1020839F102083DF1020841F1020858
:1000D00045F1020849F102084DE602084DF1020817
:1000E00051F1020855F1020859F102085DF10208C8
:1000F00061F1020865F1020869F102086DF1020878
:1001000071F1020875F1020879F102087DF1020827
:100110003DE6020881F1020885F1020889F1020832
:100120008DF1020891F1020895F1020899F1020897
:100130009DF10208A1F10208A5F10208A9F1020847
:10014000ADF10208B1F10208B5F1020827E6020894
:10015000B9F10208BDF10208C1F10208C5F10208B7
:10016000C9F10208CDF10208D1F10208D5F1020867
:10017000D9F10208DDF10208E1F10208E5F1020817
:10018000E9F10208EDF1020800219020DFF8B42C1B
:1001900050730020DFF8AC2C9073DFF8A00A90F8C1
:1001A0006800DFF8A02CD073DFF8900A90F86700A1
:1001B000DFF8902C1074DFF8840AB0F86C0080B27D
:1001C000000ADFF8802C5074DFF8700AB0F86C0079
:1001D000DFF8702C9074DFF8640AB0F86E0080B21B
:1001E000000ADFF8602CD074DFF8500AB0F86E0017
:1001F000DFF8502C1075DFF8440AB0F8700080B2B8
:10020000000ADFF8402C5075DFF8300AB0F87000B3
:10021000DFF8302C9075DFF8240AB0F8720080B255
:10022000000ADFF8202CD075DFF8100AB0F8720051
:10023000DFF8102C1076DFF8040AB0F8740080B2F2
:10024000000ADFF8002C5076DFF8F009B0F87400EF
:10025000DFF8F02B9076DFF8E409B0F85000A0F258
:100260004C40C92802D251F4007102E04FF6FF5011
:100270000140DFF8C809B0F85200A0F24C40C9288C
:1002800002D251F4807102E04FF6FF600140DFF8C6
:10029000AC09B0F85400B0F5FA70652802D251F0FC
:1002A000800102E04FF67F700140DFF89009B0F85E
:1002B0005600B0F5FA70652802D251F0400102E014
:1002C0004FF6BF700140DFF87409B0F85800B0F580
:1002D000FA70652802D251F0200102E04FF6DF707B
:1002E0000140DFF85809B0F85A00B0F59670972829
:1002F00002D251F0100102E04FF6EF700140DFF83A
:100300003C09B0F85C00B4385B2802D251F0080117
:1003100002E04FF6F7700140DFF82009B0F8600006
:10032000B0F5C870C92802D251F0040102E04FF6BE
:10033000FB700140DFF80409B0F85E00643856280D
:1003400002D251F0020102E04FF6FD700140DFF8E9
:10035000EC08B0F862004138382802D251F00101AF
:1003600002E04FF6FE700140080080B2000ADFF89C
:10037000D42AD076DFF8CC0A0177DFF8C008B0F8CD
:10038000500080B2000ADFF8BC1A4877DFF8AC08EA
:10039000B0F85000DFF8AC1A8877DFF8A008B0F8A2
:1003A000520080B2000ADFF89C1AC877DFF88C0888
:1003B000B0F85200DFF88C1A81F82000DFF87C08D2
:1003C000B0F8540080B2000ADFF8781A81F82100F2
:1003D000DFF86808B0F85400DFF8681A81F82200E6
:1003E000DFF85808B0F8560080B2000ADFF8541A57
:1003F00081F82300DFF84408B0F85600DFF8441A0B
:1004000081F82400DFF83408B0F8580080B2000A00
:10041000DFF8301A81F82500DFF82008B0F858001E
:10042000DFF8201A81F82600DFF81008B0F85A002B
:1004300080B2000ADFF80C1A81F82700DFF8FC0709
:10044000B0F85A00DFF8FC1981F82800DFF8EC0753
:10045000B0F85C0080B2000ADFF8E81981F82900E2
:10046000DFF8D807B0F85C00DFF8D81981F82A0067
:10047000DFF8C807B0F8600080B2000ADFF8C419DE
:1004800081F82B00DFF8B407B0F86000DFF8B4198A
:1004900081F82C00DFF8A407B0F85E0080B2000AF3
:1004A000DFF8A01981F82D00DFF89007B0F85E00A2
:1004B000DFF8901981F82E00DFF88007B0F86200AD
:1004C00080B2000ADFF87C1981F82F00DFF86C0792
:1004D000B0F86200DFF86C1981F83000704780B521
:1004E000A020DFF8641988703120DFF85C19C8702B
:1004F000DFF85009DFF850194860DFF8400790F83E
:100500008600022808D1DFF84409006800F0E7FF00
:10051000DFF83C0901F03BF8DFF8200790F886008F
:1005200001280DD1DFF82C0900F0D9FFDFF82409EC
:10053000C178891DDFF81C09DFF81C29D2689047B3
:10054000DFF8F80690F88600032808D1DFF80C09D8
:10055000006800F0C4FFDFF81C0D01F018F801BDC1
:1005600080B5DFF8FC08406800781B287DD1682042
:10057000DFF8D4180870DFF8D0080078DFF8D41856
:1005800008700420DFF8C0184870DFF8BC08407815
:10059000DFF8C01848700520DFF8AC188870DFF865
:1005A000A8088078DFF8AC1888700420DFF8981865
:1005B000C870DFF89408C078DFF89818C8701B205E
:1005C000DFF8841849680870DFF87C084068007814
:1005D000DFF8801808719020DFF86C1849684870BF
:1005E000DFF8640840684078DFF868184871002038
:1005F000DFF8541849688870DFF84C084068807844
:10060000DFF850188871DFF84C084178DFF84408AB
:1006100080784118DFF83C08C0784118DFF83408CA
:1006200000794118DFF82C0840794118DFF82408D8
:1006300080794118DFF810080172DFF80C08007AA1
:10064000DFF81018C8711620DFF8FC174872DFF8C1
:10065000F807407ADFF8FC1708720921DFF8F40781
:10066000DFF8F427D268904743E00120DFF8D8177D
:1006700088700220DFF8D017C8709020DFF8C81704
:10068000496808700020DFF8C01749684870DFF833
:10069000AC0590F88600022808D1DFF8B0070068A2
:1006A00000F01DFFDFF8A80700F071FFDFF88C05F0
:1006B00090F8860001280DD1DFF8980700F00FFFB1
:1006C000DFF89007C178891DDFF88807DFF88827F1
:1006D000D2689047DFF8640590F88600032808D1B7
:1006E000DFF87807006800F0FAFEDFF8880B00F00A
:1006F0004EFF01BD10B50220DFF84C1788701320A3
:10070000DFF84417C8700B22DFF83819DFF8380714
:100710004468200001F0B0F80822DFF82C19DFF857
:100720002807406810F10B04200001F0A5F8DFF85D
:100730000C0590F88600022808D1DFF81007006841
:1007400000F0CDFEDFF8080700F021FFDFF8EC0431
:1007500090F8860001280DD1DFF8F80600F0BFFE02
:10076000DFF8F006C178891DDFF8E806DFF8E82633
:10077000D2689047DFF8C40490F88600032808D1B7
:10078000DFF8D806006800F0AAFEDFF8E80A00F0FB
:10079000FEFE10BD80B50320DFF8AC168870022085
:1007A000DFF8A416C8709020DFF89C16496808701E
:1007B0000020DFF8941649684870DFF8800490F84C
:1007C0008600022808D1DFF88406006800F087FE62
:1007D000DFF87C0600F0DBFEDFF8600490F88600AE
:1007E00001280DD1DFF86C0600F079FEDFF8640611
:1007F000C178891DDFF85C06DFF85C26D268904777
:10080000DFF8380490F88600032808D1DFF84C069A
:10081000006800F064FEDFF85C0A00F0B8FE01BD7D
:1008200080B5DFF83C06406801F088F90420DFF865
:10083000181688700120DFF81016C8700120DFF844
:10084000081649680870DFF8F40390F8860002285B
:1008500008D1DFF8F805006800F041FEDFF8F00588
:1008600000F095FEDFF8D40390F8860001280DD142
:10087000DFF8E00500F033FEDFF8D805C178891D08
:10088000DFF8D005DFF8D025D2689047DFF8AC0359
:1008900090F88600032808D1DFF8C005006800F052
:1008A0001EFEDFF8080D00F072FE01BD80B50520C8
:1008B000DFF8941588700120DFF88C15C8700120CE
:1008C000DFF8841549680870DFF8700390F8860037
:1008D000022808D1DFF87405006800F000FEDFF898
:1008E000700500F054FEDFF8540390F886000128EC
:1008F0000DD1DFF8600500F0F2FDDFF85805C17892
:10090000891DDFF85005DFF85025D2689047CB48A5
:1009100090F88600032808D1DFF84005006800F051
:10092000DEFDDFF8880C00F032FE01BD80B5062048
:10093000DFF8141588700120DFF80C15C87001204D
:10094000DFF8041549680870BC4890F88600022852
:1009500008D1DFF8F804006800F0C1FDDFF8F0040A
:1009600000F015FEB54890F8860001280DD1DFF89B
:10097000E40400F0B4FDDFF8DC04C178891DDFF881
:10098000D404DFF8D424D2689047AC4890F88600AD
:10099000032808D1DFF8C404006800F0A0FDDFF8E8
:1009A0000C0C00F0F4FD01BD80B50720DFF89814B1
:1009B00088700120DFF89014C8700120DFF88814D7
:1009C000496808709D4890F88600022808D1DFF831
:1009D0007C04006800F083FDDFF8740400F0D7FDAC
:1009E000964890F8860001280DD1DFF8680400F0E1
:1009F00076FDDFF86004C178891DDFF85804DFF860
:100A00005824D26890478D4890F88600032808D172
:100A1000DFF84804006800F062FDDFF8900B00F09A
:100A2000B6FD01BDDFF8000ADFF8B41C08607047AE
:100A300080B5DFF82C04406800781D285DD168205F
:100A4000DFF804140870DFF800040078DFF80414FD
:100A500008700420DFF8F0134870DFF8EC034078EA
:100A6000DFF8F01348700620DFF8DC138870DFF839
:100A7000D8038078DFF8DC1388700220DFF8C81311
:100A8000C870DFF8C403C078DFF8C813C8701E2030
:100A9000DFF8B41349680870DFF8AC0340680078E9
:100AA000DFF8B0130871DFF8AC034178DFF8A40376
:100AB00080784118DFF89C03C0784118DFF8940370
:100AC00000794118DFF880030172DFF87C03007AB7
:100AD000DFF8801348711620DFF86C134872DFF8D6
:100AE0006803407ADFF86C1388710721DFF864032C
:100AF000DFF86423D268904736E00820DFF8481317
:100B000088700120DFF84013C8700120DFF8381327
:100B100049680870494890F88600022808D1DFF833
:100B20002C03006800F0DBFCDFF8240300F02FFD4D
:100B3000424890F88600012809D1C64800F0CFFC51
:100B4000C448C178891DC348C34AD26890473B480E
:100B500090F88600032807D1C048006800F0BFFC69
:100B6000DFF8100700F013FD01F000F8DFF8401A7D
:100B7000DFF8700B01F013F801F008F8C82001F05D
:100B8000B2F8FFF74FFF01BD80B50920AE4988706C
:100B90000720AD49C870294890F88800AA494968DB
:100BA0000870264890F88900A7494968487023488A
:100BB00090F88B00A44949688870204890F88F000D
:100BC000A1494968C8701D4890F88A009E49496843
:100BD00008711A4890F88C009B4949684871174879
:100BE00090F89000984949688871144890F88600F8
:100BF000022806D19548006800F071FC944800F086
:100C0000C6FC0E4890F88600012809D1914800F0F2
:100C100066FC9048C178891D8E488F4AD2689047FB
:100C2000064890F88600032807D18C48006800F039
:100C300056FCDFF8780900F0AAFC01BD0000002096
:100C400080B50A20804988700A207F49C870DFF883
:100C5000980AB0F86C0080B2000A7B4949680870B5
:100C6000DFF8840AB0F86C00774949684870DFF80B
:100C7000780AB0F86E0080B2000A7349496888703B
:100C8000DFF8640AB0F86E006F494968C870DFF891
:100C9000580AB0F8700080B2000A6B4949680871C0
:100CA000DFF8440AB0F87000674949684871DFF816
:100CB000380AB0F8720080B2000A63494968887146
:100CC000DFF8240AB0F872005F494968C871DFF89C
:100CD000180AB0F8740080B2000A5B4949680872CB
:100CE000DFF8040AB0F87400574949684872DFF821
:100CF000F80990F88600022806D15448006800F0F0
:100D0000EEFB534800F043FCDFF8DC0990F8860066
:100D1000012809D14F4800F0E2FB4E48C178891DF7
:100D20004C484D4AD2689047DFF8BC0990F88600DD
:100D3000032807D14948006800F0D1FBDFF86C08B0
:100D400000F025FC01BD80B50B203F4988700220D2
:100D50003D49C870DFF8900990F88D003A4949681C
:100D60000870DFF8840990F88E00374949684870A8
:100D7000DFF8740990F88600022806D1334800682D
:100D800000F0ADFB324800F002FCDFF85C0990F89F
:100D90008600012809D12F4800F0A1FB2D48C17819
:100DA000891D2C482C4AD2689047DFF83C0990F8FE
:100DB0008600032807D12948006800F090FBDFF87F
:100DC000EC0700F0E4FB01BD80B5254840680078E1
:100DD000DFF8141981F867000C201B498870012086
:100DE0001949C8700120184949680870DFF8F808E7
:100DF00090F88600022806D11448006800F06FFBC6
:100E0000134800F0C4FBDFF8E00890F886000128E2
:100E100009D1104800F063FB0E48C178891D0D48C8
:100E20000D4AD2689047DFF8C00890F88600032882
:100E300007D10A48006800F052FBDFF8700700F0A5
:100E4000A6FB01BD280100205802002084020020DA
:100E5000A0600240AC6F0020080200207402002055
:100E60004C02002080B50D20DFF8E81988701420AE
:100E7000DFF8E019C870DFF87008B0F8500080B2F1
:100E8000000ADFF8D01949680870DFF85C08B0F88C
:100E90005000DFF8C01949684870DFF84C08B0F816
:100EA000520080B2000ADFF8AC1949688870DFF898
:100EB0003808B0F85200DFF89C194968C870DFF8AC
:100EC0002808B0F8540080B2000ADFF88819496891
:100ED0000871DFF81408B0F85400DFF87819496891
:100EE0004871DFF80408B0F8560080B2000ADFF855
:100EF000641949688871DFF8F007B0F85600DFF828
:100F000054194968C871DFF8E007B0F8580080B29A
:100F1000000ADFF8401949680872DFF8CC07B0F81A
:100F20005800DFF8301949684872DFF8BC07B0F89C
:100F30005A0080B2000ADFF81C1949688872DFF88D
:100F4000A807B0F85A00DFF80C194968C872DFF832
:100F50009807B0F85C0080B2000ADFF8F81849681A
:100F60000873DFF88407B0F85C00DFF8E818496818
:100F70004873DFF87407B0F8600080B2000ADFF849
:100F8000D41849688873DFF86007B0F86000DFF8AC
:100F9000C4184968C873DFF85007B0F85E0080B223
:100FA000000ADFF8B01849680874DFF83C07B0F8A9
:100FB0005E00DFF8A01849684874DFF82C07B0F825
:100FC000620080B2000ADFF88C1849688874DFF884
:100FD0001807B0F86200DFF87C184968C874DFF8B9
:100FE000080790F88600022808D1DFF86C0800682E
:100FF00000F075FADFF8640800F0C9FADFF8E806D7
:1010000090F8860001280DD1DFF8540800F067FA47
:10101000DFF84C08C178891DDFF84408DFF8442860
:10102000D2689047DFF8C00690F88600032808D100
:10103000DFF83408006800F052FADFF8700500F0BD
:10104000A6FA01BD400200206402002080B500F035
:1010500049FF0E20DFF8FC1788700820DFF8F4172E
:10106000C870DFF88406B0F8480080B2000ADFF8E4
:10107000E41749680870DFF87006B0F84800DFF838
:10108000D41749684870DFF86006B0F84A0080B2AB
:10109000000ADFF8C01749688870DFF84C06B0F81E
:1010A0004A00DFF8B0174968C870DFF83C06B0F8AE
:1010B0004C0080B2000ADFF89C1749680871DFF81D
:1010C0002806B0F84C00DFF88C1749684871DFF843
:1010D0001806B0F84E0080B2000ADFF878174968A9
:1010E0008871DFF80406B0F84E00DFF86817496829
:1010F000C871DFF8F40590F8860001280DD1DFF8FB
:10110000600700F0ECF9DFF85807C178891DDFF8B7
:101110005007DFF85027D2689047DFF8CC0590F8E9
:101120008600022808D1DFF83007006800F0D7F900
:10113000DFF8280700F02BFADFF8AC0590F88600FE
:10114000032808D1DFF82007006800F0C8F9DFF8AD
:101150005C0400F01CFA01BD80B54FF40041DFF8DB
:101160000C0701F005FA0F20DFF8E816887001205F
:10117000DFF8E016C8700120DFF8D816496808705B
:10118000DFF8640590F88600022808D1DFF8C80669
:10119000006800F0A4F9DFF8C40600F0F8F9DFF801
:1011A000480590F8860001280DD1DFF8B40600F05C
:1011B00096F9DFF8AC06C178891DDFF8A406DFF8E0
:1011C000A426D2689047DFF8200590F8860003280F
:1011D00008D1DFF89406006800F081F9DFF8CC034D
:1011E00000F0D5F901BD80B54FF40041DFF87C0671
:1011F00001F0BCF91020DFF85C1688700120DFF8E0
:101200005416C8700120DFF84C1649680870DFF8E2
:10121000D80490F88600022808D1DFF83C06006860
:1012200000F05DF9DFF8340600F0B1F9DFF8B8043A
:1012300090F8860001280DD1DFF8240600F04FF960
:10124000DFF81C06C178891DDFF81406DFF81426C4
:10125000D2689047DFF8900490F88600032807D101
:10126000DFF80406006800F03AF9D04800F08FF982
:1012700001BD00007060024080B54FF48041DFF88E
:10128000EC0501F075F91120DFF8C8158870012010
:10129000DFF8C015C8700120DFF8B815496808707C
:1012A000DFF8440490F88600022808D1DFF8A8058A
:1012B000006800F014F9DFF8A40500F068F9DFF821
:1012C000280490F8860001280DD1DFF8940500F07D
:1012D00006F9DFF88C05C178891DDFF88405DFF891
:1012E0008425D2689047DFF8000490F88600032830
:1012F00007D1DFF87405006800F0F1F8AB4800F0A2
:1013000046F901BD80B54FF48041DFF8600501F07A
:101310002DF91220DFF83C1588700120DFF8341514
:10132000C8700120DFF82C1549680870DFF8B80391
:1013300090F88600022808D1DFF81C05006800F04C
:10134000CEF8DFF8180500F022F9DFF89C0390F8DA
:10135000860001280DD1DFF8080500F0C0F8DFF89D
:101360000005C178891DDFF8F804DFF8F824D26899
:101370009047DFF8740390F88600032807D1DFF860
:10138000E804006800F0ABF8884800F000F901BDFF
:1013900080B5DFF8DC04406801F0E1F901BD80B5FB
:1013A000DFF8CC04406801F0FCFA01BD80B5F02004
:1013B000DFF8A01488700120DFF89814C870F020BE
:1013C000DFF8901449680870C74890F88600022832
:1013D00008D1DFF88404006800F081F8DFF87C04AD
:1013E00000F0D5F8C04890F8860001280DD1DFF84C
:1013F000700400F074F8DFF86804C178891DDFF824
:101400006004DFF86024D2689047B74890F88600FF
:10141000032807D1DFF85004006800F060F8634843
:1014200000F0B5F801BD00000400FA05DFF8400443
:1014300040680078C00703D50120AB49087002E07E
:101440000020A9490870DFF8280440680078800768
:1014500004D50120A44981F8870003E00020A249B7
:1014600081F88700DFF8080440680078400704D559
:1014700001209D4981F8660003E000209A4981F827
:101480006600DFF8EC0340680078000704D501200F
:10149000954981F86A0003E00020934981F86A00C9
:1014A000DFF8CC0340680078C00604D501208E49DF
:1014B00081F8760003E000208B4981F87600DFF8A0
:1014C000B00340680078800604D50120864981F881
:1014D000990003E00020844981F89900704710B416
:1014E0000021DFF870134A78DFF8681389788A18CA
:1014F000DFF86013C9788A18DFF858130A720022DF
:101500000DE0DFF850130B7ADFF848134968140038
:10151000E4B2095DCB18DFF83C130B72521C1100CA
:10152000DFF83033DB78C9B29942EAD3DFF824130D
:1015300009780170DFF81C1349784170DFF8141343
:1015400089788170DFF80C13C978C170002107E039
:10155000DFF800235268525C00EB01031A71491C4A
:10156000DFF8F022D2789142F2DBDFF8E812097A54
:10157000DFF8E022D27802441171DFF8D812497AFC
:10158000DFF8D022D2781044417110BC704710B5FA
:101590000400DFF8C002C178891D89B2200002F082
:1015A00028F80121200002F017F810BD70600240F9
:1015B000BBBBAAAA30B400220378DFF8B442237080
:1015C000401C0378DFF8A8426370401C0378DFF802
:1015D000A042A370401C0378DFF89442E370401CE3
:1015E000002306E00478DFF888526D68EC54401C54
:1015F0005B1C0C00E4B2A41FA342F3DB0178DFF80C
:1016000070321972401C0078DFF864124872DFF8FB
:10161000600240788218DFF8580280788218DFF87C
:101620005002C0788218002105E0DFF844024068CB
:10163000405C8218491CDFF83802C0788142F4DB34
:10164000DFF82C02007868281ED1DFF824024078E9
:10165000042819D1DFF818028078032814D1DFF8A4
:101660001002C07802280FD1DFF804024068007829
:101670001B2801D1012031E0DFF8F4014068007837
:101680001D2801D1012029E0DFF8E4010078682855
:1016900023D1DFF8DC01407804281ED1DFF8D00127
:1016A000407A162819D1DFF8C801007AD2B28242F6
:1016B00013D1DFF8BC018078132804D0DFF8B00123
:1016C0008078142807D1002000E0401CDFF8A0112A
:1016D000C9788842F9DB012000E0002030BC704767
:1016E0000CED00E000000C080000002080B5604810
:1016F000807803280FD15E48406800781B2802D10B
:1017000001205B4988705A48406800781D2802D142
:101710000820574988705648807801282DD0022823
:101720002ED003282FD0042830D0052831D0062809
:1017300032D0072833D0082834D0092835D00A28D9
:1017400036D00B2837D00C2838D00D2839D00E28A9
:101750003AD00F283BD010283CD011283DD0122879
:101760003ED013283FD0142855D0A02802D0FF28FF
:1017700069D06BE0FEF7B3FE6AE0FEF7F1FE67E0CA
:10178000FEF7B8FF64E0FFF705F861E0FFF748F8FF
:101790005EE0FFF78BF85BE0FFF7C8F858E0FFF773
:1017A00003F955E0FFF744F952E0FFF7EDF94FE098
:1017B000FFF746FA4CE0FFF7C6FA49E0FFF704FBF3
:1017C00046E0FFF74FFB43E0FFF740FC40E0FFF748
:1017D000C3FC3DE0FFF707FD3AE0FFF74DFD37E0C2
:1017E000FFF790FD34E00120224948700020214994
:1017F000887000201F49487100201E490871002090
:101800001C49C87100201B490872002019498881B1
:10181000FFF7BEFD1CE00020164948700120154965
:101820008870002013494871002012490871002077
:101830001049C87100200F49087200200D498881A5
:10184000FFF7ADFD04E0FFF7F1FD01E0FFF7AEFDAE
:1018500001BD00005802002084020020A060024068
:10186000AC6F002008020020740200200018024023
:101870004C0200200000002062B38B0708D0521EEB
:1018800011F8013B00F8013B00F024808B07F6D1F2
:10189000830740F0208000BF103A07D330B4B1E88E
:1018A0003810103AA0E83810F9D230BC530724BFE2
:1018B000B1E80810A0E8081044BF51F8043B40F814
:1018C000043BD20724BF31F8022B20F8022B44BF7F
:1018D0000B7803707047121F17D35B0009D151F8C2
:1018E000043B20F8023B1B0C121F20F8023BF6D2EF
:1018F0000BE051F8043B00F8013B1B0A20F8023BC7
:101900001B0C121F00F8013BF3D238BF121D521EF0
:1019100024BF11F8013B00F8013BF8D8704770472D
:10192000704770477047704770477047E0B50121B6
:10193000102001F060FF4FF40060009001208DF84E
:10194000040003208DF8050001208DF8060000201A
:101950008DF807006946834800F0ACFD07BDE0B58F
:101960000121102001F047FF4FF40060009000209B
:101970008DF8040003208DF8050001208DF8060085
:1019800000208DF807006946764800F093FD07BDFA
:1019900010B5FFF7CBFF4FF40061724800F0E6FD91
:1019A000C82000F0C6F94FF400616E4800F0E0FD79
:1019B0004FF4167000F0BDF9FFF7D1FF3C2000F0A6
:1019C000B8F94FF40061674800F0C6FD04004FF419
:1019D000967000F0AEF92000C0B210BD38B504001A
:1019E000FFF7A4FF002522E04FF400615D4800F0FE
:1019F000BFFD16E04FF400615A4800F0B7FD022029
:101A000000F097F94FF40061564800F0B1FD0A204C
:101A100000F08FF9E007E7D54FF40061514800F07E
:101A2000A5FD3C2000F085F9E4B264086D1C082D8A
:101A3000E0DB31BD70B500240125002625E0AC4374
:101A40001EE0FFF773FF4FF40061464800F08EFD83
:101A5000022000F06EF94FF40061424800F088FD6A
:101A6000022000F066F9FFF77AFF052000F061F927
:101A70004FF400613B4800F06FFD0028DFD02C439D
:101A80003C2000F056F96D00761C082ED9DB2000B2
:101A9000C0B270BD70B504000D00FFF779FF0028DB
:101AA00001D0012049E0CC20FFF798FF0F20FFF77D
:101AB00095FF2000C0B2FFF791FF0020FFF78EFFD7
:101AC000002605E03000C0B2285CFFF787FF761CD7
:101AD0003000C0B20828F5DBFFF7ACFF0500FFF7C8
:101AE000A9FF55EA0025FFF753FF002801D0012088
:101AF00023E0CC20FFF772FF5520FFF76FFF200097
:101B0000C0B2FFF76BFF0020FFF768FF0720FFF769
:101B100065FF4FF40061134800F028FD4FF4487052
:101B200000F007F9FFF786FF80B2AA2804D14FF42E
:101B300000610C4800F01AFD002070BD10B50021B6
:101B400006E00278084B0C00E4B21A55401C491C10
:101B50000A00D2B2102AF4DB03490020FFF79AFFF3
:101B600010BD00000010024098700020DFF8D40083
:101B70000068002809D5DFF8D000DFF8D010086031
:101B8000DFF8CC00DFF8C41008607047DFF8B4005D
:101B9000006850F00040DFF8AC100860704738B5BE
:101BA00004000D00092000F057F80100C9B209290E
:101BB00022D1DFF89000006830F44070DFF8841024
:101BC0000860DFF88000006850F40070DFF87410DF
:101BD0000860DFF87000006850F00100DFF8641062
:101BE0000860256000F038F8DFF8581009684908E7
:101BF0004900DFF850201160C0B232BD09201548FD
:101C00000068C00301D5012019E012480068C00631
:101C100001D5062013E00F480068C00501D5022059
:101C20000DE00C48006810F0E00F01D0072006E03E
:101C300008480068800701D5082000E00920C0B2EC
:101C400070470000103C024023016745043C0240FD
:101C5000AB89EFCD0C3C024080B509208DF8000027
:101C6000FFF7CCFF8DF8000003E0FFF7C7FF8DF80A
:101C700000009DF800000128F7D09DF8000002BD8B
:101C8000020052B2002A08D509013A4A40B210F0C7
:101C90000F00104400F8041C03E00901364A40B26A
:101CA0001154704780B5411EB1F1807F01D30120EE
:101CB0000EE0401E314908600F215FF0FF30FFF752
:101CC000DFFF00202E49086007202E490860002011
:101CD00002BD80B545F20820FFF7E4FF7FF0040065
:101CE00001F020FE01BD01B5009800F00FF800F0F2
:101CF00013F80028FBD101BD23480068002804D058
:101D000021480068401E20490860704701B40098CF
:101D10001D49086001B070471B480068704780B5D6
:101D2000684601F096FF01BD80B5684601F0C1FF2D
:101D300001BD70B50400A4B2152044430F480568E6
:101D40000F480668FFF7EBFF0D480068002801D137
:101D50000B480068B042F7D0B04203D2301AA0421C
:101D6000F2D303E0281A3018A042EDD3FFF7DCFFCE
:101D700070BD000018ED00E000E400E014E000E0B9
:101D800018E000E010E000E06C71002038B58AB087
:101D900004000D00DFF89C06844204D101214FF4B9
:101DA000807001F05EFDDFF89006844204D10121CD
:101DB0004FF4007001F055FDDFF88006844204D135
:101DC00001214FF4806001F04CFD002006905FF48B
:101DD00080300790002008900020099006A802F0AB
:101DE000A2FB0020009001208DF8040001208DF856
:101DF0000500002002905FF07060039000200490C6
:101E00008DF814506946200002F068FB0121200083
:101E100002F099FB0BB030BD70B48AB000210023F2
:101E200013E0DFF81C461D00EDB21C22554304EB05
:101E300005020400E4B202EB440232F8022C6C46C4
:101E40001D00EDB224F815205B1C1A00D2B2142A32
:101E5000E7DB00202CE06B461400E4B203EB440304
:101E60005B886C461500EDB234F81540A34215D2DC
:101E70006B461400E4B233F814306C461500EDB232
:101E800004EB450464886D461600F6B225F816404A
:101E90006C461500EDB204EB45046380521C130040
:101EA000DBB20400E4B2D4F11304A342D3DB401C40
:101EB0000200D2B2142A01DA0022F0E7022007E081
:101EC0006A460300DBB232F8132011FA82F1401C9B
:101ED0000200D2B2122AF3DB0909080080B20AB06C
:101EE00070BC704780B50120FFF796FF02F0DAFB67
:101EF0005FF06632DFF84C3502F0E2FB0022DFF8DB
:101F0000483502F0B3FCDFF84425DFF8443502F031
:101F1000ADFCDFF84025DFF8403502F0D1FB0022B0
:101F2000DFF8383502F0CCFB02F0C4FDDFF83015E5
:101F3000A1F848000220FFF76FFF02F0B3FB5FF04B
:101F40006632DFF8003502F0BBFB0022DFF8F83420
:101F500002F08CFC02000B005FF06630DFF8E41446
:101F600002F078FEDFF8FC24DFF8FC3402F07EFC9F
:101F7000DFF8F824DFF8F83402F0A2FB5FF06632F5
:101F8000DFF8F03402F0A8FD0022DFF8D03402F0D0
:101F900097FB02F08FFDDFF8C814A1F84A00032078
:101FA000FFF73AFF02F07EFB5FF06632DFF8943411
:101FB00002F086FB0022DFF8903402F057FCDFF8D5
:101FC0008C24DFF88C3402F051FCDFF88824DFF831
:101FD000883402F075FB0022DFF8803402F070FBD9
:101FE00002F068FDDFF87814A1F84C000420FFF738
:101FF00013FF02F057FB5FF06632DFF8483402F05F
:102000005FFB0022DFF8403402F030FC02000B00DE
:102010005FF06630DFF82C1402F01CFEDFF8442479
:10202000DFF8443402F022FCDFF84024DFF84034CB
:1020300002F046FB5FF06632DFF8383402F04CFD08
:102040000022DFF8183402F03BFB02F033FDDFF82A
:102050001014A1F84E0001BD80B50520FFF7DCFE8D
:1020600002F020FB5FF06632DFF8D83302F028FB85
:102070000022DFF8D43302F0F9FB0022DFF8F83356
:1020800002F0F4FB5FF03332DFF8F03302F018FBBC
:102090000022DFF8C83302F013FB02F00BFDDFF87B
:1020A000C013A1F85A000620FFF7B6FE02F0FAFAB4
:1020B0005FF06632DFF88C3302F002FB0022DFF8BB
:1020C000883302F0D3FB0022DFF8AC3302F0CEFB02
:1020D0005FF03332DFF8A43302F0F2FA0022DFF8C7
:1020E0007C3302F0EDFA02F0E5FCDFF87413A1F89E
:1020F0005C000720FFF790FE02F0D4FA5FF0663232
:10210000DFF8403302F0DCFA0022DFF83C3302F063
:10211000ADFBDFF86C23DFF86C3302F0A7FBDFF8D0
:102120006823DFF8683302F0CBFA0022DFF82C33A3
:1021300002F0C6FA02F0BEFCDFF82413A1F850004A
:102140000820FFF769FE02F0ADFA5FF06632BD4B82
:1021500002F0B6FA0022BC4B02F088FB02000B0032
:102160005FF06630B74902F075FDC54AC54B02F015
:102170007DFBC74AC74B02F0A3FA5FF06632BD4B46
:1021800002F0AAFC0022B54B02F09AFA02F092FC8F
:10219000B349A1F852000920FFF73EFE02F082FA8F
:1021A0005FF06632A74B02F08BFA0022A64B02F0DA
:1021B0005DFB0022B04B02F059FB5FF03332AF4BB6
:1021C00002F07EFA0022A54B02F07AFA02F072FCCD
:1021D000A349A1F854000A20FFF71EFE02F062FA9C
:1021E0005FF06632974B02F06BFA0022964B02F0DA
:1021F0003DFB0022A04B02F039FB5FF033329F4BD6
:1022000002F05EFA0022954B02F05AFA02F052FCFC
:102210009349A1F856000B20FFF7FEFD02F042FAA9
:102220005FF06632874B02F04BFA0022864B02F0D9
:102230001DFB02000B005FF06630824902F00AFDD0
:102240008F4A904B02F012FB914A924B02F038FAFF
:102250005FF06632874B02F03FFC00227F4B02F0BA
:102260002FFA02F027FC7E49A1F858000C20FFF756
:10227000D3FD02F017FA5FF06632724B02F020FADB
:102280000022714B02F0F2FA00227B4B02F0EEFAD0
:102290005FF03332794B02F013FA00226F4B02F0F9
:1022A0000FFA02F007FC6E49A1F860000D20FFF75D
:1022B000B3FD02F0F7F95FF06632624B02F000FA0C
:1022C0000022614B02F0D2FA0022734B02F0CEFAE8
:1022D0000022724B02F0F4F90022604B02F0F0F998
:1022E00002F0E8FB5E49A1F862000E20FFF794FDC2
:1022F00002F0D8F95FF06632524B02F0E1F90022A9
:10230000514B02F0B3FA0022634B02F0AFFA002205
:10231000624B02F0D5F90022504B02F0D1F902F0E5
:10232000C9FB4F49A1F85E0001BD70B48AB000211D
:10233000002210E05A4B1400E4B203EB84030400C3
:10234000E4B203EB440333F8023C6C461500EDB2F3
:1023500024F81530521C1300DBB2142BEADB0020EA
:102360002CE06B461400E4B203EB44035B886C463C
:102370001500EDB234F81540A34215D26B46140097
:10238000E4B233F814306C461500EDB204EB4504AA
:1023900064886D461600F6B225F816406C461500A6
:1023A000EDB204EB45046380521C1300DBB2040061
:1023B000E4B2D4F11304A342D3DB401C0200D2B236
:1023C000142A01DA0022F0E7022007E06A4603003F
:1023D000DBB232F8132011FA82F1401C0200D2B2B3
:1023E000122AF3DB0909080080B20AB070BC7047FA
:1023F00080B50220FFF799FF02F054F95FF06632D2
:10240000104B02F05DF900220F4B02F02FFA254A23
:10241000254B02F061FB154A244B02F027FA0022FB
:10242000234B02F059FB02F087FC0D4981F868004C
:1024300001BD0000002001400021014000220140B8
:10244000CC51002066660A4000FEAF40E17A14AE2F
:1024500047E11040AE47E17A140E5A40000059405F
:10246000000000205C8FC2F5285C05407B14AE475D
:10247000E1AA594066660AC000002E4033F343408B
:10248000F6285C8FC2F51340A4703D0AD7E33D40A7
:102490008FC2F5285CBF5C4000002440000034403F
:1024A0000C6F002052B81E85EB51E8BFE17A643F03
:1024B0000000394030B4002200220022002347E00F
:1024C00001229A400C681440944240D104680325CC
:1024D0001A00D2B252009540AC43046004680D79F2
:1024E0001A00D2B2520095402C4304600A79012AA6
:1024F00002D00A79022A1AD1846803251A00D2B2BE
:1025000052009540AC43846084684D791A00D2B281
:10251000520095402C438460426801249C40A243B1
:10252000426042688C799C40A4B222434260C468F5
:1025300003251A00D2B252009540AC43C460C4686F
:10254000CD791A00D2B2520095402C43C4605B1C76
:10255000102BB5D330BC70470022006989B2084205
:1025600001D0012000E00020C0B270470183704715
:1025700041837047426989B251404161704770B4EC
:1025800000230023D2B211F00703DBB29B009A4074
:102590000B009BB2DB1000EB83040B009BB2DB1043
:1025A00000EB83031D6A0F2611F00703DBB29B00CB
:1025B0009E40B54325620B009BB2DB1000EB83030A
:1025C0001B6A1A4389B2C91000EB8100026270BC19
:1025D00070470A0080B51320DFF884168870082041
:1025E000DFF87C16C870DFF87C06B0F8480080B2CF
:1025F000000ADFF86C1649680870DFF86806B0F862
:102600004800DFF85C1649684870DFF85806B0F8F3
:102610004A0080B2000ADFF8481649688870DFF87F
:102620004406B0F84A00DFF838164968C870DFF889
:102630003406B0F84C0080B2000ADFF8241649686E
:102640000871DFF82006B0F84C00DFF8141649686E
:102650004871DFF81006B0F84E0080B2000ADFF8CB
:10266000001649688871DFF8FC05B0F84E00DFF805
:10267000F0154968C871DFF8EC0590F8860001286C
:102680000DD1DFF8E405FEF72AFFDFF8DC05C1789D
:10269000891DDFF8D405DFF8D425D268904701BD45
:1026A000DFF8C005008A9630DFF8B8150884DFF837
:1026B000B405008A9638DFF8AC154884DFF8A40525
:1026C000008A9630DFF89C158884DFF89805008A28
:1026D0009638DFF89015C884DFF88805407801281F
:1026E0001BD1DFF88005808A9630DFF878150885E1
:1026F000DFF87005808A9638DFF868154885DFF8BE
:102700006405808A9630DFF85C158885DFF854050B
:10271000808A9638DFF84C15C885DFF84805807840
:1027200001281BD1DFF83C05808A6430DFF83415BE
:102730000885DFF83005808A6438DFF82815488579
:10274000DFF82005C08A6430DFF818158885DFF8C7
:102750001405C08A6438DFF80C15C885704780B549
:102760000178427852EA0122DFF8F8140A8281786F
:10277000C27852EA0122DFF8EC144A8201794279E8
:1027800052EA0122DFF8DC148A828179C07950EAAA
:102790000120DFF8D014C882DFF8C804008AB0F541
:1027A000FA7041F65931884280F0FA80DFF8B404BB
:1027B000408AB0F5FA7041F65931884280F0F080D5
:1027C000DFF8A004808AB0F5FA7041F659318842EA
:1027D00080F0E680DFF88C04C08AB0F5FA7041F62C
:1027E0005931884280F0DC80DFF87804008ADFF815
:1027F0007414098B884207D1DFF86804408ADFF837
:102800006414498B884204D00120DFF858144872C0
:1028100003E00020DFF84C144872DFF84804808A97
:10282000DFF84014898B884207D1DFF83804C08A6A
:10283000DFF83014C98B884204D00120DFF824145B
:10284000887203E00020DFF81C1488720120DFF892
:10285000141448720120DFF80C148872DFF80404A5
:10286000407A012805D0DFF8FC03807A012840F087
:102870009780DFF8F003008BDFF8E813098A8842BD
:1028800007D2DFF8E003408BDFF8D813498A88428B
:102890000FD3DFF8D003808BDFF8C813898A884212
:1028A00015D2DFF8C003C08BDFF8B813C98A88429D
:1028B0000DD2DFF8B0030078002803D0DFF8340C25
:1028C00002F056FA6420DFF89C13C88134E0DFF888
:1028D0009403008ADFF88C13098B884207D1DFF854
:1028E0008403408ADFF87C13498B88420FD0DFF8DD
:1028F0007403808ADFF86C13898B884210D1DFF86B
:102900006403C08ADFF85C13C98B884208D1D548BC
:102910000078002810D0DFF81C0C02F029FA0BE038
:10292000D0480078002803D0DFF80C0C02F020FA21
:102930004FF4FA70CB49C881CA48008AC949088354
:10294000C848408AC7494883C648808AC5498883A1
:10295000C448C08AC349C883FFF7A2FE02F020FB27
:10296000C048007800280CD0BE48C08E0090BD48FA
:10297000838EBC48428EBB48018EDFF8C00B02F04C
:10298000F7F90120B74948710020B64908710020C5
:10299000B44988810120B34908720020B149C87246
:1029A00001BD80B50178427852EA0122DFF8901B20
:1029B0000A828178C27852EA0122DFF8841B4A82B7
:1029C0000179427952EA0122DFF8741B8A82817907
:1029D000C07950EA0120DFF8681BC882DFF8600B7D
:1029E000008AB0F5FA7041F65931884280F037819B
:1029F000DFF84C0B408AB0F5FA7041F65931884245
:102A000080F02D81DFF8380B808AFA38FB2880F0BF
:102A10002681DFF82C0BC08AFA38FB2880F01F8152
:102A2000DFF81C0B008ADFF8181B098B884207D1DE
:102A3000DFF80C0B408ADFF8081B498B884204D072
:102A40000120DFF8FC1A487203E00020DFF8F01ADA
:102A50004872DFF8EC0A808ADFF8E41A898B884232
:102A600007D1DFF8DC0AC08ADFF8D41AC98B8842A4
:102A700004D00120DFF8C81A887203E00020DFF8D4
:102A8000C01A88720120DFF8B81A48720120DFF8F6
:102A9000B01A8872DFF8A80A407A012805D0DFF85A
:102AA000A00A807A012840F0AE80DFF8940A008BFB
:102AB000DFF88C1A098A884207D2DFF8840A408B33
:102AC000DFF87C1A498A88420FD3DFF8740A808BBA
:102AD000DFF86C1A898A884215D2DFF8640AC08B45
:102AE000DFF85C1AC98A88420DD2DFF8540A0078F0
:102AF000002803D0DFF8FC0902F03AF96420DFF87F
:102B0000401AC88137E0DFF8380A008ADFF8301A47
:102B1000098B884221D1DFF8280A408ADFF8201A81
:102B2000498B884219D1DFF8180A808ADFF8101A19
:102B3000898B884211D1DFF8080AC08ADFF8001AB1
:102B4000C98B884209D1DFF8F8090078002812D033
:102B5000DFF8E00902F00CF90DE0DFF8E409007895
:102B6000002803D0DFF8D00902F002F94FF4FA7020
:102B7000DFF8CC19C881DFF8C809008ADFF8C0196E
:102B80000883DFF8BC09408ADFF8B4194883DFF80E
:102B9000B009808ADFF8A8198883DFF8A409C08A01
:102BA000DFF89C19C883FFF77BFDDFF89409008AE2
:102BB00002F0F2F8DFF888190886DFF884198887B0
:102BC000DFF87C09408A02F00EF9DFF874194886B4
:102BD000DFF86C19C887DFF86809808A02F026F9E7
:102BE000DFF85C190887DFF85819A1F84400DFF80E
:102BF0005009C08A02F031F9DFF844194887DFF83C
:102C00004019A1F8460002F0E7F9DFF8340900782E
:102C1000002810D0DFF82809408F0090DFF8200945
:102C2000038FDFF81C09428EDFF81409018EDFF8EC
:102C30000C0902F09DF80120DFF80419487100200A
:102C4000DFF8FC1808710020DFF8F41888810120F3
:102C5000DFF8EC1808720020DFF8E418C87201BD34
:102C60005802002000000020AC6F00200802002065
:102C70001FB578E1DFF8C8080078002818D0DFF821
:102C8000C008B0F84E000190DFF8B408B0F84C006E
:102C90000090DFF8AC08B0F84A30DFF8A408B0F8CC
:102CA0004820DFF89C088189DFF8980802F060F876
:102CB0000020DFF88C1848710120DFF88418C871F3
:102CC0000020DFF87C18087143E1DFF87408007811
:102CD00000281CD0DFF86808B0F84E000290DFF83A
:102CE0006008B0F84C000190DFF85408B0F84A00D2
:102CF0000090DFF84C08B0F84830DFF844088289CB
:102D0000DFF83C08C17ADFF8400802F031F8DFF85C
:102D100030080079002800F09A80DFF82408408C01
:102D2000DFF81C18B1F8481088423ED2DFF81008CE
:102D3000B0F84800DFF80818098C884235D2DFF86F
:102D40000008C08CDFF8F817B1F84A1088422CD27E
:102D5000DFF8EC07B0F84A00DFF8E417898C884206
:102D600023D2DFF8DC07408DDFF8D417B1F84C1020
:102D700088421AD2DFF8C807B0F84C00DFF8C01755
:102D8000098D884211D2DFF8B807C08DDFF8B0177F
:102D9000B1F84E10884208D2DFF8A407B0F84E0010
:102DA000DFF89C17898D88421DD3DFF894070078DF
:102DB000002814D0DFF88807B0F84E000090DFF844
:102DC0008007B0F84C30DFF87807B0F84A20DFF819
:102DD0007007B0F84810DFF8740701F0C9FF002051
:102DE000DFF85C170871DFF85807B0F84800DFF823
:102DF0005017B1F84C10C83988420ADBDFF8400799
:102E0000B0F84A00DFF83817B1F84E10C8398842D8
:102E10001DDADFF82C070078002814D0DFF820072F
:102E2000B0F84E000090DFF81807B0F84C30DFF82B
:102E30001007B0F84A20DFF80807B0F84810DFF8AC
:102E4000100701F095FF0020DFF8F4160871DFF895
:102E5000F006407900287CD0DFF8E406C089DFF86E
:102E6000E01689898842FFF405AFDFF8D406B0F890
:102E70004800DFF8CC16498C88426AD3DFF8C006D8
:102E8000008CDFF8BC16B1F84810884261D3DFF837
:102E9000B006B0F84A00DFF8A816C98C884258D3AB
:102EA000DFF89C06808CDFF89816B1F84A1088424B
:102EB0004FD3DFF88C06B0F84C00DFF88416498D4C
:102EC000884246D3DFF87806008DDFF87416B1F833
:102ED0004C1088423DD3DFF86806B0F84E00DFF8AA
:102EE0006016C98D884234D3DFF85406808DDFF830
:102EF0005016B1F84E1088422BD3DFF84406007804
:102F0000002818D0DFF83806B0F84E000190DFF83E
:102F10003006B0F84C000090DFF82406B0F84A30D4
:102F2000DFF81C06B0F84820DFF814068189DFF8C6
:102F3000240601F01DFF0020DFF80416487101206F
:102F4000DFF8FC15C8710020DFF8F4150871FFF7F1
:102F500041FB03A8019008200090052300220021D6
:102F6000002002F0E5F8DFF8D805C07900283FF42A
:102F7000CEAEDFF8CC05C07A401CDFF8C415C872AD
:102F8000DFF8BC05C07A32283FDBDFF8B4050078F3
:102F9000002803D0DFF8C00501F0EAFEDFF8A00545
:102FA000007800281CD0DFF89805B0F84E00029099
:102FB000DFF88C05B0F84C000190DFF88405B0F81C
:102FC0004A000090DFF87805B0F84830DFF8700567
:102FD0008289DFF86C05C17ADFF8800501F0C8FE50
:102FE0000020DFF85C1588810020DFF85415087296
:102FF0003320DFF84C15C8720020DFF84415C87183
:103000000120DFF83C15087181E6DFF83405B0F8DF
:103010004800DFF82C15098A401A02F081F90B28C4
:1030200073DBDFF81C05B0F94800DFF81415B1F9BF
:103030001040041BDFF80805007800280CD0DFF8EA
:103040000005038ADFF8F804B0F84820210009B22F
:10305000DFF80C0501F08CFE200000B2012829DB0E
:10306000DFF8DC04808F1430B0F5805F05DB40F6BC
:10307000FF70DFF8CC14888712E0200000B21F2810
:1030800007DBDFF8BC04808F0A30DFF8B4148887D0
:1030900006E0DFF8AC04808F401DDFF8A4148887B9
:1030A000DFF89C04818F002002F083F901210020C9
:1030B00002F067F9200000B2002826D5DFF880046E
:1030C000808F142804DA0020DFF87414888712E057
:1030D00024B214F11E0F07DADFF86404808F0A3877
:1030E000DFF85C14888706E0DFF85404808F401F07
:1030F000DFF84C148887DFF84804818F002002F045
:1031000058F90121002002F03CF9DFF83404B0F84E
:103110004A00DFF82C14498A401A02F001F90B2802
:1031200074DBDFF81C04B0F94A00DFF81414B1F9BD
:103130001240041BDFF80804007800280CD0DFF8E8
:103140000004438ADFF8F803B0F84A20210009B2EE
:10315000DFF8100401F00CFE200000B2012829DB8A
:10316000DFF8DC03C08FC01CB0F5807F04DBFF20DC
:10317000DFF8CC13C88712E0200000B21F2807DB5D
:10318000DFF8BC03C08F801CDFF8B413C88706E0EB
:10319000DFF8AC03C08F401CDFF8A413C887DFF84A
:1031A000A003B0F84210C9B2DFF89403C08FC0B2D8
:1031B00002F029F9200000B2002827D5DFF88003AB
:1031C000C08F032804DA0020DFF87413C88712E0E8
:1031D00024B214F11E0F07DADFF86403C08F801EDB
:1031E000DFF85C13C88706E0DFF85403C08F401E89
:1031F000DFF84C13C887DFF84803B0F84210C9B2B3
:10320000DFF83C03C08FC0B202F0FDF8DFF83003F6
:103210004078002800F00581DFF82403B0F84C0066
:10322000DFF81C13898A401A02F07AF80B2871DB48
:10323000DFF80C03B0F94C00DFF80413B1F91440C7
:10324000041BDFF8FC02007800280AD0BC48838AFF
:10325000BB48B0F84C20210009B2DFF80C0301F0A4
:1032600087FD200000B2012829DBB548B0F84000F6
:103270001430B0F5805F05DB40F6FF70B049A1F86F
:10328000400012E0200000B21F2807DBAC48B0F875
:1032900040000A30AA49A1F8400006E0A848B0F86A
:1032A0004000401DA649A1F84000A548B0F84010D4
:1032B000002002F08CF80121102002F062F82000BA
:1032C00000B2002826D59E48B0F84000142804DA41
:1032D00000209B49A1F8400012E024B214F11E0F17
:1032E00007DA9748B0F840000A389549A1F840003D
:1032F00006E09348B0F84000401F9149A1F8400013
:103300008F48B0F84010002002F061F80121102031
:1033100002F037F88A48B0F84E008949C98A401A45
:1033200001F0FEFF0B286ADB8548B0F94E008449A6
:10333000B1F91640041B82480078002809D0804863
:10334000C38A7F48B0F84E20210009B2874801F0B7
:103350000FFD200000B2012827DB7948B0F84200B9
:10336000C01CB0F5807F04DBFF207549A1F8420046
:1033700012E0200000B21F2807DB7148B0F84200BD
:10338000801C6F49A1F8420006E06D48B0F8420089
:10339000401C6B49A1F842006948B0F84210C9B21C
:1033A0006748C08FC0B202F02EF8200000B200289B
:1033B00025D56348B0F84200032804DA00206049AC
:1033C000A1F8420012E024B214F11E0F07DA5C48A3
:1033D000B0F84200801E5A49A1F8420006E0584861
:1033E000B0F84200401E5649A1F842005448B0F8D7
:1033F0004210C9B25248C08FC0B202F004F850481F
:10340000007800280DD04E48B0F8420000904C489B
:10341000B0F840304A48C28F4948818F544801F083
:10342000A7FC03A80190082000905023002200214F
:10343000002001F07DFE4248B0F848004049498C28
:103440008842FFF442AC3E48008C3D49B1F8481038
:103450008842FFF43AAC3A48B0F84A003849C98C7F
:103460008842FFF432AC3648808C3549B1F84A10B6
:103470008842FFF42AAC3248B0F84C003049498DFC
:103480008842FFF422AC2E48008D2D49B1F84C1033
:103490008842FFF41AAC2A48B0F84E002849C98D7A
:1034A0008842FFF412AC2648808D2549B1F84E10B1
:1034B0008842FFF40AACFFF78DF821480078002815
:1034C0003FF425AC1E48B0F84E0002901C48B0F8FE
:1034D0004C0001901A48B0F84A0000901848B0F823
:1034E0004830174882891648C17A224801F040FCCA
:1034F0000DE40000F4EF020880B58AB009A8089036
:1035000003200790002006900020059000200490E2
:103510004FF48060039066200290174801901420B9
:1035200000900023154A1649164802F00BF80BB01C
:1035300000BD000044EF020800F0020848ED020858
:103540000000002004EA020878E9020878EA02088C
:10355000BCED0208C8E9020894EE020890E70208F0
:1035600038E8020888E80208D8E8020828E90208D2
:103570008CE60208E4E7020898020020712C020899
:1035800054EF0208FC62002000220368514A1340F5
:103590000A681343CA6813434A6913438A69134389
:1035A000CA6913430A6A13434A6A13438A6A134374
:1035B0004A6B13438A6B134303604369DB08DB00E8
:1035C000CA6A13430A6B134343610A6942604A683B
:1035D00082608968C1607047C9B2002904D001685F
:1035E00051F00101016003E00168490849000160F0
:1035F000704789B241607047406880B27047344A72
:10360000904201D2344A00E0344A880003D534485D
:103610000140D16002E032480140916070470B06E2
:103620000CD51300DBB2002B04D0436953F08003A8
:10363000436103E0436933F08003436180290ED086
:10364000D2B2002A05D0026811F01E0111430160B8
:1036500005E0026811F01E0132EA010101607047C5
:103660000022002200221A4A904201D21A4B00E0A6
:103670001A4B1C4A114206D00A00D20A12F01E024E
:103680000068024002E0426912F08002880001D521
:103690005B6800E01B68124803400B4203D0002A1D
:1036A00001D0012000E00020C0B27047084A9042DB
:1036B00001D2094A00E0094A880003D508480140C0
:1036C000D16002E0064801409160704700000000B0
:1036D000106402403F801CF0006002400064024021
:1036E0007D0F7D0F3C0F3C0F0021DFF8A0211170F2
:1036F0000021DFF898211170C0B2012802D00428FF
:1037000005D009E00120DFF88411087004E00520ED
:10371000DFF878110870FFE77047002100210021D1
:10372000022100210221DFF85C11096811F00C016F
:10373000002904D0042906D0082908D033E0DFF896
:103740005011016032E0DFF84C1101602EE0DFF82B
:1037500038110968C1F38051DFF82C21126812F08A
:103760003F0200290AD0DFF82C11B1FBF2F2DFF89A
:1037700018110968C1F388114A4309E0DFF81011F4
:10378000B1FBF2F2DFF800110968C1F388114A4376
:10379000DFF8F4100968C1F30141491C4900B2FB8C
:1037A000F1F1016002E0DFF8E8100160DFF8D41009
:1037B000096811F0F0010909DFF8DC20515C0268AA
:1037C000CA404260DFF8BC10096811F4E051890A70
:1037D000DFF8C420515C4268CA408260DFF8A41060
:1037E000096811F46041490BDFF8AC20515C426874
:1037F000CA40C2607047C9B2002907D0DFF89C10E8
:1038000009680843DFF89410086007E0DFF88C10BF
:10381000096831EA0000DFF8841008607047C9B217
:10382000002907D0DFF8781009680843DFF8701026
:10383000086005E01A49096831EA00001849086083
:103840007047C9B2002905D01649096808431549CF
:10385000086005E01349096831EA00001149086071
:103860007047C9B2002905D00F49096808430E49BD
:10387000086005E00C49096831EA00000A4908605F
:103880007047000008380240043802407038024097
:103890000024F40000127A00300200203038024088
:1038A0003438024040380240443802402549084339
:1038B000254908607047002100210F23C1780029A5
:1038C0001FD02149096811F4E061D1F5E061090ACE
:1038D000D1F10402DBB20B41417811FA02F2817896
:1038E0000B401A43120119490378CA540121027886
:1038F00012F01F029140164A0078401142F8201041
:1039000009E00121027812F01F029140114A00786B
:10391000401142F8201070470F4A114008430F49E8
:1039200008607047042806D10D48006850F0040074
:103930000B49086005E00A48006830F004000849B7
:10394000086070470000FA050CED00E000E400E0BC
:1039500000E100E080E100E080FFFF1F08ED00E0F3
:1039600010E000E010B5040002F0C9FC0020DFF810
:10397000481808700020DFF8441808700020DFF8AD
:10398000681808700020DFF8641808600020DFF86D
:10399000601808600020DFF85C1808700020DFF86D
:1039A000581808700020DFF8901808700020DFF821
:1039B0008C1808600020DFF8881808600020DFF805
:1039C000841808600020DFF880180870DFF87C0891
:1039D00000680A21B0FBF1F0DFF8AC180860DFF8EE
:1039E000AC08006800280ED0DFF8A40801680029A0
:1039F00009D0DFF89808006803E0401E00220A6042
:103A0000091D0028F9D10020DFF88818086000207F
:103A1000DFF8841808600020DFF8801808600020B4
:103A2000DFF87C1808600020DFF8781808600020B4
:103A3000DFF8741808600020DFF8701808600020B4
:103A4000DFF88819087002F02FFD00F0A0FB2000BD
:103A500002F074FD2088002845D1200002F062FEAB
:103A6000208800283FD1200002F06AFE208800282C
:103A700039D1200003F088F92088002833D12000B4
:103A800003F09EF9208800282DD1200003F01AFAB7
:103A90002088002827D1200002F0EEF82088002896
:103AA00021D1200003F0DCFB208800281BD120005E
:103AB00000F0ADF92088002815D1200003F0CEFCDD
:103AC000208800280FD1200004F0F6F82088002874
:103AD00009D1200004F062FA2088002803D104F004
:103AE0006DFB04F03FFC10BDDFF8D0060078012824
:103AF0000BD1DFF8C4060078FA2806DADFF8B8063A
:103B00000078401CDFF8B0160870704710B5002030
:103B1000DFF8A8060078012857D104F097FC0400CC
:103B2000DFF894060078002803D1200004F092FC0E
:103B30004BE0DFF884060078401EDFF87C16087042
:103B4000DFF874060078002803D0200004F082FC1F
:103B50003BE0DFF894060078002803D0200004F052
:103B600079FC32E002F0AAFCDFF88C160870DFF86E
:103B70006018DFF8840602780C2042438858DFF88A
:103B800070160860DFF868060068DFF860160968DC
:103B9000884203D1200004F05DFC16E0DFF85006F7
:103BA0000068D0F88C00401CDFF844160968C1F8A2
:103BB0008C00DFF8D4080068401CDFF8CC180860DF
:103BC00004F06DFC200004F045FC10BD10B5002091
:103BD000DFF8E405007800283AD1DFF80C06007819
:103BE000002835D104F032FC040002F067FCDFF855
:103BF00008160870DFF8D817DFF8FC0502780C20EB
:103C000042438858DFF8E8150860DFF8E4050068EB
:103C1000DFF8D8150968884203D1200004F01AFCA7
:103C200016E0DFF8CC050068D0F88C00401CDFF807
:103C3000C0150968C1F88C00DFF84C080068401C0A
:103C4000DFF84418086004F026FC200004F002FCB1
:103C500010BD38B504000020DFF85C0500780028AE
:103C600003D046F66250208022E0DFF8500500784D
:103C7000012803D045F68960208019E0DFF80C08A0
:103C80000078FA2803DB45F20920208010E004F0D8
:103C9000DDFB0500DFF8F4070078401CDFF8EC17C7
:103CA000087000F072FB280004F0D4FB0020208094
:103CB00031BD38B504000020DFF8FC04007800288E
:103CC00003D046F66550208030E0DFF8F00400783D
:103CD000012803D045F68960208027E0DFF8AC0793
:103CE0000078002803D146F6645020801EE004F0DE
:103CF000ADFB0500DFF894070078401EDFF88C1755
:103D00000870DFF888070078002806D0280004F043
:103D1000A1FB46F66350208008E000F040FB28003D
:103D200004F098FBFFF752FF0020208031BD70B5F2
:103D300006000C001500002004F088FBF6B2012EEE
:103D400004D00021DFF80025117003E00121DFF825
:103D5000F8241170002C03D0DFF82C150C6008E05B
:103D6000DFF8E81409680A22B1FBF2F1DFF8182540
:103D7000116004F06FFB0020288070BD10B50400B6
:103D8000DFF838040078002825D102F097FBDFF82F
:103D900068140870DFF860040078DFF858140870C1
:103DA000DFF82C16DFF8500402780C2042438858C4
:103DB000DFF83C140860DFF838040068DFF82C14E2
:103DC00008600120DFF8F413087004F055FB43F697
:103DD0009920208002E045F68A60208010BD80B5E1
:103DE0000020684604F032FBDFF8A4160968491C7D
:103DF000DFF89C261160DFF89C160968491CDFF883
:103E00009426116004F026FB02F070FAEAE700B590
:103E100089B00021DFF87826116008900B20079008
:103E2000002006900020059000200490DFF868062E
:103E300000680390DFF8640600680290DFF860060F
:103E4000006801903F2000900023DFF85826DFF83B
:103E50005816DFF8580601F075FB09B000BD70B5C3
:103E600005000C00DFF88403006880F8342000208F
:103E7000DFF87813096881F835001900DFF86C0362
:103E8000006800F0ECFA002C0ED014F10806EC608B
:103E900001222900DFF85403006800F016F8290019
:103EA000300000F083F809E00020DFF840130968D3
:103EB000C8870020DFF8341309680863DFF82C0393
:103EC0000168200000F01DF870BD30B4C2870163A6
:103ED00000230EE000244C6000240C6000240C61E0
:103EE00000244C6100240C830024CC6188602031C4
:103EF0005B1C1C001500A4B2ADB2AC42EAD330BCCE
:103F00007047002809D04268C1F8BC2010F10801B0
:103F100009688968096AC16113E091F834000228D0
:103F200002D0072805D009E0DFF88405C1F8BC00FD
:103F300007E0DFF88005C1F8BC0002E009A0C1F885
:103F4000BC00704707A2C1F8BC2010F10801096845
:103F5000002903D08968096AC16101E001A1C1613A
:103F6000704700002000000070B580F83710056B26
:103F7000C48F0FE0E86810F108063089022807D3E3
:103F80002900300000F060F82900300000F00EF841
:103F90002035641E200080B20028EBD170BD0021C6
:103FA00001600021416000210181704730B40200AE
:103FB000886890F837301089002808D101201081D6
:103FC00000204860002008601160516025E01089E1
:103FD000401C1081106800E04068002806D084680A
:103FE0001D0094F83740EDB2A542F5D2002806D165
:103FF0000020486050680860416051600DE003682F
:10400000002B05D1016000230B604860116004E0C3
:1040100002680A6048605160016030BC704770B54A
:104020000400266BE58F06E0F0680830310000F0F0
:104030000BF820366D1E280080B20028F4D1002035
:10404000E0870020206370BD0289012A04D100228C
:1040500002600022426013E00A68002A04D14A6824
:104060000023136002600BE04A68002A04D10A684A
:1040700000235360426003E00A684B6853601A6093
:104080000289521E028100204860002008607047AB
:1040900038B504000D00049895F8361000290BD0AF
:1040A00002290AD008D3042906D006D3062930D025
:1040B00002D307292DD055E054E095F83410032998
:1040C00006D100909BB22900200000F04CF803E0DC
:1040D000AA65A5F85C302864002C06D02800FFF7FC
:1040E0009EFF29002000FFF72DFF95F836000328DA
:1040F00002D1280003F0AEFA280000F061F8002099
:1041000085F83600002085F83500002085F8340059
:1041100028E095F83410032906D100909BB22900BD
:10412000200000F020F803E0AA65A5F85C302864C0
:10413000002C06D02800FFF772FF29002000FFF7AF
:1041400001FF95F83600072802D1280003F082FA13
:10415000042085F83600002085F83500002085F819
:104160003400FFE731BD30B40D6BCC8F01E020355A
:10417000641E210089B2002907D0E9688842F6D17F
:10418000029928616A612B83E96130BC7047002184
:104190000DE08F4A0B00DBB20C20434302EB03001F
:1041A000002202810022026000224260491C0800B5
:1041B000C0B24028EDD37047C1710020C271002009
:1041C00010B5040094F8370002F088F994F837002D
:1041D00008490978884203D1200000F039F802E04C
:1041E000200000F00BF810BDC671002064710020A3
:1041F00068710020C3710020C4710020744A90F8D7
:1042000037300C214B431A441189002908D1012170
:1042100011810021C160002101611060506009E03E
:104220001189491C11811168C16000210161116867
:104230000861106070470000C571002018710020EF
:104240001C71002020710020C771002088F0020836
:104250005F4A90F837300C214B431A4411890029EA
:1042600008D1012111810021C1600021016110608C
:10427000506008E01189491C11810021C16051681A
:104280000161C860506070472471002060F002082E
:104290005CF00208DC700020E0700020E470002078
:1042A000E8700020EC700020F0700020F470002016
:1042B00010B40189002902D0022901D00BD215E0E7
:1042C000016842680A610023CB6000231361D1605A
:1042D000026041600AE001684268CB6800241C610A
:1042E0000024CC600A61D1600360416010BC70475B
:1042F00010B50400364994F837200C2042430A4494
:104300002169E068002913D100280AD1002010811A
:10431000002010600020506094F8370002F0F4F89C
:104320000FE01189491E118100210161106008E030
:1043300013895B1E1381C860002801D1516000E021
:104340000161002020610020E06010BD10B5002058
:1043500004F07CF804000020574908705748584979
:10436000086057480068D0F88C00401C5449096820
:10437000C1F88C0044480068401C4349086004F0C0
:104380008AF8200004F066F810BD80B53F48007838
:10439000012803D104F0D6F84A49086001BD80B570
:1043A0003A480078002810D104F0CCF84549096853
:1043B000411A45480068884201D243480160434899
:1043C0000068884201D24148016001BDCA710020E5
:1043D000CC4E002038B5040000203D48007801286C
:1043E0003CD104F033F805002168002903D12800EE
:1043F00004F030F832E02D48814203D1280004F067
:1044000029F82BE0486D002802D0486D401E486511
:10441000486D002803D0280004F01CF81EE0208915
:10442000022803DA280004F015F817E0174800788E
:10443000002803D0280004F00DF80FE02000FFF75B
:1044400037FF2168086D002803D1224800684865BD
:1044500001E0086D4865280003F0FCFF31BD10B590
:1044600004000A00002A07D021001B4803F056F878
:10447000032084F8360002E0022084F83600200091
:10448000FFF736FF10BD00003C710020C671002010
:10449000F87000202C7100203CF0020838F002086F
:1044A00034F00208DF3D0208D0EE0208BC690020AB
:1044B00024F002080CF00208C47100207C6A00207D
:1044C00068710020187100201C71002020710020EC
:1044D000C771002024710020C470002010B4002295
:1044E000002344686B4A14400A7954EA02240A689B
:1044F000144344608468684A14400A691443CA68D3
:1045000014438A6814434A7954EA42048460C26AB4
:1045100032F47002097D491E0B43DBB252EA0352AA
:10452000C26210BC704700215C490A685C490A40BD
:1045300001680A4341680A4381680A43C06802432C
:10454000564802607047C9B2002904D0816851F012
:104550000101816003E0816849084900816070477A
:10456000C0B2002806D04D48006850F400004B4906
:10457000086005E04948006830F4000047490860D9
:104580007047F0B4002400240C00E4B20A2C13DBC2
:10459000C5680726B1F10A04032714FB07F416FACD
:1045A00004F4A543DBB2B1F10A04032614FB06F4BC
:1045B000A3402B43C3600EE005690726032411FBCB
:1045C00004F416FA04F4A543DBB2032411FB04F44B
:1045D000A3402B4303611300DBB2072B11DA436BBB
:1045E0001F25541E052614FB06F415FA04F4A343F4
:1045F000C9B2521E052412FB04F2914019434163D3
:1046000027E01300DBB20D2B11DA036B1F25D41F3B
:10461000052614FB06F415FA04F4A343C9B2D21F0D
:10462000052412FB04F291401943016311E0C36AAF
:104630001F25B2F10D04052614FB06F415FA04F447
:10464000A343C9B20D3A052412FB04F29140194369
:10465000C162F0BC7047816851F080418160704751
:10466000C9B2002904D0816851F48071816003E0EF
:10467000816831F4807181607047C9B2002904D02B
:10468000816851F40071816003E0816831F4007148
:1046900081607047FFFEFFFCFDF7FFC0042301406F
:1046A000E030FCFF50B1B0FA80F18840C91CC1F580
:1046B0008461090501EBD021400570470146704730
:1046C00030B540F2FF7C1CEA11541DBF1CEA1355A3
:1046D000644565453FE0641981EA030C6FF35F535D
:1046E0000CF0004C43F48013C90241F0004141EA50
:1046F000505EC5021100A5FB020200284FF0000029
:10470000EEFB01204FF00001E3FB052118BF42F052
:104710000102401800214941E3FB0E01A4F5806429
:104720000D0302D292184041494154F1010470DD59
:10473000450872F1004250F1000051EB0451A1F51F
:10474000801102D441EA0C0130BD40F2FF7E4CEAF8
:104750000E51002030BD0CEA1355644518BF654565
:1047600081EA030C0CF0004C41D050EA410E1CBF12
:1047700052EA430E02E06146002030BD24422C4440
:104780001BD15FEA050EF6D0090302BF01460020E7
:10479000AEF1140EB1FA81F5AEEB050401FA05FE97
:1047A0000C35C5F1200100FA05F5C8404EEA000EAF
:1047B0006FF35F5343F480139CE733F00043B3FA85
:1047C00083F504BFB2FA82FE75440B3D641BB5F15C
:1047D000200E2FBF02FA0EF3AB40C5F1200E22FAD5
:1047E0000EFE38BF43EA0E03AA40641C7CE750EA81
:1047F000410E14BF52EA430E6FF000014FF4001552
:1048000015EB430F8EBF194615EB410F9DE7B4D84A
:1048100030BDD4F10104B4F120050FDAC4F1200554
:10482000520828BF42F0010210FA05FE01FA05F510
:104830007244E2BFE0402843E1400FE0352C9ADCAF
:10484000C5F1200452EA400220FA05F218BF42F0F6
:10485000010231FA05F0A1400A43002172F1004241
:1048600050F1000051EB0C0130BD6400F0B540F296
:10487000FF7581EA030C0CF0004C15EA11541DBFC2
:1048800015EA1357AC42AF42E5E0BC41C1F3130156
:10489000C3F31303801A994143F4801304D2641EB6
:1048A0000018494180185941C90241EA5051B1FBF1
:1048B000F3F603FB1611A2FB0675D7EBC020A94146
:1048C00002D2761E80185941C90241EA5051B1FB0B
:1048D000F3FE03FB1E11A2FB0E75D7EBC020A9410E
:1048E00003D2AEF1010E80185941890241EA90517C
:1048F000760546EA8E2EB1FBF3F603FB1611A2FBFA
:104900000675D7EB8020A94102D2761E8018594146
:10491000C90241EA50514EEA060EB1FBF3F603FB21
:104920001611A2FB0675D7EBC020A94102D2761E54
:1049300080185941C90241EA5051B1FBF3F703FB1A
:104940001711A2FB0735D3EBC020A94167F100077F
:104950000CBF004247F0010766F3D5274FEA1E312E
:10496000B80814F5806412DDBD0775F1004250EB04
:104970000E5051EB045111F5801F5CBF41EA0C0150
:10498000F0BD4CF07F6141F0E0410020F0BDBD077B
:104990006D0840EA0E5041F48011D4F10104B4F1E5
:1049A00020060ADAC4F120060200E04001FA06F30C
:1049B000E1401843B24015430EE0342C13DCC6F13D
:1049C000200445EA40056D0820FA06F2154321FA55
:1049D00006F0A1400D43002175F1004250F10000A6
:1049E00051EB0C01F0BD00205FEA0C01F0BDCFB926
:1049F00092185B41B3FA83F704BFB2FA82F6BF198B
:104A00000B3FB7F120062FBF02FA06F3BB40C7F1F8
:104A1000200622FA06F638BF3343BA401CB1E41927
:104A2000641E33E77F4231F00041B1FA81F404BFE4
:104A3000B0FA80F6A4190B3CB4F120062FBF00FA9F
:104A400006F1A140C4F1200620FA06F638BF314332
:104A5000A0403C1B1AE7AC421ABF05EA1357AF420D
:104A600012E050EA41061CBF52EA4306BFE750EA93
:104A70004107304661461CBF41EA0551F0BD52EA8C
:104A8000430C08BFC143F0BD00204FF4001616EBE5
:104A9000410F98BF16EB430F08BF16EB410F24BF21
:104AA000C14305E016EB430F0CBF61464CEA0551CC
:104AB000F0BD2800400D40F21E4C40EAC120BCEB86
:104AC000115C40F0004003D48CF30701C8407047EC
:104AD0006FEAE1707047040070B491EA030F4FF081
:104AE000004540F1BF806B40841A71EB030604D28D
:104AF0006E40001BB141121973414FF4001C1CEBB6
:104B0000410F34BF7CEB430683E00C0DA4EB13563E
:104B1000362E00F37C80012E45EAC32341DC43EAB4
:104B2000525312BFD20292025B08240545EAC1210A
:104B300041EA5051D2EBC020994125D407D1B0FAB7
:104B400080F610FA06F162D00020203608E0B1FAB3
:104B500081F6B140C6F1200220FA02F21143B040C2
:104B60004FEAF474B4EB465434F001064FEA74048F
:104B70000AD8D6F50016760D04F00044F04061FA2C
:104B800006F25040F1404840C00A40EA415021F04E
:104B9000004128BF5FEA500550F1000044EBD121ED
:104BA00035E0DB0A45EAC121C90AB6F120050EDD70
:104BB00042EA0242120CC5F1200603FA06F6EB4067
:104BC00042EA06056D42984161F100010DE062FA8A
:104BD00006F5F240554063FA06FC82EA0C02F34007
:104BE0005A406D42904161EB030111F4801F05D1E1
:104BF000641E620502D06D004041494121F48011DC
:104C0000430875F1004350F1000041EB045170BCC2
:104C100070471CEB410F15D223F0004352EA4306C4
:104C20000BD04FEA4C0CBCEB410F04D80C0D661EA8
:104C3000342EB7DDEBE7801A994150EA410608BFF0
:104C40000021E4E708BF1CEB430F28BF6FF0000111
:104C5000DDE7000070B491EA030F4FF000457FF5E7
:104C600043AF6B40841A71EB030603D2001BB141C2
:104C7000121973414FF4001C1CEB410F34BF7CEB45
:104C8000430442E00C0DA4EB1356352E4FDC45EAED
:104C9000C323DB0A45EAC121C912B6F120050DDDA7
:104CA00063FA05F6EB4086EA0305124218BF45F0A9
:104CB0000105C01851F100010CD213E062FA06F5AB
:104CC000F2405540F3415A40B340F3405A408018F7
:104CD000594107D349085FEA30005FEA350528BF2C
:104CE00045F0010501F58011420875F1004250F1CF
:104CF000000041EB04514E0016F5001F70BC38BF98
:104D000070470020090D090570471CEB410F10D2B8
:104D100052EA43060BD0BCEB410F05D80C0DAB4358
:104D2000661E342EB6DD02E0AB438018594170BCDC
:104D3000704770BC70472000C1F30A5340F21E4216
:104D4000D31A0CDDCA0283F3070342EA505242F041
:104D50000042DA4002EBE17282EAE17070476FEAEA
:104D6000E17203F2E13008B182F0004070472000A8
:104D70000EB4C0B5024603A800210190009101AB1A
:104D80000121044878440C3003F0F2FB06BC5DF8C6
:104D900010FB00BFC9A0000080B580B2FFF782FC05
:104DA00000229D4BFFF762FD9C4A9D4BFFF75EFD85
:104DB00002000B009B489C49FFF74CFF03F068FC86
:104DC00003F09AFC5FF06632984BFFF74FFD00222C
:104DD000974BFFF775FC0022964BFFF77DFEFFF720
:104DE000ABFF80B202BD80B580B2FFF75BFC924A98
:104DF000924BFFF765FC0022874BFFF737FD02005F
:104E00000B008F488F49FFF725FF03F041FC5FF04F
:104E10008B4103F095FC03F06FFC8B4A8B4BFFF743
:104E200025FDFFF789FF001180B202BD80B580B279
:104E3000FFF738FC5FF06632854BFFF741FC00223C
:104E4000754BFFF713FD02000B0000208149FFF7AF
:104E500001FFFFF771FF80B202BD80B580B2FFF79E
:104E600021FC5FF033327C4BFFF72AFC00226A4BB7
:104E7000FFF7FCFC02000B0000207849FFF7EAFE78
:104E8000FFF75AFF80B202BD80B580B2FFF784FF02
:104E900073490886724988877148018E002000F0A6
:104EA00088FA0121002000F06CFA01BD80B580B2C3
:104EB000FFF772FF6A4988866949A1F8400068488F
:104EC000818E002000F083FA0121102000F059FAB1
:104ED00001BD10B50C0080B2FFF785FF6049488620
:104EE0005F49C887200080B2FFF77DFF5C49C88614
:104EF0005B49A1F842005A48C18EC9B25848408E59
:104F0000C0B200F080FA10BD10B50C0080B2FFF7FF
:104F10008DFF534908875249A1F84400200080B210
:104F2000FFF79BFF4E4948874D49A1F846004C4882
:104F3000418FC9B24A48008FC0B200F0B1FA10BD2B
:104F400080B540F68C21002000F033FA01210020CA
:104F500000F017FA40F68C21002000F038FA012109
:104F6000102000F00EFAFF21FF2000F04CFA01BDE6
:104F700080B5FF21FF2000F093FA01BD80B5FFF757
:104F8000DFFFFA21FA20FFF7BFFF4FF40041354859
:104F9000FDF7ECFA4FF480413248FDF7E7FA01BD26
:104FA00080B5FFF7E5FF4FF400412E48FDF7E0FA2A
:104FB0004FF480412B48FDF7DBFA2948008AFFF7C0
:104FC00063FF2748808AFFF771FF2548C18A24487C
:104FD000408AFFF77EFF01BD80B54FF400412148B4
:104FE000FDF7C6FA4FF480411E48FDF7BFFA1C4892
:104FF000008AFFF749FF40F68C20FFF757FFFF219B
:105000001748408AFFF765FF1548C18A1448808A0F
:10501000FFF77AFF01BD0000000059409A99999965
:1050200099994540F853E3A59BC4004066660A4041
:1050300000FEAF400000E03F5A643BDF4F8D973FDA
:1050400062105839B4C80040FCA9F1D24D6200404A
:1050500066663C400070714033333D4000E0734071
:10506000000000200018024070B504000E0015007A
:105070000020DFF890020078002803D047F2752066
:10508000288054E0DFF880020078002803D046F63C
:10509000635028804BE0300080B2002805D0022801
:1050A00003D004282AD0082829D1002C03D147F2A4
:1050B0007E2028803BE003F0C9F9DFF84C12097824
:1050C000491CDFF84422117003F0C4F92B003200B0
:1050D00092B22100DFF83402006802F065FA2888F5
:1050E000002810D003F0B2F9DFF81C120978491E2D
:1050F000DFF81422117003F0ADF918E0DBE745F694
:105100002560288013E0DFF804020068FFF7F0F85C
:1051100003F09CF9DFF8F0110978491EDFF8E82167
:10512000117003F097F9FEF751FD0020288070BD43
:10513000F8B50E00079C0021DFF8C8110978002996
:1051400003D047F275202080C1E0DFF8BC11097858
:10515000002903D046F663502080B8E0069911F08C
:105160000E073D00ADB2002D05D0022D03D0042D59
:1051700019D0082D18D1002B0FD11500ADB2002D7C
:105180000BD13500ADB2002D07D10500ADB2002D19
:1051900003D147F27E20208099E04FF6E175294245
:1051A00006D1002505E0F8E745F6256020808EE071
:1051B0000125EDB2012D03D145F62560208086E062
:1051C000C9B2090911F00101C9B201291ED0B3F514
:1051D0007A7F03D347F27B20208078E0110089B2E8
:1051E0003C2903DB47F27A20208070E0310089B24D
:1051F0003C2903DB47F27920208068E0010089B276
:10520000642916DB47F27820208060E0310089B203
:1052100042F21075A94203DB47F27920208056E064
:10522000010089B2B1F57A7F03DB47F27820208054
:105230004DE037490D6880B24FF4616CB6B23C2145
:105240004E430CFB006010FA82F14FF4FA70B0FB91
:10525000F5F0C31803FB05F34FF47A70B3FBF0F0DD
:1052600005FB0105002D2FD003F0F0F82649097841
:10527000491C254A117003F0EDF823003A0092B260
:1052800029002248006802F08FF92088002809D000
:1052900003F0DCF81C490978491E1B4A117003F021
:1052A000D9F814E019480068FFF722F803F0CEF8A7
:1052B00015490978491E144A117003F0CBF8FEF71E
:1052C00085FC0020208002E047F27E202080F1BD96
:1052D00018B585B001F0C3F803F034F904A90391BF
:1052E0000290002001900020009000230022094934
:1052F000094804780C2044432144084801F04AFE40
:1053000006B010BDC1710020C6710020647100207C
:1053100088F00208CC4E0020C37100205449434B52
:10532000002848BF4042704710B4002200222F4A94
:10533000136840F6FE72824093430C684A68144337
:105340008A681443C9680C4314FA00F018432749CB
:10535000086010BC7047C9B2002908D02349096809
:10536000012212FA00F008432049086008E01F49B2
:105370000968012212FA00F031EA00001B490860B6
:105380007047C9B2002909D01949096801220009EA
:1053900012FA00F008431649086009E01449096848
:1053A0000122000912FA00F031EA000010490860F9
:1053B000704781B0002200920C4A0092009A801837
:1053C0000830009089B20098016001B0704781B048
:1053D00000220092054A0092009A80181430009032
:1053E00089B20098016001B070470000007400406D
:1053F0000474004080B5002302224FF400614F483E
:1054000003F00AFA01BD38B504000D004FF4005155
:105410004B48FDF7ADF849F20101484803F068FA3E
:105420004FF47A6003F017FC4FF400514448FDF745
:105430009DF84FF4FA6003F00EFC4FF40051404821
:10544000FDF796F8EDB22D0155F48055290089B28B
:105450003A4803F04DFA4FF47A6003F0FCFB4FF446
:1054600000513748FDF782F84FF4FA6003F0F3FB80
:105470004FF400513248FDF77BF8E4B2240154F4B4
:105480000044210089B22D4803F032FA4FF47A60CB
:1054900003F0E1FB4FF400512948FDF767F831BDF7
:1054A00038B504000D004FF480412548FDF760F841
:1054B00049F20101214803F01BFA4FF47A6003F02E
:1054C000CAFB4FF480411E48FDF750F84FF4FA60D4
:1054D00003F0C1FB4FF480411948FDF749F8EDB2E4
:1054E0002D0155F48055290089B2144803F000FAC3
:1054F0004FF47A6003F0AFFB4FF480411048FDF7A2
:1055000035F84FF4FA6003F0A6FB4FF480410C48E5
:10551000FDF72EF8E4B2240154F40044210089B2CE
:10552000064803F0E5F94FF47A6003F094FB4FF47A
:1055300080410348FDF71AF831BD0000003C0040EF
:10554000000402402DE9F34F83B09846DDF85890EF
:105550000021DFF890150978002904D047F24A109D
:10556000A9F80000F3E00400002C04D147F2AD10CC
:10557000A9F80000EBE002920298002804D147F25B
:105580004F10A9F80000E2E00F9D002D04D146F66F
:105590002F60A9F80000DAE0DDF844B0DFF8F40588
:1055A0000068834504D246F63060A9F80000CEE0DA
:1055B000DDF840A0DA4504D346F63160A9F80000D2
:1055C000C5E00E9E3000C0B2402804D346F27320DE
:1055D000A9F80000BBE03000C0B2002808D1DFF815
:1055E0000806844204D046F27320A9F80000AEE019
:1055F0003000C0B23F2808D1DFF8F005844204D063
:1056000046F27320A9F80000A1E0159F200000F0E9
:1056100047FB0020A9F80000F8070AD5B80708D50D
:105620002900002003E000220A60091D401C5845A3
:10563000F9D3DDF84C9005EB8A0A380080B201906E
:10564000CDF800B053462A004146029800F08AFE89
:105650000299A162C4F82C800499216284F8376011
:105660002060C4F808A0C4F85090B9F1000F04D12C
:10567000DFF8B4050068606501E0C4F85490149840
:1056800060606562C4F838B0A787002006E000219A
:105690000200D2B204EB82029167401C0100C9B241
:1056A0000029F4D0129989B214F1600001F0AFF82A
:1056B000200000F03CFE02F0C9FEDFF8301409784B
:1056C000491CDFF82824117002F0C4FE94F837005A
:1056D00000F004FF2000FEF7BBFD200000F088FA78
:1056E000DFF8B0050088401CDFF8A8150880DFF857
:1056F000A805007801281DD002F0A8FEDFF8EC1301
:105700000978491EDFF8E4231170DFF8E013097807
:1057100000290CD1DFF878140988002904D002F0A0
:1057200099FEFEF713FE04E002F094FE01E002F0A1
:1057300091FE0CE002F08AFEDFF8B0130978491EF2
:10574000DFF8A823117002F085FEFEF73FFA05B0DE
:10575000BDE8F08F38B504000D000020DFF88403A9
:105760000078002803D047F24E1028805CE0DFF874
:105770007C04844203D147F24C10288054E0DFF8C7
:105780006804844203D147F24D1028804CE0002C7D
:1057900006D102F05BFEDFF850130C6802F05AFEEF
:1057A00002F054FEDFF844130978491CDFF83C236B
:1057B000117002F04FFE94F8360000280BD002283A
:1057C00038D033D3042830D034D3062832D02DD368
:1057D00007282FD044E02000FEF78AFD14F1600076
:1057E00000F0F3FF200000F0ABFD200000F01EFAF7
:1057F000DFF8A0040088401EDFF89814088020001D
:1058000000F04EFAFF2084F8360002F01FFEDFF8A9
:10581000DC120978491EDFF8D422117002F01AFE5A
:1058200000202880FEF7D2F931BDD7E7200001F033
:1058300011FFD3E794F83400002808D0401E07D0A9
:10584000401E04D0401E032802D9001F04D103E0EB
:105850002000FEF7E4FBFFE7200001F0FBFEBDE7C0
:1058600002F0F4FDDFF884120978491EDFF87C228B
:105870001170DFF87812097800290CD1DFF81C14B8
:105880000988002904D002F0E5FDFEF75FFD04E081
:1058900002F0E0FD01E002F0DDFD46F62D6028801B
:1058A000C2E738B584B004000D00002002F0CEFD40
:1058B000002C03D08C4909688C4205D102F0CAFD46
:1058C00047F25710288018E002F0C4FD85480078A0
:1058D00000280ED0039500200290002001900020A7
:1058E0000090002300222100DFF8E00901F052FBC4
:1058F00003E02900200000F017FB05B030BD2DE9C2
:10590000F0410700884614001D000020754800780B
:10591000002804D046F2AE1028800020DEE0404689
:1059200080B2002802D0B0F5004F49D1002C01D040
:105930000020206002F08AFD0600DFF88C09006874
:10594000406C002841D0DFF880090068406C401EA0
:10595000DFF8741909684864DFF86C090068476C5F
:10596000002C04D0DFF860090068006C206002F0B1
:10597000E9FDDFF854190968096C401ADFF8481985
:105980000968C1F8A000DFF840090068D0F8A40059
:10599000DFF834190968D1F8A010884209D2DFF87D
:1059A00028090068D0F8A000DFF81C190968C1F8C0
:1059B000A400300002F04EFD0020288038008DE069
:1059C00045F625602880002088E05FEA084007D57A
:1059D000300002F03FFD46F2B010288000207DE04C
:1059E00042480078002807D0300002F033FD46F628
:1059F00063502880002071E03C480078401C3B49FF
:105A00000870300002F026FD3B0007220021002034
:105A1000FEF725FA02F01AFD34490978491E334A87
:105A2000117002F017FDFEF7D1F802F00FFD06002D
:105A3000DFF89408006890F83500002804D00128A9
:105A40002ED0032837D03EE0002C26D0DFF878088F
:105A50000068006C206002F075FDDFF86C180968C2
:105A6000096C401ADFF860180968C1F8A000DFF877
:105A700058080068D0F8A400DFF84C180968D1F87D
:105A8000A010884209D2DFF840080068D0F8A000D2
:105A9000DFF834180968C1F8A4000020288015E058
:105AA000002C04D0DFF820080068006C206046F26B
:105AB000A91028800AE0002C01D00020206047F2C5
:105AC000D920288002E046F62E602880DFF8F8070B
:105AD0000068446C300002F0BDFC2000BDE8F0819D
