:020000040802F0
:10000000D89100204DF30208C5E80208C7E80208AD
:10001000D1E80208D3E80208D5E802080000000091
:10002000000000000000000000000000D7E8020807
:10003000D9E80208000000008B860208DBE802080D
:1000400029F402082DF4020831F4020835F40208FC
:1000500039F402083DF4020841F4020845F40208AC
:1000600049F402084DF4020851F4020855F402085C
:1000700059F402085DF4020861F402082DE902084F
:1000800065F402083DE9020869F402086DF402080B
:1000900071F4020875F4020879F402087DF402088C
:1000A00081F4020885F4020889F402088DF402083C
:1000B0004DE9020891F4020895F4020899F4020847
:1000C0009DF40208A1F40208A5F40208A9F40208AC
:1000D000ADF40208B1F402081DE90208B5F4020803
:1000E000B9F40208BDF40208C1F40208C5F402081C
:1000F000C9F40208CDF40208D1F40208D5F40208CC
:10010000D9F40208DDF40208E1F40208E5F402087B
:100110000DE90208E9F40208EDF40208F1F402081E
:10012000F5F40208F9F40208FDF4020801F50208EA
:1001300005F5020809F502080DF5020811F5020897
:1001400015F5020819F502081DF50208F7E802087E
:1001500021F5020825F5020829F502082DF5020807
:1001600031F5020835F5020839F502083DF50208B7
:1001700041F5020845F5020849F502084DF5020867
:1001800051F5020855F5020800219020DFF81C2DDA
:1001900050730020DFF8142D9073DFF8AC0A90F84C
:1001A0006800DFF8082DD073DFF89C0A90F867002C
:1001B000DFF8F82C1074DFF8900AB0F86C0080B209
:1001C000000ADFF8E82C5074DFF87C0AB0F86C0005
:1001D000DFF8D82C9074DFF8700AB0F86E0080B2A7
:1001E000000ADFF8C82CD074DFF85C0AB0F86E00A3
:1001F000DFF8B82C1075DFF8500AB0F8700080B244
:10020000000ADFF8A82C5075DFF83C0AB0F870003F
:10021000DFF8982C9075DFF8300AB0F8720080B2E1
:10022000000ADFF8882CD075DFF81C0AB0F87200DD
:10023000DFF8782C1076DFF8100AB0F8740080B27E
:10024000000ADFF8682C5076DFF8FC09B0F874007B
:10025000DFF8582C9076DFF8F009B0F85000A0F2E3
:100260004C40C92802D251F4007102E04FF6FF5011
:100270000140DFF8D409B0F85200A0F24C40C92880
:1002800002D251F4807102E04FF6FF600140DFF8C6
:10029000B809B0F85400B0F5FA70652802D251F0F0
:1002A000800102E04FF67F700140DFF89C09B0F852
:1002B0005600B0F5FA70652802D251F0400102E014
:1002C0004FF6BF700140DFF88009B0F85800B0F574
:1002D000FA70652802D251F0200102E04FF6DF707B
:1002E0000140DFF86409B0F85A00B0F5967097281D
:1002F00002D251F0100102E04FF6EF700140DFF83A
:100300004809B0F85C00B4385B2802D251F008010B
:1003100002E04FF6F7700140DFF82C09B0F86000FA
:10032000B0F5C870C92802D251F0040102E04FF6BE
:10033000FB700140DFF81009B0F85E006438562801
:1003400002D251F0020102E04FF6FD700140DFF8E9
:10035000F808B0F862004138382802D251F00101A3
:1003600002E04FF6FE700140080080B2000ADFF89C
:100370003C2BD076DFF8340B0177DFF8CC08B0F8EF
:10038000500080B2000ADFF8241B4877DFF8B80875
:10039000B0F85000DFF8141B8877DFF8AC08B0F82D
:1003A000520080B2000ADFF8041BC877DFF8980813
:1003B000B0F85200DFF8F41A81F82000DFF888085E
:1003C000B0F8540080B2000ADFF8E01A81F821008A
:1003D000DFF87408B0F85400DFF8D01A81F8220072
:1003E000DFF86408B0F8560080B2000ADFF8BC1AE3
:1003F00081F82300DFF85008B0F85600DFF8AC1A97
:1004000081F82400DFF84008B0F8580080B2000AF4
:10041000DFF8981A81F82500DFF82C08B0F85800AA
:10042000DFF8881A81F82600DFF81C08B0F85A00B7
:1004300080B2000ADFF8741A81F82700DFF8080894
:10044000B0F85A00DFF8641A81F82800DFF8F807DE
:10045000B0F85C0080B2000ADFF8501A81F8290079
:10046000DFF8E407B0F85C00DFF8401A81F82A00F2
:10047000DFF8D407B0F8600080B2000ADFF82C1A69
:1004800081F82B00DFF8C007B0F86000DFF81C1A15
:1004900081F82C00DFF8B007B0F85E0080B2000AE7
:1004A000DFF8081A81F82D00DFF89C07B0F85E002D
:1004B000DFF8F81981F82E00DFF88C07B0F8620039
:1004C00080B2000ADFF8E41981F82F00DFF878071E
:1004D000B0F86200DFF8D41981F83000704780B5B9
:1004E000A020DFF8CC1988703120DFF8C419C8705B
:1004F000DFF8B809DFF8B8194860DFF84C0790F862
:100500008600022808D1DFF8AC09006801F01BF86A
:10051000DFF8A40901F072F8DFF82C0790F88600E4
:1005200001280DD1DFF8940901F00DF8DFF88C09EE
:10053000C178891DDFF88409DFF88429D2689047E3
:10054000DFF8040790F88600032808D1DFF8740963
:10055000006800F0F8FFDFF8840D01F04FF801BDEE
:1005600080B5DFF86409406800781B287DD16820D9
:10057000DFF83C190870DFF838090078DFF83C191B
:1005800008700420DFF828194870DFF82409407843
:10059000DFF8281948700520DFF814198870DFF893
:1005A00010098078DFF8141988700420DFF800192A
:1005B000C870DFF8FC08C078DFF80019C8701B208D
:1005C000DFF8EC1849680870DFF8E4084068007844
:1005D000DFF8E81808719020DFF8D41849684870EF
:1005E000DFF8CC0840684078DFF8D0184871002068
:1005F000DFF8BC1849688870DFF8B4084068807874
:10060000DFF8B8188871DFF8B4084178DFF8AC0873
:1006100080784118DFF8A408C0784118DFF89C08FA
:1006200000794118DFF8940840794118DFF88C0808
:1006300080794118DFF878080172DFF87408007AD1
:10064000DFF87818C8711620DFF864184872DFF8F0
:100650006008407ADFF8641808720921DFF85C0846
:10066000DFF85C28D268904743E00120DFF84018AB
:1006700088700220DFF83818C8709020DFF8301832
:10068000496808700020DFF8281849684870DFF8CA
:10069000B80590F88600022808D1DFF8180800682D
:1006A00000F051FFDFF8100800F0A8FFDFF8980510
:1006B00090F8860001280DD1DFF8000800F043FF14
:1006C000DFF8F807C178891DDFF8F007DFF8F027B9
:1006D000D2689047DFF8700590F88600032808D1AB
:1006E000DFF8E007006800F02EFFDFF8F00B00F005
:1006F00085FF01BD10B50220DFF8B4178870132004
:10070000DFF8AC17C8700B22DFF8A019DFF8A007DC
:100710004468200001F0E6F80822DFF89419DFF8B9
:100720009007406810F10B04200001F0DBF8DFF8BF
:10073000180590F88600022808D1DFF878070068CD
:1007400000F001FFDFF8700700F058FFDFF8F80451
:1007500090F8860001280DD1DFF8600700F0F3FE65
:10076000DFF85807C178891DDFF85007DFF85027F8
:10077000D2689047DFF8D00490F88600032808D1AB
:10078000DFF84007006800F0DEFEDFF8500B00F0F5
:1007900035FF10BD80B50320DFF8141788700220E4
:1007A000DFF80C17C8709020DFF80417496808704C
:1007B0000020DFF8FC1649684870DFF88C0490F8D8
:1007C0008600022808D1DFF8EC06006800F0BBFEC6
:1007D000DFF8E40600F012FFDFF86C0490F8860002
:1007E00001280DD1DFF8D40600F0ADFEDFF8CC060D
:1007F000C178891DDFF8C406DFF8C426D2689047A7
:10080000DFF8440490F88600032808D1DFF8B40626
:10081000006800F098FEDFF8C40A00F0EFFE01BDAA
:1008200080B5DFF8A406406801F0BEF90420DFF8C7
:10083000801688700120DFF87816C8700120DFF874
:10084000701649680870DFF8000490F886000228E6
:1008500008D1DFF86006006800F075FEDFF8580682
:1008600000F0CCFEDFF8E00390F8860001280DD1FF
:10087000DFF8480600F067FEDFF84006C178891D02
:10088000DFF83806DFF83826D2689047DFF8B8037B
:1008900090F88600032808D1DFF82806006800F0E9
:1008A00052FEDFF8380A00F0A9FE01BD80B5052030
:1008B000DFF8FC1588700120DFF8F415C8700120FE
:1008C000DFF8EC1549680870DFF87C0390F88600C3
:1008D000022808D1DFF8DC05006800F034FEDFF8FC
:1008E000D80500F08BFEDFF8600390F88600012841
:1008F0000DD1DFF8C80500F026FEDFF8C005C1788D
:10090000891DDFF8B805DFF8B825D2689047CE48D2
:1009100090F88600032808D1DFF8A805006800F0E9
:1009200012FEDFF8D40C00F069FE01BD80B5062090
:10093000DFF87C1588700120DFF87415C87001207D
:10094000DFF86C1549680870BF4890F886000228E7
:1009500008D1DFF86005006800F0F5FDDFF8580504
:1009600000F04CFEB84890F8860001280DD1DFF861
:100970004C0500F0E8FDDFF84405C178891DDFF87B
:100980003C05DFF83C25D2689047AF4890F88600D8
:10099000032808D1DFF82C05006800F0D4FDDFF84B
:1009A000580C00F02BFE01BD80B50720DFF80015C4
:1009B00088700120DFF8F814C8700120DFF8F01407
:1009C00049680870A04890F88600022808D1DFF82E
:1009D000E404006800F0B7FDDFF8DC0400F00EFE70
:1009E000994890F8860001280DD1DFF8D00400F076
:1009F000AAFDDFF8C804C178891DDFF8C004DFF85C
:100A0000C024D2689047904890F88600032808D107
:100A1000DFF8B004006800F096FDDFF8DC0B00F0B2
:100A2000EDFD01BDDFF8680ADFF8201D08607047A2
:100A300080B5DFF89404406800781D285DD16820F7
:100A4000DFF86C140870DFF868040078DFF86C14C5
:100A500008700420DFF858144870DFF85404407818
:100A6000DFF8581448700620DFF844148870DFF867
:100A700040048078DFF8441488700220DFF83014D6
:100A8000C870DFF82C04C078DFF83014C8701E205E
:100A9000DFF81C1449680870DFF814044068007817
:100AA000DFF818140871DFF814044178DFF80C043B
:100AB00080784118DFF80404C0784118DFF8FC039F
:100AC00000794118DFF8E8030172DFF8E403007AE7
:100AD000DFF8E81348711620DFF8D4134872DFF806
:100AE000D003407ADFF8D41388710721DFF8CC03F4
:100AF000DFF8CC23D26890473BE00820DFF8B01342
:100B000088700120DFF8A813C8700120DFF8A01357
:100B1000496808704C4890F88600022808D1DFF830
:100B20009403006800F00FFDDFF88C0300F066FD11
:100B3000454890F8860001280DD1DFF8800300F0C9
:100B400002FDDFF87803C178891DDFF87003DFF854
:100B50007023D26890473C4890F88600032808D15B
:100B6000DFF86003006800F0EEFCDFF8700700F0CB
:100B700045FD01F031F8DFF8A41ADFF8D40B01F0DD
:100B800044F801F039F8C82001F0E3F8FFF74AFF14
:100B900001BD80B50920C64988700720C449C870C6
:100BA000294890F88800C24949680870264890F89A
:100BB0008900BF4949684870234890F88B00BC49B8
:100BC00049688870204890F88F00B9494968C87012
:100BD0001D4890F88A00B649496808711A4890F88B
:100BE0008C00B34949684871174890F89000B049A3
:100BF00049688871144890F88600022806D1AD48EB
:100C0000006800F0A0FCAC4800F0F8FC0E4890F83A
:100C10008600012809D1A94800F095FCA748C178B1
:100C2000891DA648A64AD2689047074890F88600D2
:100C3000032807D1A348006800F085FCDFF8B80955
:100C400000F0DCFC01BD00000000002080B50A209F
:100C5000974988700A209649C870DFF8F80AB0F8FA
:100C60006C0080B2000A924949680870DFF8E40A13
:100C7000B0F86C008E4949684870DFF8D80AB0F8BF
:100C80006E0080B2000A8A4949688870DFF8C40A99
:100C9000B0F86E0086494968C870DFF8B80AB0F845
:100CA000700080B2000A824949680871DFF8A40A1E
:100CB000B0F870007E4949684871DFF8980AB0F8CA
:100CC000720080B2000A7A4949688871DFF8840AA4
:100CD000B0F8720076494968C871DFF8780AB0F850
:100CE000740080B2000A724949680872DFF8640A29
:100CF000B0F874006E4949684872DFF8580A90F8F5
:100D00008600022806D16B48006800F01CFC6A4887
:100D100000F074FCDFF83C0A90F88600012809D145
:100D2000664800F010FC6548C178891D6348644A34
:100D3000D2689047DFF81C0A90F88600032807D194
:100D40006048006800F0FFFBDFF8AC0800F056FCDC
:100D500001BD80B50B205649887002205449C870E7
:100D6000DFF8F00990F88D00514949680870DFF804
:100D7000E40990F88E004E4949684870DFF8D409BC
:100D800090F88900002808D049484068007850F061
:100D9000800047494968087007E045484068007886
:100DA00010F07F00424949680870DFF8A80990F800
:100DB0008A00002808D03E484068407850F0800003
:100DC0003B494968487007E039484068407810F06E
:100DD0007F00374949684870DFF8780990F8860045
:100DE000022806D13348006800F0ADFB324800F01D
:100DF00005FCDFF8600990F88600012809D12F482A
:100E000000F0A1FB2D48C178891D2C482C4AD268DE
:100E10009047DFF8400990F88600032807D1294859
:100E2000006800F090FBDFF8D00700F0E7FB01BDA1
:100E300080B5254840680078DFF8181981F8670008
:100E40000C201B49887001201949C87001201849DD
:100E500049680870DFF8FC0890F88600022806D17F
:100E60001448006800F06FFB134800F0C7FBDFF880
:100E7000E40890F88600012809D1104800F063FBCF
:100E80000E48C178891D0D480D4AD2689047DFF899
:100E9000C40890F88600032807D10A48006800F0CB
:100EA00052FBDFF8540700F0A9FB01BD2801002028
:100EB0005802002084020020A0600240AC6F002095
:100EC00008020020740200204C02002080B50D2092
:100ED000DFF8EC1988701420DFF8E419C870DFF827
:100EE0007408B0F8500080B2000ADFF8D4194968DD
:100EF0000870DFF86008B0F85000DFF8C4194968DE
:100F00004870DFF85008B0F8520080B2000ADFF8ED
:100F1000B01949688870DFF83C08B0F85200DFF873
:100F2000A0194968C870DFF82C08B0F8540080B2E6
:100F3000000ADFF88C1949680871DFF81808B0F862
:100F40005400DFF87C1949684871DFF80808B0F8E8
:100F5000560080B2000ADFF8681949688871DFF826
:100F6000F407B0F85600DFF858194968C871DFF87F
:100F7000E407B0F8580080B2000ADFF84419496865
:100F80000872DFF8D007B0F85800DFF83419496864
:100F90004872DFF8C007B0F85A0080B2000ADFF8E4
:100FA000201949688872DFF8AC07B0F85A00DFF8FA
:100FB00010194968C872DFF89C07B0F85C0080B26D
:100FC000000ADFF8FC1849680873DFF88807B0F8F2
:100FD0005C00DFF8EC1849684873DFF87807B0F870
:100FE000600080B2000ADFF8D81849688873DFF81B
:100FF0006407B0F86000DFF8C8184968C873DFF804
:101000005407B0F85E0080B2000ADFF8B4184968EF
:101010000874DFF84007B0F85E00DFF8A4184968EC
:101020004874DFF83007B0F8620080B2000ADFF8D9
:10103000901849688874DFF81C07B0F86200DFF880
:1010400080184968C874DFF80C0790F886000228F9
:1010500008D1DFF87008006800F075FADFF868085A
:1010600000F0CCFADFF8EC0690F8860001280DD1EC
:10107000DFF8580800F067FADFF85008C178891DDA
:10108000DFF84808DFF84828D2689047DFF8C40640
:1010900090F88600032808D1DFF83808006800F0CF
:1010A00052FADFF8540500F0A9FA01BD4002002011
:1010B0006402002080B500F04BFF0E20DFF800181E
:1010C00088700820DFF8F817C870DFF88806B0F8D5
:1010D000480080B2000ADFF8E81749680870DFF8B6
:1010E0007406B0F84800DFF8D81749684870DFF890
:1010F0006406B0F84A0080B2000ADFF8C4174968F5
:101100008870DFF85006B0F84A00DFF8B417496875
:10111000C870DFF84006B0F84C0080B2000ADFF873
:10112000A01749680871DFF82C06B0F84C00DFF80A
:10113000901749684871DFF81C06B0F84E0080B27D
:10114000000ADFF87C1749688871DFF80806B0F8F4
:101150004E00DFF86C174968C871DFF8F80590F8A1
:10116000860001280DD1DFF8640700F0ECF9DFF804
:101170005C07C178891DDFF85407DFF85427D2686F
:101180009047DFF8D00590F88600022808D1DFF8F4
:101190003407006800F0D7F9DFF82C0700F02EFACA
:1011A000DFF8B00590F88600032808D1DFF824079F
:1011B000006800F0C8F9DFF8400400F01FFA01BD34
:1011C00080B54FF40041DFF8100701F007FA0F2057
:1011D000DFF8EC1688700120DFF8E416C8700120F3
:1011E000DFF8DC1649680870DFF8680590F88600BB
:1011F000022808D1DFF8CC06006800F0A4F9DFF877
:10120000C80600F0FBF9DFF84C0590F886000128CD
:101210000DD1DFF8B80600F096F9DFF8B006C17816
:10122000891DDFF8A806DFF8A826D2689047DFF806
:10123000240590F88600032808D1DFF89806006896
:1012400000F081F9DFF8B00300F0D8F901BD80B5F6
:101250004FF40041DFF8800601F0BEF91020DFF8FE
:10126000601688700120DFF85816C8700120DFF87A
:10127000501649680870DFF8DC0490F886000228F0
:1012800008D1DFF84006006800F05DF9DFF83806A5
:1012900000F0B4F9DFF8BC0490F8860001280DD105
:1012A000DFF8280600F04FF9DFF82006C178891D25
:1012B000DFF81806DFF81826D2689047DFF89404A4
:1012C00090F88600032807D1DFF80806006800F0D0
:1012D0003AF9C94800F092F901BD0000706002407F
:1012E00080B54FF48041DFF8F00501F077F9112067
:1012F000DFF8CC1588700120DFF8C415C870012014
:10130000DFF8BC1549680870DFF8480490F88600DB
:10131000022808D1DFF8AC05006800F014F9DFF806
:10132000A80500F06BF9DFF82C0490F8860001287E
:101330000DD1DFF8980500F006F9DFF89005C178C7
:10134000891DDFF88805DFF88825D2689047DFF827
:10135000040490F88600032807D1DFF878050068B8
:1013600000F0F1F8A44800F049F901BD80B54FF450
:101370008041DFF8640501F02FF91220DFF84015F5
:1013800088700120DFF83815C8700120DFF83015AB
:1013900049680870DFF8BC0390F88600022808D17D
:1013A000DFF82005006800F0CEF8DFF81C0500F03B
:1013B00025F9DFF8A00390F8860001280DD1DFF8A9
:1013C0000C0500F0C0F8DFF80405C178891DDFF8CE
:1013D000FC04DFF8FC24D2689047DFF8780390F82B
:1013E0008600032807D1DFF8EC04006800F0ABF8B2
:1013F000814800F003F901BD80B5DFF8E0044068E2
:1014000001F018FA01BD80B5DFF8D004406801F0A2
:10141000D6FB01BD80B5F020DFF8A4148870012050
:10142000DFF89C14C870F020DFF894144968087045
:10143000C84890F88600022808D1DFF888040068C0
:1014400000F081F8DFF8800400F0D8F8C14890F887
:10145000860001280DD1DFF8740400F074F8DFF87D
:101460006C04C178891DDFF86404DFF86424D26855
:101470009047B84890F88600032807D1DFF8540455
:10148000006800F060F85C4800F0B8F801BD0000AA
:101490000400FA05DFF8440440680078C00703D56B
:1014A0000120AC49087002E00020AA490870DFF86A
:1014B0002C0440680078800704D50120A54981F8F4
:1014C000870003E00020A34981F88700DFF80C04BF
:1014D00040680078400704D501209E4981F86600E5
:1014E00003E000209B4981F86600DFF8F0034068C4
:1014F0000078000704D50120964981F86A0003E0CE
:101500000020944981F86A00DFF8D0034068007831
:10151000C00604D501208F4981F8760003E0002041
:101520008C4981F87600DFF8B403406800788006C3
:1015300004D50120874981F8990003E000208549FE
:1015400081F89900704710B40021DFF874134A78CD
:10155000DFF86C1389788A18DFF86413C9788A1861
:10156000DFF85C130A7200220DE0DFF854130B7AE7
:10157000DFF84C1349681400E4B2095DCB18DFF8BA
:1015800040130B72521C1100DFF83433DB78C9B200
:101590009942EAD3DFF8281309780170DFF82013A5
:1015A00049784170DFF8181389788170DFF81013DB
:1015B000C978C170002107E0DFF804235268525C4B
:1015C00000EB01031A71491CDFF8F422D278914232
:1015D000F2DBDFF8EC12097ADFF8E422D278024479
:1015E0001171DFF8DC12497ADFF8D422D278104486
:1015F000417110BC704700007060024010B50400DB
:10160000DFF8BC02C178891D89B2200002F0FFF822
:101610000121200002F0EEF810BD0000BBBBAAAA19
:1016200030B400220378DFF8B4422370401C037802
:10163000DFF8A8426370401C0378DFF8A042A37073
:10164000401C0378DFF89442E370401C002306E05E
:101650000478DFF888526D68EC54401C5B1C0C0069
:10166000E4B2A41FA342F3DB0178DFF870321972F1
:10167000401C0078DFF864124872DFF8600240789E
:101680008218DFF8580280788218DFF85002C0789C
:101690008218002105E0DFF844024068405C8218AF
:1016A000491CDFF83802C0788142F4DBDFF82C02F5
:1016B000007868281ED1DFF824024078042819D168
:1016C000DFF818028078032814D1DFF81002C07800
:1016D00002280FD1DFF80402406800781B2801D1EE
:1016E000012031E0DFF8F401406800781D2801D1C5
:1016F000012029E0DFF8E4010078682823D1DFF831
:10170000DC01407804281ED1DFF8D001407A162889
:1017100019D1DFF8C801007AD2B2824213D1DFF8C2
:10172000BC018078132804D0DFF8B0018078142839
:1017300007D1002000E0401CDFF8A011C9788842E2
:10174000F9DB012000E0002030BC70470CED00E028
:1017500000000C080000002080B560488078032855
:101760000FD15E48406800781B2802D101205B49F8
:1017700088705A48406800781D2802D108205749CF
:1017800088705648807801282DD002282ED0032852
:101790002FD0042830D0052831D0062832D0072891
:1017A00033D0082834D0092835D00A2836D00B2861
:1017B00037D00C2838D00D2839D00E283AD00F2831
:1017C0003BD010283CD011283DD012283ED0132801
:1017D0003FD0142855D0A02802D0FF2869D06BE054
:1017E000FEF77DFE6AE0FEF7BBFE67E0FEF782FFD4
:1017F00064E0FEF7CFFF61E0FFF712F85EE0FFF76D
:1018000055F85BE0FFF792F858E0FFF7CDF855E0A8
:10181000FFF70EF952E0FFF7BCF94FE0FFF716FAB9
:101820004CE0FFF796FA49E0FFF702FB46E0FFF7CE
:101830004DFB43E0FFF73EFC40E0FFF7C1FC3DE01D
:10184000FFF705FD3AE0FFF74BFD37E0FFF78EFDB0
:1018500034E001202249487000202149887000208E
:101860001F49487100201E49087100201C49C87199
:1018700000201B490872002019498881FFF7BCFD30
:101880001CE000201649487001201549887000208E
:101890001349487100201249087100201049C8718D
:1018A00000200F49087200200D498881FFF7ABFD29
:1018B00004E0FFF7EFFD01E0FFF7ACFD01BD000024
:1018C0005802002084020020A0600240AC6F00207B
:1018D0000802002074020020001802404C02002080
:1018E0000000002062B38B0708D0521E11F8013BA4
:1018F00000F8013B00F024808B07F6D1830740F00D
:10190000208000BF103A07D330B4B1E83810103A45
:10191000A0E83810F9D230BC530724BFB1E8081052
:10192000A0E8081044BF51F8043B40F8043BD2073C
:1019300024BF31F8022B20F8022B44BF0B78037030
:101940007047121F17D35B0009D151F8043B20F8F0
:10195000023B1B0C121F20F8023BF6D20BE051F8A1
:10196000043B00F8013B1B0A20F8023B1B0C121F32
:1019700000F8013BF3D238BF121D521E24BF11F8EC
:10198000013B00F8013BF8D870477047704770473B
:101990007047704770477047E0B50121102002F092
:1019A00038F84FF40060009001208DF80400032007
:1019B0008DF8050001208DF8060000208DF8070045
:1019C0006946834800F0ACFD07BDE0B50121102059
:1019D00002F01FF84FF40060009000208DF8040022
:1019E00003208DF8050001208DF8060000208DF8F9
:1019F00007006946764800F093FD07BD10B5FFF774
:101A0000CBFF4FF40061724800F0E6FDC82000F003
:101A1000C6F94FF400616E4800F0E0FD4FF4167017
:101A200000F0BDF9FFF7D1FF3C2000F0B8F94FF40A
:101A30000061674800F0C6FD04004FF4967000F0A6
:101A4000AEF92000C0B210BD38B50400FFF7A4FF06
:101A5000002522E04FF400615D4800F0BFFD16E074
:101A60004FF400615A4800F0B7FD022000F097F9EA
:101A70004FF40061564800F0B1FD0A2000F08FF9E4
:101A8000E007E7D54FF40061514800F0A5FD3C2088
:101A900000F085F9E4B264086D1C082DE0DB31BD6F
:101AA00070B500240125002625E0AC431EE0FFF7B9
:101AB00073FF4FF40061464800F08EFD022000F0F5
:101AC0006EF94FF40061424800F088FD022000F0FA
:101AD00066F9FFF77AFF052000F061F94FF4006125
:101AE0003B4800F06FFD0028DFD02C433C2000F085
:101AF00056F96D00761C082ED9DB2000C0B270BDEF
:101B000070B504000D00FFF779FF002801D0012017
:101B100049E0CC20FFF798FF0F20FFF795FF20004A
:101B2000C0B2FFF791FF0020FFF78EFF002605E00F
:101B30003000C0B2285CFFF787FF761C3000C0B2CF
:101B40000828F5DBFFF7ACFF0500FFF7A9FF55EA12
:101B50000025FFF753FF002801D0012023E0CC200F
:101B6000FFF772FF5520FFF76FFF2000C0B2FFF7AD
:101B70006BFF0020FFF768FF0720FFF765FF4FF4BA
:101B80000061134800F028FD4FF4487000F007F999
:101B9000FFF786FF80B2AA2804D14FF400610C48F9
:101BA00000F01AFD002070BD10B5002106E002789B
:101BB000084B0C00E4B21A55401C491C0A00D2B272
:101BC000102AF4DB03490020FFF79AFF10BD000044
:101BD0000010024098700020DFF8D4000068002850
:101BE00009D5DFF8D000DFF8D0100860DFF8CC00AE
:101BF000DFF8C41008607047DFF8B400006850F0E8
:101C00000040DFF8AC100860704738B504000D00E4
:101C1000092000F057F80100C9B2092922D1DFF8E4
:101C20009000006830F44070DFF884100860DFF83E
:101C30008000006850F40070DFF874100860DFF86E
:101C40007000006850F00100DFF864100860256043
:101C500000F038F8DFF85810096849084900DFF843
:101C600050201160C0B232BD092015480068C00381
:101C700001D5012019E012480068C00601D50620F0
:101C800013E00F480068C00501D502200DE00C48A4
:101C9000006810F0E00F01D0072006E00848006857
:101CA000800701D5082000E00920C0B2704700007D
:101CB000103C024023016745043C0240AB89EFCD54
:101CC0000C3C024080B509208DF80000FFF7CCFFE6
:101CD0008DF8000003E0FFF7C7FF8DF800009DF8C6
:101CE00000000128F7D09DF8000002BD020052B2AA
:101CF000002A08D509013A4A40B210F00F001044FA
:101D000000F8041C03E00901364A40B21154704740
:101D100080B5411EB1F1807F01D301200EE0401E4D
:101D2000314908600F215FF0FF30FFF7DFFF00202F
:101D30002E49086007202E490860002002BD80B5AA
:101D400045F20820FFF7E4FF7FF0040001F0F8FE01
:101D500001BD01B5009800F00FF800F013F800285D
:101D6000FBD101BD23480068002804D02148006849
:101D7000401E20490860704701B400981D49086062
:101D800001B070471B480068704780B5684602F094
:101D90006EF801BD80B5684602F099F801BD70B5D6
:101DA0000400A4B2152044430F4805680F48066894
:101DB000FFF7EBFF0D480068002801D10B480068D1
:101DC000B042F7D0B04203D2301AA042F2D303E0BF
:101DD000281A3018A042EDD3FFF7DCFF70BD0000D9
:101DE00018ED00E000E400E014E000E018E000E09E
:101DF00010E000E06C71002038B58AB004000D00DE
:101E0000DFF89C06844204D101214FF4807001F078
:101E100036FEDFF89006844204D101214FF40070B1
:101E200001F02DFEDFF88006844204D101214FF439
:101E3000806001F024FE002006905FF4803007905F
:101E4000002008900020099006A802F07AFC0020EB
:101E5000009001208DF8040001208DF8050000207D
:101E600002905FF070600390002004908DF8145091
:101E70006946200002F040FC0121200002F071FCC4
:101E80000BB030BD70B48AB00021002313E0DFF83E
:101E90001C461D00EDB21C22554304EB0502040054
:101EA000E4B202EB440232F8022C6C461D00EDB2A3
:101EB00024F815205B1C1A00D2B2142AE7DB00209C
:101EC0002CE06B461400E4B203EB44035B886C46E1
:101ED0001500EDB234F81540A34215D26B4614003C
:101EE000E4B233F814306C461500EDB204EB45044F
:101EF00064886D461600F6B225F816406C4615004B
:101F0000EDB204EB45046380521C1300DBB2040005
:101F1000E4B2D4F11304A342D3DB401C0200D2B2DA
:101F2000142A01DA0022F0E7022007E06A460300E3
:101F3000DBB232F8132011FA82F1401C0200D2B257
:101F4000122AF3DB0909080080B20AB070BC70479E
:101F500080B50120FFF796FF02F0B2FC5FF0663219
:101F6000DFF84C3502F0BAFC0022DFF8483502F009
:101F70008BFDDFF84425DFF8443502F085FDDFF8FE
:101F80004025DFF8403502F0A9FC0022DFF83835A3
:101F900002F0A4FC02F09CFEDFF83015A1F8480026
:101FA0000220FFF76FFF02F08BFC5FF06632DFF874
:101FB000003502F093FC0022DFF8F83402F064FDF3
:101FC00002000B005FF06630DFF8E41402F050FF0F
:101FD000DFF8FC24DFF8FC3402F056FDDFF8F824CB
:101FE000DFF8F83402F07AFC5FF06632DFF8F034A4
:101FF00002F080FE0022DFF8D03402F06FFC02F025
:1020000067FEDFF8C814A1F84A000320FFF73AFF83
:1020100002F056FC5FF06632DFF8943402F05EFCAA
:102020000022DFF8903402F02FFDDFF88C24DFF877
:102030008C3402F029FDDFF88824DFF8883402F0C0
:102040004DFC0022DFF8803402F048FC02F040FE34
:10205000DFF87814A1F84C000420FFF713FF02F01A
:102060002FFC5FF06632DFF8483402F037FC0022C4
:10207000DFF8403402F008FD02000B005FF066302C
:10208000DFF82C1402F0F4FEDFF84424DFF84434C7
:1020900002F0FAFCDFF84024DFF8403402F01EFCC6
:1020A0005FF06632DFF8383402F024FE0022DFF8F9
:1020B000183402F013FC02F00BFEDFF81014A1F844
:1020C0004E0001BD80B50520FFF7DCFE02F0F8FBF5
:1020D0005FF06632DFF8D83302F000FC0022DFF850
:1020E000D43302F0D1FC0022DFF8F83302F0CCFC4C
:1020F0005FF03332DFF8F03302F0F0FB0022DFF85C
:10210000C83302F0EBFB02F0E3FDDFF8C013A1F8E7
:102110005A000620FFF7B6FE02F0D2FB5FF06632EF
:10212000DFF88C3302F0DAFB0022DFF8883302F0AC
:10213000ABFC0022DFF8AC3302F0A6FC5FF03332D8
:10214000DFF8A43302F0CAFB0022DFF87C3302F090
:10215000C5FB02F0BDFDDFF87413A1F85C00072099
:10216000FFF790FE02F0ACFB5FF06632DFF8403321
:1021700002F0B4FB0022DFF83C3302F085FCDFF80C
:102180006C23DFF86C3302F07FFCDFF86823DFF8A4
:10219000683302F0A3FB0022DFF82C3302F09EFB31
:1021A00002F096FDDFF82413A1F850000820FFF795
:1021B00069FE02F085FB5FF06632BD4B02F08EFBDC
:1021C0000022BC4B02F060FC02000B005FF06630A6
:1021D000B74902F04DFEC54AC54B02F055FCC74A4F
:1021E000C74B02F07BFB5FF06632BD4B02F082FD15
:1021F0000022B54B02F072FB02F06AFDB349A1F870
:1022000052000920FFF73EFE02F05AFB5FF06632F3
:10221000A74B02F063FB0022A64B02F035FC002224
:10222000B04B02F031FC5FF03332AF4B02F056FBA3
:102230000022A54B02F052FB02F04AFDA349A1F88F
:1022400054000A20FFF71EFE02F03AFB5FF06632F0
:10225000974B02F043FB0022964B02F015FC002244
:10226000A04B02F011FC5FF033329F4B02F036FBC3
:102270000022954B02F032FB02F02AFD9349A1F8AF
:1022800056000B20FFF7FEFD02F01AFB5FF06632EE
:10229000874B02F023FB0022864B02F0F5FB020085
:1022A0000B005FF06630824902F0E2FD8F4A904BEE
:1022B00002F0EAFB914A924B02F010FB5FF06632AB
:1022C000874B02F017FD00227F4B02F007FB02F064
:1022D000FFFC7E49A1F858000C20FFF7D3FD02F067
:1022E000EFFA5FF06632724B02F0F8FA0022714B9F
:1022F00002F0CAFB00227B4B02F0C6FB5FF03332D8
:10230000794B02F0EBFA00226F4B02F0E7FA02F091
:10231000DFFC6E49A1F860000D20FFF7B3FD02F06D
:10232000CFFA5FF06632624B02F0D8FA0022614BBE
:1023300002F0AAFB0022734B02F0A6FB0022724BB4
:1023400002F0CCFA0022604B02F0C8FA02F0C0FCA6
:102350005E49A1F862000E20FFF794FD02F0B0FA8A
:102360005FF06632524B02F0B9FA0022514B02F094
:102370008BFB0022634B02F087FB0022624B02F0D2
:10238000ADFA0022504B02F0A9FA02F0A1FC4F492D
:10239000A1F85E0001BD70B48AB00021002210E0F7
:1023A0005A4B1400E4B203EB84030400E4B203EBE1
:1023B000440333F8023C6C461500EDB224F81530A6
:1023C000521C1300DBB2142BEADB00202CE06B461E
:1023D0001400E4B203EB44035B886C461500EDB2D5
:1023E00034F81540A34215D26B461400E4B233F81A
:1023F00014306C461500EDB204EB450464886D465C
:102400001600F6B225F816406C461500EDB204EB46
:1024100045046380521C1300DBB20400E4B2D4F123
:102420001304A342D3DB401C0200D2B2142A01DA07
:102430000022F0E7022007E06A460300DBB232F830
:10244000132011FA82F1401C0200D2B2122AF3DBEF
:102450000909080080B20AB070BC704780B502203C
:10246000FFF799FF02F02CFA5FF06632104B02F092
:1024700035FA00220F4B02F007FB254A254B02F0EC
:1024800039FC154A244B02F0FFFA0022234B02F0DC
:1024900031FC02F05FFD0D4981F8680001BD0000CC
:1024A000002001400021014000220140CC510020C9
:1024B00066660A4000FEAF40E17A14AE47E1104084
:1024C000AE47E17A140E5A40000059400000002047
:1024D0005C8FC2F5285C05407B14AE47E1AA5940E9
:1024E00066660AC000002E4033F34340F6285C8F36
:1024F000C2F51340A4703D0AD7E33D408FC2F528D2
:102500005CBF5C4000002440000034400C6F0020A1
:1025100052B81E85EB51E8BFE17A643F00003940B4
:1025200030B4002200220022002347E001229A401A
:102530000C681440944240D1046803251A00D2B2BA
:1025400052009540AC43046004680D791A00D2B281
:10255000520095402C4304600A79012A02D00A797E
:10256000022A1AD1846803251A00D2B2520095407B
:10257000AC43846084684D791A00D2B25200954011
:102580002C438460426801249C40A243426042681C
:102590008C799C40A4B222434260C46803251A008F
:1025A000D2B252009540AC43C460C468CD791A00E1
:1025B000D2B2520095402C43C4605B1C102BB5D3A3
:1025C00030BC70470022006989B2084201D0012066
:1025D00000E00020C0B2704701837047418370471C
:1025E000426989B251404161704770B400230023B1
:1025F000D2B211F00703DBB29B009A400B009BB2F2
:10260000DB1000EB83040B009BB2DB1000EB8303B9
:102610001D6A0F2611F00703DBB29B009E40B543F5
:1026200025620B009BB2DB1000EB83031B6A1A438D
:1026300089B2C91000EB8100026270BC70470A00C9
:1026400080B51320DFF8301888700820DFF82818CC
:10265000C870DFF82808B0F8480080B2000ADFF838
:10266000181849680870DFF81408B0F84800DFF857
:10267000081849684870DFF80408B0F84A0080B2CA
:10268000000ADFF8F41749688870DFF8F007B0F83F
:102690004A00DFF8E4174968C870DFF8E007B0F8CF
:1026A0004C0080B2000ADFF8D01749680871DFF8E3
:1026B000CC07B0F84C00DFF8C01749684871DFF864
:1026C000BC07B0F84E0080B2000ADFF8AC174968CA
:1026D0008871DFF8A807B0F84E00DFF89C1749684A
:1026E000C871DFF8980790F8860001280DD1DFF84F
:1026F0009007FEF728FFDFF88807C178891DDFF80B
:102700008007DFF88027D268904701BDDFF86C07AB
:10271000008A9630DFF864170884DFF86007008AC3
:102720009638DFF858174884DFF85007008A96304B
:10273000DFF848178884DFF84407008A9638DFF806
:102740003C17C884DFF83407407801281BD1DFF834
:102750002C07808A9630DFF824170885DFF81C07DD
:10276000808A9638DFF814174885DFF81007808ACA
:102770009630DFF808178885DFF80007808A9638DA
:10278000DFF8F816C885DFF8F406807801281BD139
:10279000DFF8E806808A6430DFF8E0160885DFF8A5
:1027A000DC06808A6438DFF8D4164885DFF8CC066A
:1027B000C08A6430DFF8C4168885DFF8C006C08A96
:1027C0006438DFF8B816C885704730B4002300239A
:1027D0000023D2B2012A02D11D233A2401E00323AF
:1027E00006240A00050092B2ADB2AA420CD21C0027
:1027F000A4B20500ADB20A0092B2AD1AAC4202DA40
:102800000800181813E012E002000B0092B29BB20D
:102810009A420CD223009BB20D00ADB2020092B2DC
:10282000AD1AAB4202DA2000081A00E0FFE780B2DE
:1028300030BC7047E0B50178427852EA0122DFF8F7
:102840003C160A828178C27852EA0122DFF82C16FF
:102850004A820179427952EA0122DFF820168A82FF
:102860008179C07950EA0120DFF81016C882DFF8BC
:102870000C06008AB0F5FA7041F65931884280F0B2
:102880009D81DFF8F805408AB0F5FA7041F65931BC
:10289000884280F09381DFF8E405808AB0F5FA7011
:1028A00041F65931884280F08981DFF8D005C08A2D
:1028B000B0F5FA7041F65931884280F07F810120ED
:1028C000DFF8B81548720120DFF8B0158872DFF81C
:1028D000AC05407A012805D0DFF8A005807A0128F0
:1028E00040F06C81DFF89405008ADFF89015098BC1
:1028F000884207D3DFF88405408ADFF88015498BCA
:1029000088420FD2DFF87405808ADFF87015898B52
:10291000884215D3DFF86405C08ADFF86015C98BDB
:1029200088420DD3DFF854050078002803D0DFF883
:10293000580502F02BFB6420DFF84015C8810DE03C
:10294000DFF838050078002803D0DFF8400502F0F2
:102950001DFB4FF4FA70DFF82415C881DFF81C0561
:10296000008ADFF818150883DFF81005408ADFF8C1
:102970000C154883DFF80405808ADFF8001588838A
:10298000DFF8F804C08ADFF8F414C883FFF7BEFE4E
:102990004FF40041DFF8F804FFF720FE4FF48041C8
:1029A000DFF8EC04FFF71AFEDFF8D004008A02F02B
:1029B00001FBDFF8C8140886DFF8C004408A02F083
:1029C00020FBDFF8B8144886DFF8B004808A02F0F4
:1029D000F1FADFF8A8148886DFF8A004C08A02F0B4
:1029E00010FBDFF89814C886DFF890040078002800
:1029F00000F0B380DFF88404C08E0090DFF87C0420
:102A0000838EDFF87804428EDFF87004018EDFF8E1
:102A1000840402F0BBFAA0E0DFF86004407A0128E9
:102A20003FD10122DFF85404818FDFF85004008E7B
:102A3000FFF7CBFEDFF8441488870222DFF83C045E
:102A4000C18FDFF83804408EFFF7BFFEDFF82C148B
:102A5000C887DFF82804818F002002F03CFC0121A8
:102A6000002002F020FCDFF81404C18EC9B2DFF8A8
:102A70000C04C08FC0B202F058FCDFF80004808F55
:102A8000DFF8F813098E88420BD1DFF8F003C08F0E
:102A9000DFF8E813498E884203D10020DFF8DC1309
:102AA0004872DFF8D803807A012843D10122DFF889
:102AB000CC03B0F84010DFF8C403808EFFF785FE2A
:102AC000DFF8B813A1F840000222DFF8B003B0F835
:102AD0004210DFF8A803C08EFFF777FEDFF89C13E3
:102AE000A1F84200DFF89403818E002002F001FC7F
:102AF0000121102002F0D7FBDFF88003C18EC9B29C
:102B0000DFF87803C08FC0B202F00FFCDFF86C036F
:102B1000B0F84000DFF86413898E88420AD1DFF8EC
:102B20005C03B0F84200D549C98E884202D100202A
:102B3000D2498872D148007800280ED0CF48B0F82A
:102B400042000090CD48B0F84030CC48C28FCB480E
:102B5000818FDFF8000C02F019FAC848407A01288A
:102B60003FF45AAFC548807A01283FF455AFC348B7
:102B70000078002813D0C148B0F84E000190BF483B
:102B8000B0F84C000090BD48B0F84A30BB48B0F8EF
:102B90004820BA488189DFF8C00B02F0F7F901201C
:102BA000B64948710020B54908710020B3498881B1
:102BB0000120B24908720020B049C87207BD80B533
:102BC0000178427852EA0122DFF8901B0A8281786C
:102BD000C27852EA0122DFF8841B4A8201794279E5
:102BE00052EA0122DFF8741B8A828179C07950EAA7
:102BF0000120DFF8681BC882DFF8600B008AB0F59F
:102C0000FA7041F65931884280F03481DFF84C0B7C
:102C1000408AB0F5FA7041F65931884280F02A8135
:102C2000DFF8380B808AFA38FB2880F02381DFF840
:102C30002C0BC08AFA38FB2880F01C81DFF81C0BB3
:102C4000008ADFF8181B098B884207D1DFF80C0BCC
:102C5000408ADFF8081B498B884204D00120DFF846
:102C6000FC1A487203E00020DFF8F01A4872DFF81F
:102C7000EC0A808ADFF8E41A898B884207D1DFF8F2
:102C8000DC0AC08ADFF8D41AC98B884204D001203C
:102C9000DFF8C81A887203E00020DFF8C01A8872D3
:102CA0000120DFF8B81A48720120DFF8B01A8872E4
:102CB000DFF8A80A407A012805D0DFF8A00A807A58
:102CC000012840F0AC80DFF8940A008BDFF88C1A02
:102CD000098A884207D2DFF8840A408BDFF87C1A21
:102CE000498A88420FD3DFF8740A808BDFF86C1AA8
:102CF000898A884214D2DFF8640AC08BDFF85C1A34
:102D0000C98A88420CD2DFF8540A0078002802D021
:102D10005D4802F03BF96420DFF8401AC88136E0D4
:102D2000DFF8380A008ADFF8341A098B884221D18B
:102D3000DFF8280A408ADFF8241A498B884219D123
:102D4000DFF8180A808ADFF8141A898B884211D1BB
:102D5000DFF8080AC08ADFF8041AC98B884209D153
:102D6000DFF8F8090078002811D0DFF8F40902F044
:102D70000DF90CE0DFF8E4090078002802D04348A0
:102D800002F004F94FF4FA70DFF8D019C881DFF8C7
:102D9000CC09008ADFF8C4190883DFF8C009408A2B
:102DA000DFF8B8194883DFF8B409808ADFF8AC1976
:102DB0008883DFF8A809C08ADFF8A019C883FFF765
:102DC000A5FCDFF89809008A02F0F4F8DFF88C1906
:102DD0000886DFF888198887DFF88009408A02F0C2
:102DE00010F9DFF878194886DFF87019C887DFF81E
:102DF0006C09808A02F028F9DFF860190887DFF88B
:102E00005C19A1F84400DFF85409C08A02F033F9D4
:102E1000DFF848194887DFF84419A1F8460002F0A6
:102E2000CDF9DFF83809007800280FD0DFF82C0939
:102E3000408F0090DFF82409038FDFF82009428ECD
:102E4000DFF81809018E134802F0A0F80120DFF81E
:102E50000C1948710020DFF8041908710020DFF810
:102E6000FC1888810120DFF8F41808720020DFF8D0
:102E7000EC18C87201BD00005802002000000020BC
:102E8000AC6F0020080200205CF3020868F302081F
:102E90000018024018F002081FB578E1DFF8BC08FE
:102EA0000078002818D0DFF8B408B0F84E00019080
:102EB000DFF8A808B0F84C000090DFF8A008B0F8E0
:102EC0004A30DFF89808B0F84820DFF89008818988
:102ED000DFF8840802F05AF80020DFF88018487103
:102EE0000120DFF87818C8710020DFF87018087129
:102EF00043E1DFF86808007800281CD0DFF85C08A0
:102F0000B0F84E000290DFF85408B0F84C00019081
:102F1000DFF84808B0F84A000090DFF84008B0F841
:102F20004830DFF838088289DFF83008C17ADFF8E6
:102F3000340802F02BF8DFF824080079002800F0AC
:102F40009A80DFF81808408CDFF81018B1F84810A4
:102F500088423ED2DFF80408B0F84800DFF8FC17DA
:102F6000098C884235D2DFF8F407C08CDFF8EC1703
:102F7000B1F84A1088422CD2DFF8E007B0F84A00D6
:102F8000DFF8D817898C884223D2DFF8D007408D2C
:102F9000DFF8C817B1F84C1088421AD2DFF8BC0726
:102FA000B0F84C00DFF8B417098D884211D2DFF871
:102FB000AC07C08DDFF8A417B1F84E10884208D2D4
:102FC000DFF89807B0F84E00DFF89017898D884237
:102FD0001DD3DFF888070078002814D0DFF87C07BD
:102FE000B0F84E000090DFF87407B0F84C30DFF80E
:102FF0006C07B0F84A20DFF86407B0F84810DFF833
:10300000680701F0C3FF0020DFF850170871DFF8F0
:103010004C07B0F84800DFF84417B1F84C10C83935
:1030200088420ADBDFF83407B0F84A00DFF82C17D3
:10303000B1F84E10C83988421DDADFF82007007851
:10304000002814D0DFF81407B0F84E000090DFF825
:103050000C07B0F84C30DFF80407B0F84A20DFF86E
:10306000FC06B0F84810DFF8040701F08FFF0020DD
:10307000DFF8E8160871DFF8E406407900287CD014
:10308000DFF8D806C089DFF8D41689898842FFF4B2
:1030900005AFDFF8C806B0F84800DFF8C016498C65
:1030A00088426AD3DFF8B406008CDFF8B016B1F8B6
:1030B0004810884261D3DFF8A406B0F84A00DFF870
:1030C0009C16C98C884258D3DFF89006808CDFF8B4
:1030D0008C16B1F84A1088424FD3DFF88006B0F85A
:1030E0004C00DFF87816498D884246D3DFF86C062D
:1030F000008DDFF86816B1F84C1088423DD3DFF838
:103100005C06B0F84E00DFF85416C98D884234D3FF
:10311000DFF84806808DDFF84416B1F84E1088427B
:103120002BD3DFF838060078002818D0DFF82C06FB
:10313000B0F84E000190DFF82406B0F84C00009083
:10314000DFF81806B0F84A30DFF81006B0F848206B
:10315000DFF808068189DFF8180601F017FF002064
:10316000DFF8F81548710120DFF8F015C87100206C
:10317000DFF8E8150871FFF763FA03A8019008204B
:103180000090052300220021002002F0D1F9DFF891
:10319000CC05C07900283FF4CEAEDFF8C005C07A78
:1031A000401CDFF8B815C872DFF8B005C07A3228C5
:1031B0003FDBDFF8A8050078002803D0DFF8B4056E
:1031C00001F0E4FEDFF89405007800281CD0DFF859
:1031D0008C05B0F84E000290DFF88005B0F84C0086
:1031E0000190DFF87805B0F84A000090DFF86C0530
:1031F000B0F84830DFF864058289DFF86005C17AED
:10320000DFF8740501F0C2FE0020DFF85015888158
:103210000020DFF8481508723320DFF84015C87227
:103220000020DFF83815C8710120DFF8301508716B
:1032300081E6DFF82805B0F84800DFF82015098A94
:10324000401A02F06DFA0B2873DBDFF81005B0F9B5
:103250004800DFF80815B1F91040041BDFF8FC0442
:10326000007800280CD0DFF8F404038ADFF8EC04BF
:10327000B0F84820210009B2DFF8000501F086FE11
:10328000200000B2012829DBDFF8D004808F143041
:10329000B0F5805F05DB40F6FF70DFF8C01488876B
:1032A00012E0200000B21F2807DBDFF8B004808F97
:1032B0000A30DFF8A814888706E0DFF8A004808FC2
:1032C000401DDFF898148887DFF89004818F002074
:1032D00002F001F80121002001F0E5FF200000B21A
:1032E000002826D5DFF87404808F142804DA002023
:1032F000DFF86814888712E024B214F11E0F07DA91
:10330000DFF85804808F0A38DFF85014888706E009
:10331000DFF84804808F401FDFF840148887DFF80B
:103320003C04818F002001F0D6FF0121002001F034
:10333000BAFFDFF82804B0F84A00DFF82014498A01
:10334000401A02F0EDF90B2874DBDFF81004B0F935
:103350004A00DFF80814B1F91240041BDFF8FC033F
:10336000007800280CD0DFF8F403438ADFF8EC0380
:10337000B0F84A20210009B2DFF8040401F006FE8B
:10338000200000B2012829DBDFF8D003C08FC01C69
:10339000B0F5807F04DBFF20DFF8C013C88712E0A0
:1033A000200000B21F2807DBDFF8B003C08F801CAD
:1033B000DFF8A813C88706E0DFF8A003C08F401C21
:1033C000DFF89813C887DFF89403B0F84210C9B249
:1033D000DFF88803C08FC0B201F0A7FF200000B261
:1033E000002827D5DFF87403C08F032804DA0020F3
:1033F000DFF86813C88712E024B214F11E0F07DA51
:10340000DFF85803C08F801EDFF85013C88706E02E
:10341000DFF84803C08F401EDFF84013C887DFF88D
:103420003C03B0F84210C9B2DFF83003C08FC0B21D
:1034300001F07BFFDFF824034078002800F00481CE
:10344000DFF81803B0F84C00DFF81013898A401A2F
:1034500002F066F90B2870DBDFF80003B0F94C00CE
:10346000DFF8F812B1F91440041BBC4800780028BA
:103470000AD0BA48838AB948B0F84C20210009B272
:10348000DFF8000301F082FD200000B2012829DBF3
:10349000B248B0F840001430B0F5805F05DB40F66C
:1034A000FF70AE49A1F8400012E0200000B21F28D2
:1034B00007DBAA48B0F840000A30A849A1F840004C
:1034C00006E0A648B0F84000401DA449A1F840001D
:1034D000A248B0F84010002001F00BFF012110209D
:1034E00001F0E1FE200000B2002826D59B48B0F88C
:1034F0004000142804DA00209849A1F8400012E0A6
:1035000024B214F11E0F07DA9448B0F840000A38CC
:103510009249A1F8400006E09048B0F84000401FF2
:103520008E49A1F840008D48B0F84010002001F00D
:10353000E0FE0121102001F0B6FE8848B0F84E00F0
:103540008649C98A401A02F0EBF80B286ADB8348E7
:10355000B0F94E008149B1F91640041B7F4800784C
:10356000002809D07D48C38A7C48B0F84E2021004D
:1035700009B2854801F00AFD200000B2012827DBCE
:103580007648B0F84200C01CB0F5807F04DBFF2015
:103590007249A1F8420012E0200000B21F2807DBA8
:1035A0006E48B0F84200801C6C49A1F8420006E069
:1035B0006A48B0F84200401C6849A1F842006748D8
:1035C000B0F84210C9B26548C08FC0B201F0ADFE7C
:1035D000200000B2002825D56048B0F8420003283A
:1035E00004DA00205D49A1F8420012E024B214F18F
:1035F0001E0F07DA5948B0F84200801E5749A1F85B
:10360000420006E05548B0F84200401E5349A1F878
:1036100042005248B0F84210C9B25048C08FC0B200
:1036200001F083FE4D48007800280DD04B48B0F8DB
:10363000420000904948B0F840304848C28F47489F
:10364000818F524801F0A2FC03A80190082000904D
:10365000502300220021002001F06AFF3F48B0F80B
:1036600048003E49498C8842FFF443AC3B48008CFB
:103670003A49B1F848108842FFF43BAC3748B0F8FB
:103680004A003649C98C8842FFF433AC3348808CF9
:103690003249B1F84A108842FFF42BAC2F48B0F8F9
:1036A0004C002E49498D8842FFF423AC2B48008DF5
:1036B0002A49B1F84C108842FFF41BAC2748B0F8F7
:1036C0004E002649C98D8842FFF413AC2348808DF3
:1036D0002249B1F84E108842FFF40BACFEF7B0FF60
:1036E0001E48007800283FF426AC1C48B0F84E0075
:1036F00002901A48B0F84C0001901848B0F84A00FF
:1037000000901648B0F84830144882891348C17AAE
:103710001F4801F03BFC0EE480B58AB009A8089070
:1037200003200790002006900020059000200490C0
:103730004FF4806003906620029016480190142098
:1037400000900023144A1549154801F0EDFF0BB015
:1037500000BD000038F0020898EC020800000020CC
:10376000ACF2020848EC020848ED0208ACF002088E
:10377000D4EC0208FCF1020860EA020808EB020837
:1037800058EB0208A8EB0208F8EB02085CE9020813
:10379000B4EA020898020020992E0208BCF202083E
:1037A000FC62002000220368514A13400A68134358
:1037B000CA6813434A6913438A691343CA691343A6
:1037C0000A6A13434A6A13438A6A13434A6B1343D0
:1037D0008A6B134303604369DB08DB00CA6A134347
:1037E0000A6B134343610A6942604A6882608968D0
:1037F000C1607047C9B2002904D0016851F00101CD
:10380000016003E00168490849000160704789B21E
:1038100041607047406880B27047344A904201D29C
:10382000344A00E0344A880003D534480140D1606E
:1038300002E032480140916070470B060CD513003E
:10384000DBB2002B04D0436953F08003436103E0F3
:10385000436933F08003436180290ED0D2B2002A3D
:1038600005D0026811F01E011143016005E00268F5
:1038700011F01E0132EA01010160704700220022AE
:1038800000221A4A904201D21A4B00E01A4B1C4AFD
:10389000114206D00A00D20A12F01E02006802404D
:1038A00002E0426912F08002880001D55B6800E006
:1038B0001B68124803400B4203D0002A01D00120AC
:1038C00000E00020C0B27047084A904201D2094A85
:1038D00000E0094A880003D508480140D16002E0B1
:1038E00006480140916070470000000010640240EB
:1038F0003F801CF000600240006402407D0F7D0F9D
:103900003C0F3C0F0021DFF8A02111700021DFF8EF
:1039100098211170C0B2012802D0042805D009E016
:103920000120DFF88411087004E00520DFF8781129
:103930000870FFE7704700210021002102210021CB
:103940000221DFF85C11096811F00C01002904D094
:10395000042906D0082908D033E0DFF850110160AF
:1039600032E0DFF84C1101602EE0DFF83811096811
:10397000C1F38051DFF82C21126812F03F020029B8
:103980000AD0DFF82C11B1FBF2F2DFF81811096848
:10399000C1F388114A4309E0DFF81011B1FBF2F2DC
:1039A000DFF800110968C1F388114A43DFF8F41009
:1039B0000968C1F30141491C4900B2FBF1F1016002
:1039C00002E0DFF8E8100160DFF8D410096811F0B8
:1039D000F0010909DFF8DC20515C0268CA4042604E
:1039E000DFF8BC10096811F4E051890ADFF8C4203F
:1039F000515C4268CA408260DFF8A410096811F483
:103A00006041490BDFF8AC20515C4268CA40C2609B
:103A10007047C9B2002907D0DFF89C100968084335
:103A2000DFF89410086007E0DFF88C10096831EACD
:103A30000000DFF8841008607047C9B2002907D081
:103A4000DFF8781009680843DFF87010086005E0B7
:103A50001A49096831EA0000184908607047C9B27C
:103A6000002905D01649096808431549086005E092
:103A70001349096831EA0000114908607047C9B26A
:103A8000002905D00F49096808430E49086005E080
:103A90000C49096831EA00000A49086070470000D3
:103AA0000838024004380240703802400024F40014
:103AB00000127A00300200203038024034380240D0
:103AC00040380240443802402549084325490860EF
:103AD0007047002100210F23C17800291FD0214900
:103AE000096811F4E061D1F5E061090AD1F104023D
:103AF000DBB20B41417811FA02F281780B401A4394
:103B0000120119490378CA540121027812F01F02E8
:103B10009140164A0078401142F8201009E0012136
:103B2000027812F01F029140114A0078401142F8C9
:103B3000201070470F4A114008430F490860704732
:103B4000042806D10D48006850F004000B490860B5
:103B500005E00A48006830F0040008490860704732
:103B60000000FA050CED00E000E400E000E100E0F8
:103B700080E100E080FFFF1F08ED00E010E000E0C2
:103B800010B5040002F0ADFC0020DFF84818087002
:103B90000020DFF8441808700020DFF8681808706B
:103BA0000020DFF8641808600020DFF86018086063
:103BB0000020DFF85C1808700020DFF85818087043
:103BC0000020DFF8901808700020DFF88C180860DB
:103BD0000020DFF8881808600020DFF884180860EB
:103BE0000020DFF880180870DFF87C0800680A21E0
:103BF000B0FBF1F0DFF8AC180860DFF8AC08006843
:103C000000280ED0DFF8A4080168002909D0DFF8E9
:103C10009808006803E0401E00220A60091D002881
:103C2000F9D10020DFF8881808600020DFF8841838
:103C300008600020DFF8801808600020DFF87C189A
:103C400008600020DFF8781808600020DFF874189A
:103C500008600020DFF8701808600020DFF888197D
:103C6000087002F013FD00F0A0FB200002F058FDE8
:103C70002088002845D1200002F046FE2088002838
:103C80003FD1200002F04EFE2088002839D12000CC
:103C900003F06CF92088002833D1200003F082F96A
:103CA000208800282DD1200003F0FEF9208800286C
:103CB00027D1200002F0D2F82088002821D120004E
:103CC00003F0C0FB208800281BD1200000F0ADF9D4
:103CD0002088002815D1200003F0B2FC208800289D
:103CE0000FD1200004F0DAF82088002809D1200044
:103CF00004F046FA2088002803D104F051FB04F0B8
:103D000023FC10BDDFF8D006007801280BD1DFF8C6
:103D1000C4060078FA2806DADFF8B8060078401CF6
:103D2000DFF8B0160870704710B50020DFF8A8065D
:103D30000078012857D104F07BFC0400DFF89406DA
:103D40000078002803D1200004F076FC4BE0DFF877
:103D500084060078401EDFF87C160870DFF87406D1
:103D60000078002803D0200004F066FC3BE0DFF878
:103D700094060078002803D0200004F05DFC32E0B7
:103D800002F08EFCDFF88C160870DFF86018DFF8A0
:103D9000840602780C2042438858DFF870160860C9
:103DA000DFF868060068DFF860160968884203D10A
:103DB000200004F041FC16E0DFF850060068D0F85F
:103DC0008C00401CDFF844160968C1F88C00DFF84D
:103DD000D4080068401CDFF8CC18086004F051FCDF
:103DE000200004F029FC10BD10B50020DFF8E40528
:103DF000007800283AD1DFF80C060078002835D189
:103E000004F016FC040002F04BFCDFF80816087002
:103E1000DFF8D817DFF8FC0502780C2042438858F9
:103E2000DFF8E8150860DFF8E4050068DFF8D8156A
:103E30000968884203D1200004F0FEFB16E0DFF899
:103E4000CC050068D0F88C00401CDFF8C01509686C
:103E5000C1F88C00DFF84C080068401CDFF84418FB
:103E6000086004F00AFC200004F0E6FB10BD38B541
:103E700004000020DFF85C050078002803D046F637
:103E80006250208022E0DFF850050078012803D03E
:103E900045F68960208019E0DFF80C080078FA28E0
:103EA00003DB45F20920208010E004F0C1FB05008F
:103EB000DFF8F4070078401CDFF8EC17087000F01A
:103EC00072FB280004F0B8FB0020208031BD38B51B
:103ED00004000020DFF8FC040078002803D046F638
:103EE0006550208030E0DFF8F0040078012803D02E
:103EF00045F68960208027E0DFF8AC0700780028CD
:103F000003D146F6645020801EE004F091FB0500CA
:103F1000DFF894070078401EDFF88C170870DFF890
:103F200088070078002806D0280004F085FB46F6B4
:103F30006350208008E000F040FB280004F07CFB88
:103F4000FFF752FF0020208031BD70B506000C0045
:103F50001500002004F06CFBF6B2012E04D0002105
:103F6000DFF80025117003E00121DFF8F82411705B
:103F7000002C03D0DFF82C150C6008E0DFF8E81403
:103F800009680A22B1FBF2F1DFF81825116004F08C
:103F900053FB0020288070BD10B50400DFF8380402
:103FA0000078002825D102F07BFBDFF86814087048
:103FB000DFF860040078DFF858140870DFF82C167A
:103FC000DFF8500402780C2042438858DFF83C1494
:103FD0000860DFF838040068DFF82C14086001205E
:103FE000DFF8F413087004F039FB43F699202080C1
:103FF00002E045F68A60208010BD80B5002068464A
:1040000004F016FBDFF8A4160968491CDFF89C26AB
:104010001160DFF89C160968491CDFF894261160CE
:1040200004F00AFB02F054FAEAE700B589B0002177
:10403000DFF87826116008900B200790002006908A
:104040000020059000200490DFF8680600680390C7
:10405000DFF8640600680290DFF8600600680190EF
:104060003F2000900023DFF85826DFF85816DFF8CD
:10407000580601F059FB09B000BD70B505000C00F1
:10408000DFF88403006880F834200020DFF878131C
:10409000096881F835001900DFF86C03006800F04A
:1040A000ECFA002C0ED014F10806EC600122290075
:1040B000DFF85403006800F016F82900300000F023
:1040C00083F809E00020DFF840130968C887002062
:1040D000DFF8341309680863DFF82C030168200057
:1040E00000F01DF870BD30B4C287016300230EE0FC
:1040F00000244C6000240C6000240C6100244C61FE
:1041000000240C830024CC61886020315B1C1C00DF
:104110001500A4B2ADB2AC42EAD330BC704700285F
:1041200009D04268C1F8BC2010F10801096889680B
:10413000096AC16113E091F83400022802D007280F
:1041400005D009E0DFF88405C1F8BC0007E0DFF81E
:104150008005C1F8BC0002E009A0C1F8BC007047AE
:1041600007A2C1F8BC2010F108010968002903D09A
:104170008968096AC16101E001A1C161704700005D
:104180002000000070B580F83710056BC48F0FE079
:10419000E86810F108063089022807D329003000AA
:1041A00000F060F82900300000F00EF82035641EA1
:1041B000200080B20028EBD170BD002101600021F9
:1041C000416000210181704730B40200886890F896
:1041D00037301089002808D1012010810020486064
:1041E000002008601160516025E01089401C10819A
:1041F000106800E04068002806D084681D0094F82C
:104200003740EDB2A542F5D2002806D10020486023
:1042100050680860416051600DE00368002B05D1D3
:10422000016000230B604860116004E002680A60CE
:1042300048605160016030BC704770B50400266B67
:10424000E58F06E0F0680830310000F00BF820360A
:104250006D1E280080B20028F4D10020E0870020E5
:10426000206370BD0289012A04D10022026000226D
:10427000426013E00A68002A04D14A6800231360F0
:1042800002600BE04A68002A04D10A6800235360E8
:10429000426003E00A684B6853601A600289521E4C
:1042A00002810020486000200860704738B5040093
:1042B0000D00049895F8361000290BD002290AD079
:1042C00008D3042906D006D3062930D002D3072903
:1042D0002DD055E054E095F83410032906D1009014
:1042E0009BB22900200000F04CF803E0AA65A5F875
:1042F0005C302864002C06D02800FFF79EFF2900C0
:104300002000FFF72DFF95F83600032802D1280082
:1043100003F092FA280000F061F8002085F83600DA
:10432000002085F83500002085F8340028E095F855
:104330003410032906D100909BB22900200000F020
:1043400020F803E0AA65A5F85C302864002C06D0AC
:104350002800FFF772FF29002000FFF701FF95F802
:104360003600072802D1280003F066FA042085F8F9
:104370003600002085F83500002085F83400FFE77E
:1043800031BD30B40D6BCC8F01E02035641E2100AF
:1043900089B2002907D0E9688842F6D102992861DC
:1043A0006A612B83E96130BC704700210DE08F4AC0
:1043B0000B00DBB20C20434302EB0300002202811E
:1043C0000022026000224260491C0800C0B240285E
:1043D000EDD37047C1710020C271002010B50400F8
:1043E00094F8370002F06CF994F83700084909781E
:1043F000884203D1200000F039F802E0200000F0EC
:104400000BF810BDC6710020647100206871002097
:10441000C3710020C4710020744A90F837300C2119
:104420004B431A441189002908D10121118100212F
:10443000C160002101611060506009E01189491CD0
:1044400011811168C160002101611168086110606B
:1044500070470000C5710020187100201C710020F9
:1044600020710020C7710020F0F302085F4A90F825
:1044700037300C214B431A441189002908D10121FE
:1044800011810021C160002101611060506008E0CD
:104490001189491C11810021C16051680161C86006
:1044A0005060704724710020C8F30208C4F302086A
:1044B000DC700020E0700020E4700020E870002034
:1044C000EC700020F0700020F470002010B401891E
:1044D000002902D0022901D00BD215E00168426800
:1044E0000A610023CB6000231361D1600260416048
:1044F0000AE001684268CB6800241C610024CC609B
:104500000A61D1600360416010BC704710B50400BF
:10451000364994F837200C2042430A442169E06868
:10452000002913D100280AD100201081002010603A
:104530000020506094F8370002F0D8F80FE011899D
:10454000491E118100210161106008E013895B1E82
:104550001381C860002801D1516000E00161002092
:1045600020610020E06010BD10B5002004F060F86C
:1045700004000020574908705748584908605748B8
:104580000068D0F88C00401C54490968C1F88C00C0
:1045900044480068401C4349086004F06EF820005D
:1045A00004F04AF810BD80B53F480078012803D1D7
:1045B00004F0BAF84A49086001BD80B53A4800786D
:1045C000002810D104F0B0F845490968411A45485F
:1045D0000068884201D2434801604348006888422D
:1045E00001D24148016001BDCA710020CC4E0020BB
:1045F00038B5040000203D48007801283CD104F083
:1046000017F805002168002903D1280004F014F8E8
:1046100032E02D48814203D1280004F00DF82BE050
:10462000486D002802D0486D401E4865486D00283E
:1046300003D0280004F000F81EE02089022803DAE5
:10464000280003F0F9FF17E017480078002803D08E
:10465000280003F0F1FF0FE02000FFF737FF21688B
:10466000086D002803D122480068486501E0086D04
:104670004865280003F0E0FF31BD10B504000A00D2
:10468000002A07D021001B4803F03AF8032084F8E1
:10469000360002E0022084F836002000FFF736FFE3
:1046A00010BD00003C710020C6710020F870002091
:1046B0002C710020A4F30208A0F302089CF3020866
:1046C000FB3F020838F20208BC6900208CF30208A4
:1046D00074F30208C47100207C6A00206871002015
:1046E000187100201C71002020710020C77100206B
:1046F00024710020C470002010B4002200234468FC
:104700006B4A14400A7954EA02240A68144344604C
:104710008468684A14400A691443CA6814438A6862
:1047200014434A7954EA42048460C26A32F4700243
:10473000097D491E0B43DBB252EA0352C26210BC30
:10474000704700215C490A685C490A4001680A43D5
:1047500041680A4381680A43C068024356480260C0
:104760007047C9B2002904D0816851F0010181600D
:1047700003E081684908490081607047C0B20028A1
:1047800006D04D48006850F400004B49086005E031
:104790004948006830F40000474908607047F0B4A9
:1047A000002400240C00E4B20A2C13DBC5680726A1
:1047B000B1F10A04032714FB07F416FA04F4A54325
:1047C000DBB2B1F10A04032614FB06F4A3402B4329
:1047D000C3600EE005690726032411FB04F416FAF2
:1047E00004F4A543DBB2032411FB04F4A3402B43E0
:1047F00003611300DBB2072B11DA436B1F25541E34
:10480000052614FB06F415FA04F4A343C9B2521E9C
:10481000052412FB04F291401943416327E0130081
:10482000DBB20D2B11DA036B1F25D41F052614FBF9
:1048300006F415FA04F4A343C9B2D21F052412FBEF
:1048400004F291401943016311E0C36A1F25B2F1DC
:104850000D04052614FB06F415FA04F4A343C9B2AB
:104860000D3A052412FB04F291401943C162F0BCD9
:104870007047816851F0804181607047C9B200295A
:1048800004D0816851F48071816003E0816831F463
:10489000807181607047C9B2002904D0816851F4E9
:1048A0000071816003E0816831F4007181607047BC
:1048B000FFFEFFFCFDF7FFC004230140E030FCFFDA
:1048C00050B1B0FA80F18840C91CC1F58461090576
:1048D00001EBD021400570470146704730B540F2EA
:1048E000FF7C1CEA11541DBF1CEA13556445654545
:1048F0003FE0641981EA030C6FF35F530CF0004C46
:1049000043F48013C90241F0004141EA505EC50200
:104910001100A5FB020200284FF00000EEFB012071
:104920004FF00001E3FB052118BF42F001024018DF
:1049300000214941E3FB0E01A4F580640D0302D27E
:1049400092184041494154F1010470DD450872F16B
:10495000004250F1000051EB0451A1F5801102D446
:1049600041EA0C0130BD40F2FF7E4CEA0E510020BE
:1049700030BD0CEA1355644518BF654581EA030C48
:104980000CF0004C41D050EA410E1CBF52EA430EDD
:1049900002E06146002030BD24422C441BD15FEA76
:1049A000050EF6D0090302BF01460020AEF1140E39
:1049B000B1FA81F5AEEB050401FA05FE0C35C5F13F
:1049C000200100FA05F5C8404EEA000E6FF35F5370
:1049D00043F480139CE733F00043B3FA83F504BF3C
:1049E000B2FA82FE75440B3D641BB5F1200E2FBF59
:1049F00002FA0EF3AB40C5F1200E22FA0EFE38BFCC
:104A000043EA0E03AA40641C7CE750EA410E14BF3F
:104A100052EA430E6FF000014FF4001515EB430FFF
:104A20008EBF194615EB410F9DE7B4D830BDD4F1C8
:104A30000104B4F120050FDAC4F12005520828BFA3
:104A400042F0010210FA05FE01FA05F57244E2BFD8
:104A5000E0402843E1400FE0352C9ADCC5F120040A
:104A600052EA400220FA05F218BF42F0010231FA80
:104A700005F0A1400A43002172F1004250F100000C
:104A800051EB0C0130BD6400F0B540F2FF7581EAD6
:104A9000030C0CF0004C15EA11541DBF15EA135716
:104AA000AC42AF42E5E0BC41C1F31301C3F31303D1
:104AB000801A994143F4801304D2641E00184941BE
:104AC00080185941C90241EA5051B1FBF3F603FB8A
:104AD0001611A2FB0675D7EBC020A94102D2761EA3
:104AE00080185941C90241EA5051B1FBF3FE03FB62
:104AF0001E11A2FB0E75D7EBC020A94103D2AEF167
:104B0000010E80185941890241EA9051760546EA22
:104B10008E2EB1FBF3F603FB1611A2FB0675D7EB45
:104B20008020A94102D2761E80185941C90241EA6B
:104B300050514EEA060EB1FBF3F603FB1611A2FB31
:104B40000675D7EBC020A94102D2761E80185941C4
:104B5000C90241EA5051B1FBF3F703FB1711A2FB65
:104B60000735D3EBC020A94167F100070CBF004215
:104B700047F0010766F3D5274FEA1E31B80814F550
:104B8000806412DDBD0775F1004250EB0E5051EB11
:104B9000045111F5801F5CBF41EA0C01F0BD4CF0DF
:104BA0007F6141F0E0410020F0BDBD076D0840EAA3
:104BB0000E5041F48011D4F10104B4F120060ADA58
:104BC000C4F120060200E04001FA06F3E140184378
:104BD000B24015430EE0342C13DCC6F1200445EA44
:104BE00040056D0820FA06F2154321FA06F0A140AF
:104BF0000D43002175F1004250F1000051EB0C0112
:104C0000F0BD00205FEA0C01F0BDCFB992185B4106
:104C1000B3FA83F704BFB2FA82F6BF190B3FB7F1BC
:104C200020062FBF02FA06F3BB40C7F1200622FA86
:104C300006F638BF3343BA401CB1E419641E33E7AB
:104C40007F4231F00041B1FA81F404BFB0FA80F63E
:104C5000A4190B3CB4F120062FBF00FA06F1A140C5
:104C6000C4F1200620FA06F638BF3143A0403C1BB1
:104C70001AE7AC421ABF05EA1357AF4212E050EAF6
:104C800041061CBF52EA4306BFE750EA41073046DF
:104C900061461CBF41EA0551F0BD52EA430C08BF12
:104CA000C143F0BD00204FF4001616EB410F98BF32
:104CB00016EB430F08BF16EB410F24BFC14305E0BD
:104CC00016EB430F0CBF61464CEA0551F0BD2800BE
:104CD000400D40F21E4C40EAC120BCEB115C40F09C
:104CE000004003D48CF30701C84070476FEAE170BD
:104CF0007047040070B491EA030F4FF0004540F193
:104D0000BF806B40841A71EB030604D26E40001B17
:104D1000B141121973414FF4001C1CEB410F34BF19
:104D20007CEB430683E00C0DA4EB1356362E00F308
:104D30007C80012E45EAC32341DC43EA525312BF73
:104D4000D20292025B08240545EAC12141EA505192
:104D5000D2EBC020994125D407D1B0FA80F610FAE1
:104D600006F162D00020203608E0B1FA81F6B140A9
:104D7000C6F1200220FA02F21143B0404FEAF47467
:104D8000B4EB465434F001064FEA74040AD8D6F561
:104D90000016760D04F00044F04061FA06F250402F
:104DA000F1404840C00A40EA415021F0004128BF8C
:104DB0005FEA500550F1000044EBD12135E0DB0AF9
:104DC00045EAC121C90AB6F120050EDD42EA0242D8
:104DD000120CC5F1200603FA06F6EB4042EA06057E
:104DE0006D42984161F100010DE062FA06F5F24072
:104DF000554063FA06FC82EA0C02F3405A406D42C9
:104E0000904161EB030111F4801F05D1641E62051E
:104E100002D06D004041494121F48011430875F1F1
:104E2000004350F1000041EB045170BC70471CEB93
:104E3000410F15D223F0004352EA43060BD04FEA4C
:104E40004C0CBCEB410F04D80C0D661E342EB7DDA4
:104E5000EBE7801A994150EA410608BF0021E4E7D8
:104E600008BF1CEB430F28BF6FF00001DDE7000017
:104E700070B491EA030F4FF000457FF543AF6B40EC
:104E8000841A71EB030603D2001BB141121973415E
:104E90004FF4001C1CEB410F34BF7CEB430442E099
:104EA0000C0DA4EB1356352E4FDC45EAC323DB0A69
:104EB00045EAC121C912B6F120050DDD63FA05F6F8
:104EC000EB4086EA0305124218BF45F00105C01801
:104ED00051F100010CD213E062FA06F5F2405540A0
:104EE000F3415A40B340F3405A408018594107D328
:104EF00049085FEA30005FEA350528BF45F0010543
:104F000001F58011420875F1004250F1000041EBBB
:104F100004514E0016F5001F70BC38BF70470020CA
:104F2000090D090570471CEB410F10D252EA4306E8
:104F30000BD0BCEB410F05D80C0DAB43661E342ED5
:104F4000B6DD02E0AB438018594170BC704770BCBD
:104F500070472000C1F30A5340F21E42D31A0CDD01
:104F6000CA0283F3070342EA505242F00042DA4099
:104F700002EBE17282EAE17070476FEAE17203F2DC
:104F8000E13008B182F00040704720000EB4C0B597
:104F9000024603A800210190009101AB01210448C1
:104FA00078440C3003F0D6FB06BC5DF810FB00BF64
:104FB00015A2000080B580B2FFF782FC00228F4B63
:104FC000FFF762FD8E4A8F4BFFF75EFD02000B007C
:104FD0008D488E49FFF74CFF03F04CFC03F07EFC3C
:104FE0005FF066328A4BFFF74FFD0022894BFFF7D7
:104FF00075FC0022884BFFF77DFEFFF7ABFF80B208
:1050000002BD80B580B2FFF75BFC844A844BFFF79A
:1050100065FC0022794BFFF737FD02000B00814849
:105020008149FFF725FF03F025FC5FF08B4103F07A
:1050300079FC03F053FC7D4A7D4BFFF725FDFFF71C
:1050400089FF001180B202BD80B580B2FFF738FC45
:105050005FF06632774BFFF741FC0022674BFFF7AA
:1050600013FD02000B0000207349FFF701FFFFF75B
:1050700071FF80B202BD80B580B2FFF721FC5FF006
:1050800033326E4BFFF72AFC00225C4BFFF7FCFC2F
:1050900002000B0000206A49FFF7EAFEFFF75AFF03
:1050A00080B202BD80B580B2FFF784FF65490886F3
:1050B000644988876348018E002000F00CF90121C3
:1050C000002000F0F0F801BD80B580B2FFF772FF5C
:1050D0005C4988865B49A1F840005A48818E0020CF
:1050E00000F007F90121102000F0DDF801BD10B536
:1050F0000C0080B2FFF785FF524948865149C887A6
:10510000200080B2FFF77DFF4E49C8864D49A1F8C7
:1051100042004C48C18EC9B24A48408EC0B200F02D
:1051200004F910BD10B50C0080B2FFF78DFF4549A2
:1051300008874449A1F84400200080B2FFF79BFF94
:10514000404948873F49A1F846003E48418FC9B2CF
:105150003C48008FC0B200F035F910BD80B540F674
:105160008C21002000F0B7F80121002000F09BF80E
:1051700040F68C21002000F0BCF80121102000F046
:1051800092F8FF21FF2000F0D0F801BD80B5FF218B
:10519000FF2000F017F901BD80B5FFF7DFFFFA210E
:1051A000FA20FFF7BFFF4FF400412748FDF714FA3C
:1051B0004FF480412448FDF70FFA01BD80B54FF44C
:1051C00000412148FDF70AFA4FF480411E48FDF7DF
:1051D00003FA1C48008AFFF765FF40F68C20FFF7B2
:1051E00073FFFF211748408AFFF781FF1548C18AE6
:1051F0001448808AFFF796FF01BD00000000594067
:105200009A99999999994540F853E3A59BC4004010
:1052100066660A4000FEAF400000E03F5A643BDF94
:105220004F8D973F62105839B4C80040FCA9F1D2A5
:105230004D62004066663C400070714033333D4033
:1052400000E07340000000200018024010B400226B
:1052500000222F4A136840F6FE72824093430C6886
:105260004A6814438A681443C9680C4314FA00F06E
:1052700018432749086010BC7047C9B2002908D0FC
:1052800023490968012212FA00F008432049086006
:1052900008E01F490968012212FA00F031EA000013
:1052A0001B4908607047C9B2002909D0194909682B
:1052B0000122000912FA00F008431649086009E0CB
:1052C000144909680122000912FA00F031EA0000CD
:1052D00010490860704781B0002200920C4A009289
:1052E000009A80180830009089B20098016001B0DF
:1052F000704781B000220092054A0092009A8018FF
:105300001430009089B20098016001B0704700002D
:10531000007400400474004080B5002302224FF462
:1053200000614F4803F06AFB01BD38B504000D0071
:105330004FF400514B48FDF751F949F2010148483B
:1053400003F0C8FB4FF47A6003F077FD4FF400518F
:105350004448FDF741F94FF4FA6003F06EFD4FF455
:1053600000514048FDF73AF9EDB22D0155F4805552
:10537000290089B23A4803F0ADFB4FF47A6003F09C
:105380005CFD4FF400513748FDF726F94FF4FA6001
:1053900003F053FD4FF400513248FDF71FF9E4B21A
:1053A000240154F40044210089B22D4803F092FBFB
:1053B0004FF47A6003F041FD4FF400512948FDF7A6
:1053C0000BF931BD38B504000D004FF4804125487C
:1053D000FDF704F949F20101214803F07BFB4FF48A
:1053E0007A6003F02AFD4FF480411E48FDF7F4F87F
:1053F0004FF4FA6003F021FD4FF480411948FDF7A6
:10540000EDF8EDB22D0155F48055290089B214480C
:1054100003F060FB4FF47A6003F00FFD4FF480411E
:105420001048FDF7D9F84FF4FA6003F006FD4FF489
:1054300080410C48FDF7D2F8E4B2240154F4004452
:10544000210089B2064803F045FB4FF47A6003F06F
:10545000F4FC4FF480410348FDF7BEF831BD000075
:10546000003C00400004024070B504000E0015002E
:105470000020DFF890020078002803D047F2752062
:10548000288054E0DFF880020078002803D046F638
:10549000635028804BE0300080B2002805D00228FD
:1054A00003D004282AD0082829D1002C03D147F2A0
:1054B0007E2028803BE003F0BBF8DFF84C1209782F
:1054C000491CDFF84422117003F0B6F82B003200BB
:1054D00092B22100DFF83402006802F057F9288800
:1054E000002810D003F0A4F8DFF81C120978491E38
:1054F000DFF81422117003F09FF818E0DBE745F69F
:105500002560288013E0DFF804020068FEF7FEFF44
:1055100003F08EF8DFF8F0110978491EDFF8E82172
:10552000117003F089F8FEF75FFC0020288070BD41
:10553000F8B50E00079C0021DFF8C8110978002992
:1055400003D047F275202080C1E0DFF8BC11097854
:10555000002903D046F663502080B8E0069911F088
:105560000E073D00ADB2002D05D0022D03D0042D55
:1055700019D0082D18D1002B0FD11500ADB2002D78
:105580000BD13500ADB2002D07D10500ADB2002D15
:1055900003D147F27E20208099E04FF6E175294241
:1055A00006D1002505E0F8E745F6256020808EE06D
:1055B0000125EDB2012D03D145F62560208086E05E
:1055C000C9B2090911F00101C9B201291ED0B3F510
:1055D0007A7F03D347F27B20208078E0110089B2E4
:1055E0003C2903DB47F27A20208070E0310089B249
:1055F0003C2903DB47F27920208068E0010089B272
:10560000642916DB47F27820208060E0310089B2FF
:1056100042F21075A94203DB47F27920208056E060
:10562000010089B2B1F57A7F03DB47F27820208050
:105630004DE037490D6880B24FF4616CB6B23C2141
:105640004E430CFB006010FA82F14FF4FA70B0FB8D
:10565000F5F0C31803FB05F34FF47A70B3FBF0F0D9
:1056600005FB0105002D2FD002F0E2FF2649097845
:10567000491C254A117002F0DFFF23003A0092B264
:1056800029002248006802F081F82088002809D00B
:1056900002F0CEFF1C490978491E1B4A117002F026
:1056A000CBFF14E019480068FEF730FF02F0C0FF9E
:1056B00015490978491E144A117002F0BDFFFEF722
:1056C00093FB0020208002E047F27E202080F1BD85
:1056D00018B585B000F0B5FF03F026F804A90391D2
:1056E0000290002001900020009000230022094930
:1056F000094804780C2044432144084801F03CFD4B
:1057000006B010BDC1710020C67100206471002078
:10571000F0F30208CC4E0020C37100205449434BE3
:10572000002848BF404270472DE9F34F83B09846A8
:10573000DDF858900021DFF890150978002904D091
:1057400047F24A10A9F80000F3E00400002C04D14D
:1057500047F2AD10A9F80000EBE002920298002891
:1057600004D147F24F10A9F80000E2E00F9D002D90
:1057700004D146F62F60A9F80000DAE0DDF844B065
:10578000DFF8F4050068834504D246F63060A9F8D6
:105790000000CEE0DDF840A0DA4504D346F63160E3
:1057A000A9F80000C5E00E9E3000C0B2402804D326
:1057B00046F27320A9F80000BBE03000C0B2002818
:1057C00008D1DFF80806844204D046F27320A9F815
:1057D0000000AEE03000C0B23F2808D1DFF8F0058D
:1057E000844204D046F27320A9F80000A1E0159F7E
:1057F000200000F047FB0020A9F80000F8070AD5B8
:10580000B80708D52900002003E000220A60091D1E
:10581000401C5845F9D3DDF84C9005EB8A0A380056
:1058200080B20190CDF800B053462A00414602985C
:1058300000F08AFE0299A162C4F82C8004992162CA
:1058400084F837602060C4F808A0C4F85090B9F11B
:10585000000F04D1DFF8B4050068606501E0C4F80A
:105860005490149860606562C4F838B0A78700202F
:1058700006E000210200D2B204EB82029167401CD4
:105880000100C9B20029F4D0129989B214F1600064
:1058900001F0AFF8200000F03CFE02F0C9FEDFF896
:1058A00030140978491CDFF82824117002F0C4FE76
:1058B00094F8370000F004FF2000FEF7D7FD200029
:1058C00000F088FADFF8B0050088401CDFF8A81562
:1058D0000880DFF8A805007801281DD002F0A8FE96
:1058E000DFF8EC130978491EDFF8E4231170DFF8C4
:1058F000E013097800290CD1DFF878140988002911
:1059000004D002F099FEFEF72FFE04E002F094FEB0
:1059100001E002F091FE0CE002F08AFEDFF8B01325
:105920000978491EDFF8A823117002F085FEFEF702
:105930005BFA05B0BDE8F08F38B504000D0000201B
:10594000DFF884030078002803D047F24E10288047
:105950005CE0DFF87C04844203D147F24C102880DD
:1059600054E0DFF86804844203D147F24D102880E8
:105970004CE0002C06D102F05BFEDFF850130C68FF
:1059800002F05AFE02F054FEDFF844130978491C75
:10599000DFF83C23117002F04FFE94F83600002827
:1059A0000BD0022838D033D3042830D034D3062883
:1059B00032D02DD307282FD044E02000FEF7A6FDDB
:1059C00014F1600000F0F3FF200000F0ABFD2000B8
:1059D00000F01EFADFF8A0040088401EDFF89814DB
:1059E0000880200000F04EFAFF2084F8360002F014
:1059F0001FFEDFF8DC120978491EDFF8D42211708F
:105A000002F01AFE00202880FEF7EEF931BDD7E73C
:105A1000200001F011FFD3E794F83400002808D0EB
:105A2000401E07D0401E04D0401E032802D9001F8C
:105A300004D103E02000FEF700FCFFE7200001F0A6
:105A4000FBFEBDE702F0F4FDDFF884120978491E81
:105A5000DFF87C221170DFF87812097800290CD168
:105A6000DFF81C140988002904D002F0E5FDFEF7D8
:105A70007BFD04E002F0E0FD01E002F0DDFD46F612
:105A80002D602880C2E738B584B004000D000020E6
:105A900002F0CEFD002C03D08C4909688C4205D160
:105AA00002F0CAFD47F25710288018E002F0C4FD4A
:105AB0008548007800280ED0039500200290002031
:105AC000019000200090002300222100DFF8E0096F
:105AD00001F052FB03E02900200000F017FB05B0A5
