:020000040802F0
:10000000D091002021E6020859DD02085BDD0208DC
:1000100065DD020867DD020869DD020800000000F6
:100020000000000000000000000000006BDD02087E
:100030006DDD0208000000001B8902086FDD020868
:10004000FDE6020801E7020805E7020809E70208E1
:100050000DE7020811E7020815E7020819E7020890
:100060001DE7020821E7020825E7020829E7020840
:100070002DE7020831E7020835E70208C1DD020872
:1000800039E70208D1DD02083DE7020841E702082E
:1000900045E7020849E702084DE7020851E7020870
:1000A00055E7020859E702085DE7020861E7020820
:1000B000E1DD020865E7020869E702086DE702086A
:1000C00071E7020875E7020879E702087DE7020890
:1000D00081E7020885E70208B1DD020889E7020826
:1000E0008DE7020891E7020895E7020899E7020800
:1000F0009DE70208A1E70208A5E70208A9E70208B0
:10010000ADE70208B1E70208B5E70208B9E702085F
:10011000A1DD0208BDE70208C1E70208C5E7020841
:10012000C9E70208CDE70208D1E70208D5E70208CF
:10013000D9E70208DDE70208E1E70208E5E702087F
:10014000E9E70208EDE70208F1E702088BDD0208A3
:10015000F5E70208F9E70208FDE7020801E80208EE
:1001600005E8020809E802080DE8020811E802089B
:1001700015E8020819E802081DE8020821E802084B
:1001800025E8020829E8020800219020DFF8B02CB9
:1001900050730020DFF8A82C9073DFF8F40990F872
:1001A0006700DFF89C2CD073DFF8E40990F8660054
:1001B000DFF88C2C1074DFF8D809B0F8680080B232
:1001C000000ADFF87C2C5074DFF8C409B0F868002E
:1001D000DFF86C2C9074DFF8B809B0F86A0080B2D0
:1001E000000ADFF85C2CD074DFF8A409B0F86A00CC
:1001F000DFF84C2C1075DFF89809B0F86C0080B26D
:10020000000ADFF83C2C5075DFF88409B0F86C0068
:10021000DFF82C2C9075DFF87809B0F86E0080B20A
:10022000000ADFF81C2CD075DFF86409B0F86E0006
:10023000DFF80C2C1076DFF85809B0F8700080B2A7
:10024000000ADFF8FC2B5076DFF84409B0F87000A4
:10025000DFF8EC2B9076DFF83809B0F85000A0F208
:100260004C40C92802D251F4007102E04FF6FF5011
:100270000140DFF81C09B0F85200A0F24C40C92838
:1002800002D251F4807102E04FF6FF600140DFF8C6
:100290000009B0F85400B0F5FA70652802D251F0A8
:1002A000800102E04FF67F700140DFF8E408B0F80B
:1002B0005600B0F5FA70652802D251F0400102E014
:1002C0004FF6BF700140DFF8C808B0F85800B0F52D
:1002D000FA70652802D251F0200102E04FF6DF707B
:1002E0000140DFF8AC08B0F85A00B0F596709728D6
:1002F00002D251F0100102E04FF6EF700140DFF83A
:100300009008B0F85C00B4385B2802D251F00801C4
:1003100002E04FF6F7700140DFF87408B0F86000B3
:10032000B0F5C870C92802D251F0040102E04FF6BE
:10033000FB700140DFF85808B0F85E0064385628BA
:1003400002D251F0020102E04FF6FD700140DFF8E9
:100350004008B0F862004138382802D251F001015B
:1003600002E04FF6FE700140080080B2000ADFF89C
:10037000D02AD076DFF8C80A0177DFF81408B0F881
:10038000500080B2000ADFF8B81A4877DFF800089A
:10039000B0F85000DFF8A81A8877DFF8F407B0F853
:1003A000520080B2000ADFF8981AC877DFF8E00739
:1003B000B0F85200DFF8881A81F82000DFF8D00783
:1003C000B0F8540080B2000ADFF8741A81F82100F6
:1003D000DFF8BC07B0F85400DFF8641A81F8220097
:1003E000DFF8AC07B0F8560080B2000ADFF8501A08
:1003F00081F82300DFF89807B0F85600DFF8401ABC
:1004000081F82400DFF88807B0F8580080B2000AAD
:10041000DFF82C1A81F82500DFF87407B0F85800CF
:10042000DFF81C1A81F82600DFF86407B0F85A00DC
:1004300080B2000ADFF8081A81F82700DFF85007B9
:10044000B0F85A00DFF8F81981F82800DFF8400703
:10045000B0F85C0080B2000ADFF8E41981F82900E6
:10046000DFF82C07B0F85C00DFF8D41981F82A0017
:10047000DFF81C07B0F8600080B2000ADFF8C0198E
:1004800081F82B00DFF80807B0F86000DFF8B0193A
:1004900081F82C00DFF8F806B0F85E0080B2000AA0
:1004A000DFF89C1981F82D00DFF8E406B0F85E0053
:1004B000DFF88C1981F82E00DFF8D406B0F862005E
:1004C00080B2000ADFF8781981F82F00DFF8C00643
:1004D000B0F86200DFF8681981F83000704780B525
:1004E000A020DFF8601988703120DFF85819C87033
:1004F000DFF84C09DFF84C194860DFF8940690F8F3
:100500008100022808D1DFF84009006800F09CFE55
:10051000DFF8380900F0F0FEDFF8740690F881008B
:1005200001280DD1DFF8280900F08EFEDFF8200940
:10053000C178891DDFF81809DFF81829D2689047BB
:10054000DFF84C0690F88100032808D1DFF808098D
:10055000006800F079FEDFF8EC0C00F0CDFE01BD84
:1005600080B50120DFF8DC1888700220DFF8D4188D
:10057000C8709020DFF8CC18496808700020DFF8B8
:10058000C41849684870DFF8080690F8810002280E
:1005900008D1DFF8B408006800F056FEDFF8AC08B8
:1005A00000F0AAFEDFF8E80590F8810001280DD1DF
:1005B000DFF89C0800F048FEDFF89408C178891D38
:1005C000DFF88C08DFF88C28D2689047DFF8C00588
:1005D00090F88100032808D1DFF87C08006800F05B
:1005E00033FEDFF8600C00F087FE01BD10B502207D
:1005F000DFF8501888701320DFF84818C8700B22F5
:10060000DFF86419DFF83C084468200000F0AAFF16
:100610000822DFF8E819DFF82C08406810F10B0415
:10062000200000F09FFFDFF8680590F881000228A5
:1006300008D1DFF81408006800F006FEDFF80C08A7
:1006400000F05AFEDFF8480590F8810001280DD12E
:10065000DFF8FC0700F0F8FDDFF8F407C178891D2A
:10066000DFF8EC07DFF8EC27D2689047DFF82005C9
:1006700090F88100032808D1DFF8DC07006800F05B
:10068000E3FDDFF8C00B00F037FE10BD80B503209E
:10069000DFF8B01788700220DFF8A817C870902024
:1006A000DFF8A017496808700020DFF8981749683C
:1006B0004870DFF8DC0490F88100022808D1DFF8E8
:1006C0008807006800F0C0FDDFF8800700F014FE26
:1006D000DFF8BC0490F8810001280DD1DFF8700725
:1006E00000F0B2FDDFF86807C178891DDFF8600708
:1006F000DFF86027D2689047DFF8940490F8810013
:10070000032808D1DFF85007006800F09DFDDFF8EE
:10071000EC0C00F0F1FD01BD80B5DFF87009406818
:1007200001F082F80420DFF81C1788700120DFF840
:100730001417C8700120DFF80C1749680870DFF83B
:10074000500490F88100022808D1DFF8FC06006808
:1007500000F07AFDDFF8F40600F0CEFDDFF830049B
:1007600090F8810001280DD1DFF8E40600F06CFD5F
:10077000DFF8DC06C178891DDFF8D406DFF8D4265F
:10078000D2689047DFF8080490F88100032808D168
:10079000DFF8C406006800F057FDDFF8600C00F0D9
:1007A000ABFD01BD80B50520DFF8981688700120EB
:1007B000DFF89016C8700120DFF8881649680870C5
:1007C000DFF8CC0390F88100022808D1DFF8780622
:1007D000006800F039FDDFF8740600F08DFDDFF8E9
:1007E000B00390F8810001280DD1DFF8640600F015
:1007F0002BFDDFF85C06C178891DDFF85406DFF8B1
:100800005426D2689047DFF8880390F881000328C7
:1008100008D1DFF84406006800F016FDDFF8DC0BB5
:1008200000F06AFD01BD80B50620DFF8181688705B
:100830000120DFF81016C8700120DFF8081649689B
:100840000870D34890F88100022808D1DFF8F80535
:10085000006800F0F9FCDFF8F40500F04DFDCC482D
:1008600090F8810001280DD1DFF8E40500F0ECFCE0
:10087000DFF8DC05C178891DDFF8D405DFF8D42561
:10088000D2689047C24890F88100032808D1DFF869
:10089000C805006800F0D8FCDFF8600B00F02CFD04
:1008A00001BD80B50720DFF89C1588700120DFF8B6
:1008B0009415C8700120DFF88C1549680870B44899
:1008C00090F88100022808D1DFF87C05006800F06C
:1008D000BBFCDFF8780500F00FFDAD4890F8810013
:1008E00001280DD1DFF8680500F0AEFCDFF86005E7
:1008F000C178891DDFF85805DFF85825D268904780
:10090000A34890F88100032808D1DFF84C0500685F
:1009100000F09AFCDFF8E40A00F0EEFC01BDDFF81D
:10092000F809DFF8141C0860704780B50820DFF86C
:10093000141588700120DFF80C15C8700120DFF84D
:10094000041549680870924890F88100022808D17F
:10095000DFF8F404006800F077FCDFF8F00400F042
:10096000CBFC8B4890F8810001280DD1DFF8E00422
:1009700000F06AFCDFF8D804C178891DDFF8D004E4
:10098000DFF8D024D2689047814890F8810003288E
:1009900008D1DFF8C404006800F056FCDFF8A408B2
:1009A00000F0AAFC00F058FFDFF8541ADFF88C0BB7
:1009B00000F06BFF00F060FFFFF7B1FF01BD80B5F5
:1009C0000920DFF8801488700720DFF87814C870D9
:1009D0006F4890F88200DFF86C14496808706C4822
:1009E00090F88300DFF85C1449684870684890F814
:1009F0008500DFF8501449688870654890F88900D0
:100A0000DFF840144968C870614890F88400DFF846
:100A10003414496808715E4890F88600DFF82414A1
:100A2000496848715A4890F88A00DFF818144968F4
:100A30008871574890F88100022808D1DFF808042F
:100A4000006800F001FCDFF8040400F055FC504899
:100A500090F8810001280DD1DFF8F40300F0F4FBD9
:100A6000DFF8EC03C178891DDFF8E403DFF8E42345
:100A7000D2689047464890F88100032808D1DFF8F3
:100A8000D803006800F0E0FBDFF8700900F034FCE8
:100A900001BD80B50A20DFF8AC1388700A20DFF8AA
:100AA000A413C8703A48B0F8680080B2000ADFF8B2
:100AB0009413496808703648B0F86800DFF884136A
:100AC000496848703248B0F86A0080B2000ADFF81E
:100AD0007413496888702E48B0F86A00DFF8641310
:100AE0004968C8702A48B0F86C0080B2000ADFF884
:100AF0005413496808712648B0F86C00DFF84413B5
:100B0000496848712248B0F86E0080B2000ACD49A9
:100B1000496888711E48B0F86E00CA494968C871B2
:100B20001B48B0F8700080B2000AC64949680872D4
:100B30001748B0F87000C34949684872144890F8E3
:100B40008100022806D1C048006800F07DFBBF4844
:100B500000F0D2FB0E4890F88100012809D1BC4872
:100B600000F072FBBA48C178891DB948B94AD26809
:100B70009047074890F88100032807D1B6480068DD
:100B800000F062FBDFF8740800F0B6FB01BD000066
:100B90000000002080B50B20AA4988700220A949D6
:100BA000C870DFF89C0990F88700A649496808706A
:100BB000DFF88C0990F88800A24949684870DFF88E
:100BC000800990F88100022806D19F48006800F053
:100BD0003BFB9E4800F090FBDFF8640990F8810031
:100BE000012809D19A4800F02FFB9948C178891D46
:100BF0009748984AD2689047DFF8440990F88100F6
:100C0000032807D19448006800F01EFBDFF8EC07CA
:100C100000F072FB01BD80B50C208A49887002206B
:100C20008849C870DFF8180990F867008549496855
:100C30000870DFF80C0990F866008249496848702E
:100C4000DFF8FC0890F88100022806D17E48006891
:100C500000F0FAFA7D4800F04FFBDFF8E40890F866
:100C60008100012809D17A4800F0EEFA7848C1786D
:100C7000891D7748774AD2689047DFF8C40890F812
:100C80008100032807D17448006800F0DDFADFF81E
:100C90006C0700F031FB01BD80B50D2069498870FB
:100CA00014206849C870DFF89808B0F8500080B286
:100CB000000A644949680870DFF88408B0F85000F9
:100CC000604949684870DFF87808B0F8520080B28F
:100CD000000A5C4949688870DFF86408B0F852007F
:100CE00058494968C870DFF85808B0F8540080B215
:100CF000000A544949680871DFF84408B0F8540004
:100D0000504949684871DFF83808B0F8560080B299
:100D1000000A4C4949688871DFF82408B0F8560089
:100D200048494968C871DFF81808B0F8580080B21F
:100D3000000A444949680872DFF80408B0F858000E
:100D4000404949684872DFF8F807B0F85A0080B2A5
:100D5000000A3C4949688872DFF8E407B0F85A0095
:100D600038494968C872DFF8D807B0F85C0080B22B
:100D7000000A344949680873DFF8C407B0F85C001A
:100D8000304949684873DFF8B807B0F8600080B2AE
:100D9000000A2C4949688873DFF8A407B0F860009E
:100DA00028494968C873DFF89807B0F85E0080B238
:100DB000000A244949680874DFF88407B0F85E0027
:100DC000204949684874DFF87807B0F8620080B2BB
:100DD000000A1C4949688874DFF86407B0F86200AB
:100DE00018494968C874DFF8580790F8810002284C
:100DF00006D11548006800F027FA144800F07CFA84
:100E0000DFF83C0790F88100012809D1104800F074
:100E10001BFA0F48C178891D0D480E4AD2689047C9
:100E2000DFF81C0790F88100032807D10A48006802
:100E300000F00AFADFF8C40500F05EFA01BD000018
:100E400020010020500200207C020020A06002400F
:100E5000A46F0020000200206C02002080B500F08A
:100E600031FE0E20DFF8DC1688700820DFF8D4167B
:100E7000C870DFF8CC06B0F8480080B2000ADFF88E
:100E8000C41649680870DFF8B806B0F84800DFF803
:100E9000B41649684870DFF8A806B0F84A0080B276
:100EA000000ADFF8A01649688870DFF89406B0F8E9
:100EB0004A00DFF890164968C870DFF88406B0F879
:100EC0004C0080B2000ADFF87C1649680871DFF830
:100ED0007006B0F84C00DFF86C1649684871DFF80E
:100EE0006006B0F84E0080B2000ADFF85816496874
:100EF0008871DFF84C06B0F84E00DFF848164968F4
:100F0000C871DFF83C0690F8810001280DD1DFF8A8
:100F1000380600F099F9DFF83006C178891DDFF84E
:100F20002806DFF82826D2689047DFF8140690F8E4
:100F30008100022808D1DFF81806006800F084F963
:100F4000DFF8100600F0D8F9DFF8F40590F881001A
:100F5000032808D1DFF80006006800F075F9DFF813
:100F60009C0400F0C9F901BD3802002080B54FF49F
:100F70000041DFF8E80501F0EBF80F20DFF8C415B9
:100F800088700120DFF8BC15C8700120DFF8B415A7
:100F900049680870DFF8A80590F88100022808D198
:100FA000DFF8AC05006800F04FF9DFF8A80500F0A5
:100FB000A3F9DFF88C0590F8810001280DD1DFF846
:100FC000880500F041F9DFF88005C178891DDFF858
:100FD0007805DFF87825D2689047DFF8640590F847
:100FE0008100032808D1DFF87005006800F02CF9B3
:100FF000DFF8080400F080F901BD00005C02002069
:1010000080B54FF40041DFF8540501F09FF810203F
:10101000DFF8301588700120DFF82815C87001202E
:10102000DFF8201549680870DFF8140590F8810092
:10103000022808D1DFF81805006800F005F9DFF88C
:10104000140500F059F9DFF8F80490F88100012840
:101050000DD1DFF8F40400F0F7F8DFF8EC04C17804
:10106000891DDFF8E404DFF8E424D2689047DFF854
:10107000D00490F88100032807D1DFF8DC04006871
:1010800000F0E2F8DD4800F037F901BD440200202D
:1010900080B54FF48041DFF8C40401F059F8112005
:1010A000DFF8A01488700120DFF89814C8700120C0
:1010B000DFF8901449680870DFF8840490F8810024
:1010C000022808D1DFF88804006800F0BDF8DFF8D6
:1010D000840400F011F9DFF8680490F88100012819
:1010E0000DD1DFF8640400F0AFF8DFF85C04C178DC
:1010F000891DDFF85404DFF85424D2689047DFF8E4
:10110000400490F88100032807D1DFF84C04006800
:1011100000F09AF8B94800F0EFF801BD80B54FF43F
:101120008041DFF8380401F011F81220DFF81414C0
:1011300088700120DFF80C14C8700120DFF8041457
:1011400049680870DFF8F80390F88100022808D198
:10115000DFF8FC03006800F077F8DFF8F80300F030
:10116000CBF8DFF8DC0390F8810001280DD1DFF81F
:10117000D80300F069F8DFF8D003C178891DDFF8E3
:10118000C803DFF8C823D2689047DFF8B40390F8AB
:101190008100032807D1DFF8C003006800F054F88D
:1011A000964800F0A9F801BD80B5DFF8B4034068A7
:1011B00001F0C5F801BD80B5DFF8A403406801F077
:1011C000E1F901BD80B5F020DFF8781388700120C7
:1011D000DFF87013C870F020DFF8681349680870F2
:1011E000DFF85C0390F88100022808D1DFF8600383
:1011F000006800F029F8DFF85C0300F07DF8DFF804
:10120000400390F8810001280DD1DFF83C0300F085
:101210001BF8DFF83403C178891DDFF82C03DFF8F1
:101220002C23D2689047DFF8180390F88100032838
:1012300007D1DFF82403006800F006F86F4800F0DB
:101240005BF801BD7060024010B40021DFF8F412B9
:101250004A78DFF8F01289788A18DFF8E812C9783E
:101260008A18DFF8E0120A7200220DE0DFF8D412CB
:101270000B7ADFF8D01249681400E4B2095DCB188C
:10128000DFF8C0120B72521C1100DFF8B832DB78A5
:10129000C9B29942EAD3DFF8AC1209780170DFF8DD
:1012A000A41249784170DFF89C1289788170DFF8C8
:1012B0009412C978C170002107E0DFF888225268D3
:1012C000525C00EB01031A71491CDFF87822D278D6
:1012D0009142F2DBDFF86C12097ADFF86822D278EB
:1012E00002441171DFF85C12497ADFF85822D27893
:1012F0001044417110BC704710B50400DFF844027F
:10130000C178891D89B2200001F00BFF0121200066
:1013100001F0FAFE10BD00000400FA0530B400220E
:101320000378DFF83C422370401C0378DFF830423A
:101330006370401C0378DFF82842A370401C0378D8
:10134000DFF81C42E370401C002306E00478DFF85D
:1013500010526D68EC54401C5B1C0C00E4B2A41FDE
:10136000A342F3DB0178DFF8F8311972401C0078F2
:10137000DFF8EC114872DFF8E80140788218DFF8F6
:10138000E00180788218DFF8D801C0788218002147
:1013900005E0DFF8CC014068405C8218491CDFF8AA
:1013A000C001C0788142F4DBDFF8B401007868281E
:1013B00021D1DFF8AC01407804281CD1DFF8A0016E
:1013C000407A162817D1DFF89801007AD2B282420B
:1013D00011D1DFF88C018078132803D06048807821
:1013E000142806D1002000E0401C5D49C9788842DD
:1013F000FADB012000E0002030BC70477060024042
:10140000BBBBAAAA80B55648807801282AD00228FA
:101410002BD003282CD004282DD005282ED0062828
:101420002FD0072830D0082831D0092832D00A28F8
:1014300033D00B2834D00C2835D00D2836D00E28C8
:1014400037D00F2838D0102839D011283AD0122898
:101450003BD013283CD0142852D0A02868D1FFF7E5
:101460003EF867E0FFF77CF864E0FFF7BFF861E063
:10147000FFF70CF95EE0FFF74FF95BE0FFF792F939
:1014800058E0FFF7D0F955E0FFF70BFA52E0FFF70D
:101490004CFA4FE0FFF793FA4CE0FFF7FAFA49E015
:1014A000FFF778FB46E0FFF7B6FB43E0FFF7F4FBFE
:1014B00040E0FFF7D3FC3DE0FFF758FD3AE0FFF7CF
:1014C0009FFD37E0FFF7E4FD34E0FFF727FE31E052
:1014D00001201B4908700020194948700020184954
:1014E000087100201649C870002015498871002035
:1014F0001349C871002012498881FFF755FE19E091
:1015000000200F49087001200D49487000200C4947
:10151000087100200A49C87000200949887100201C
:101520000749C871002006498881FFF744FE01E0A1
:10153000FFF748FE01BD00000CED00E000000C08C4
:101540000000002050020020A46F002000020020B4
:101550007C020020A06002406C02002000180240C3
:101560004402002062B38B0708D0521E11F8013BE1
:1015700000F8013B00F024808B07F6D1830740F090
:10158000208000BF103A07D330B4B1E83810103AC9
:10159000A0E83810F9D230BC530724BFB1E80810D6
:1015A000A0E8081044BF51F8043B40F8043BD207C0
:1015B00024BF31F8022B20F8022B44BF0B780370B4
:1015C0007047121F17D35B0009D151F8043B20F874
:1015D000023B1B0C121F20F8023BF6D20BE051F825
:1015E000043B00F8013B1B0A20F8023B1B0C121FB6
:1015F00000F8013BF3D238BF121D521E24BF11F870
:10160000013B00F8013BF8D87047704770477047BE
:101610007047704770477047E0B50121102001F016
:1016200082FE4FF40060009001208DF8040003203A
:101630008DF8050001208DF8060000208DF80700C8
:101640006946834800F026FD07BDE0B50121102062
:1016500001F069FE4FF40060009000208DF8040056
:1016600003208DF8050001208DF8060000208DF87C
:1016700007006946764800F00DFD07BD10B5FFF77D
:10168000CBFF4FF40061724800F060FDC82001F00C
:10169000ECFE4FF400616E4800F05AFD4FF41670F6
:1016A00001F0E3FEFFF7D1FF3C2001F0DEFE4FF436
:1016B0000061674800F040FD04004FF4967001F0AF
:1016C000D4FE2000C0B210BD38B50400FFF7A4FF5F
:1016D000002522E04FF400615D4800F039FD16E07E
:1016E0004FF400615A4800F031FD022001F0BDFEC8
:1016F0004FF40061564800F02BFD0A2001F0B5FEC2
:10170000E007E7D54FF40061514800F01FFD3C2091
:1017100001F0ABFEE4B264086D1C082DE0DB31BDC6
:1017200070B500240125002625E0AC431EE0FFF73C
:1017300073FF4FF40061464800F008FD022001F0FD
:1017400094FE4FF40061424800F002FD022001F0D7
:101750008CFEFFF77AFF052001F087FE4FF4006151
:101760003B4800F0E9FC0028DFD02C433C2001F08E
:101770007CFE6D00761C082ED9DB2000C0B270BD47
:1017800070B504000D00FFF779FF002801D001209B
:1017900049E0CC20FFF798FF0F20FFF795FF2000CE
:1017A000C0B2FFF791FF0020FFF78EFF002605E093
:1017B0003000C0B2285CFFF787FF761C3000C0B253
:1017C0000828F5DBFFF7ACFF0500FFF7A9FF55EA96
:1017D0000025FFF753FF002801D0012023E0CC2093
:1017E000FFF772FF5520FFF76FFF2000C0B2FFF731
:1017F0006BFF0020FFF768FF0720FFF765FF4FF43E
:101800000061134800F0A2FC4FF4487001F02DFE77
:10181000FFF786FF80B2AA2804D14FF400610C487C
:1018200000F094FC002070BD10B5002106E00278A5
:10183000084B0C00E4B21A55401C491C0A00D2B2F5
:10184000102AF4DB03490020FFF79AFF10BD0000C7
:101850000010024090700020DFF8D40000680028DB
:1018600009D5DFF8D000DFF8D0100860DFF8CC0031
:10187000DFF8C41008607047DFF8B400006850F06B
:101880000040DFF8AC100860704738B504000D0068
:10189000092000F057F80100C9B2092922D1DFF868
:1018A0009000006830F44070DFF884100860DFF8C2
:1018B0008000006850F40070DFF874100860DFF8F2
:1018C0007000006850F00100DFF8641008602560C7
:1018D00000F038F8DFF85810096849084900DFF8C7
:1018E00050201160C0B232BD092015480068C00305
:1018F00001D5012019E012480068C00601D5062074
:1019000013E00F480068C00501D502200DE00C4827
:10191000006810F0E00F01D0072006E008480068DA
:10192000800701D5082000E00920C0B27047000000
:10193000103C024023016745043C0240AB89EFCDD7
:101940000C3C024080B509208DF80000FFF7CCFF69
:101950008DF8000003E0FFF7C7FF8DF800009DF849
:1019600000000128F7D09DF8000002BD38B58AB00C
:1019700004000D00DFF89C06844204D101214FF4DD
:10198000807001F006FDDFF89006844204D1012149
:101990004FF4007001F0FDFCDFF88006844204D1B2
:1019A00001214FF4806001F0F4FC002006905FF408
:1019B00080300790002008900020099006A801F0D0
:1019C000A6FD0020009001208DF8040001208DF874
:1019D0000500002002905FF07060039000200490EA
:1019E0008DF814506946200001F06CFD01212000A3
:1019F00001F09DFD0BB030BD70B48AB00021002312
:101A000013E0DFF81C461D00EDB21C22554304EB29
:101A100005020400E4B202EB440232F8022C6C46E8
:101A20001D00EDB224F815205B1C1A00D2B2142A56
:101A3000E7DB00202CE06B461400E4B203EB440328
:101A40005B886C461500EDB234F81540A34215D200
:101A50006B461400E4B233F814306C461500EDB256
:101A600004EB450464886D461600F6B225F816406E
:101A70006C461500EDB204EB45046380521C130064
:101A8000DBB20400E4B2D4F11304A342D3DB401C64
:101A90000200D2B2142A01DA0022F0E7022007E0A5
:101AA0006A460300DBB232F8132011FA82F1401CBF
:101AB0000200D2B2122AF3DB0909080080B20AB090
:101AC00070BC704780B50120FFF796FF01F0DEFD86
:101AD0005FF06632DFF84C3501F0E6FD0022DFF8FA
:101AE000483501F0B7FEDFF84425DFF8443501F052
:101AF000B1FEDFF84025DFF8403501F0D5FD0022CA
:101B0000DFF8383501F0D0FD01F0C8FFDFF83015FF
:101B1000A1F848000220FFF76FFF01F0B7FD5FF06A
:101B20006632DFF8003501F0BFFD0022DFF8F8343F
:101B300001F090FE02000B005FF06630DFF8E41465
:101B400002F07CF8DFF8FC24DFF8FC3401F082FEC0
:101B5000DFF8F824DFF8F83401F0A6FD5FF0663214
:101B6000DFF8F03401F0ACFF0022DFF8D03401F0F0
:101B70009BFD01F093FFDFF8C814A1F84A00032091
:101B8000FFF73AFF01F082FD5FF06632DFF8943430
:101B900001F08AFD0022DFF8903401F05BFEDFF8EF
:101BA0008C24DFF88C3401F055FEDFF88824DFF850
:101BB000883401F079FD0022DFF8803401F074FDF3
:101BC00001F06CFFDFF87814A1F84C000420FFF757
:101BD00013FF01F05BFD5FF06632DFF8483401F07F
:101BE00063FD0022DFF8403401F034FE02000B00F8
:101BF0005FF06630DFF82C1402F020F8DFF84424A0
:101C0000DFF8443401F026FEDFF84024DFF84034EA
:101C100001F04AFD5FF06632DFF8383401F050FF22
:101C20000022DFF8183401F03FFD01F037FFDFF844
:101C30001014A1F84E0001BD80B50520FFF7DCFEB1
:101C400001F024FD5FF06632DFF8D83301F02CFD9F
:101C50000022DFF8D43301F0FDFD0022DFF8F83375
:101C600001F0F8FD5FF03332DFF8F03301F01CFDD6
:101C70000022DFF8C83301F017FD01F00FFFDFF895
:101C8000C013A1F85A000620FFF7B6FE01F0FEFCD3
:101C90005FF06632DFF88C3301F006FD0022DFF8DA
:101CA000883301F0D7FD0022DFF8AC3301F0D2FD1C
:101CB0005FF03332DFF8A43301F0F6FC0022DFF8E6
:101CC0007C3301F0F1FC01F0E9FEDFF87413A1F8B8
:101CD0005C000720FFF790FE01F0D8FC5FF0663251
:101CE000DFF8403301F0E0FC0022DFF83C3301F084
:101CF000B1FDDFF86C23DFF86C3301F0ABFDDFF8EA
:101D00006823DFF8683301F0CFFC0022DFF82C33C2
:101D100001F0CAFC01F0C2FEDFF82413A1F8500064
:101D20000820FFF769FE01F0B1FC5FF06632BD4BA1
:101D300001F0BAFC0022BC4B01F08CFD02000B004C
:101D40005FF06630B74901F079FFC54AC54B01F035
:101D500081FDC74AC74B01F0A7FC5FF06632BD4B5F
:101D600001F0AEFE0022B54B01F09EFC01F096FEA4
:101D7000B349A1F852000920FFF73EFE01F086FCAE
:101D80005FF06632A74B01F08FFC0022A64B01F0FA
:101D900061FD0022B04B01F05DFD5FF03332AF4BCF
:101DA00001F082FC0022A54B01F07EFC01F076FEE2
:101DB000A349A1F854000A20FFF71EFE01F066FCBB
:101DC0005FF06632974B01F06FFC0022964B01F0FA
:101DD00041FD0022A04B01F03DFD5FF033329F4BEF
:101DE00001F062FC0022954B01F05EFC01F056FE12
:101DF0009349A1F856000B20FFF7FEFD01F046FCC9
:101E00005FF06632874B01F04FFC0022864B01F0F9
:101E100021FD02000B005FF06630824901F00EFFE9
:101E20008F4A904B01F016FD914A924B01F03CFC19
:101E30005FF06632874B01F043FE00227F4B01F0DA
:101E400033FC01F02BFE7E49A1F858000C20FFF76F
:101E5000D3FD01F01BFC5FF06632724B01F024FCF5
:101E60000022714B01F0F6FC00227B4B01F0F2FCEA
:101E70005FF03332794B01F017FC00226F4B01F019
:101E800013FC01F00BFE6E49A1F860000D20FFF776
:101E9000B3FD01F0FBFB5FF06632624B01F004FC26
:101EA0000022614B01F0D6FC0022734B01F0D2FC02
:101EB0000022724B01F0F8FB0022604B01F0F4FBB2
:101EC00001F0ECFD5E49A1F862000E20FFF794FDE1
:101ED00001F0DCFB5FF06632524B01F0E5FB0022C3
:101EE000514B01F0B7FC0022634B01F0B3FC002220
:101EF000624B01F0D9FB0022504B01F0D5FB01F001
:101F0000CDFD4F49A1F85E0001BD70B48AB000213B
:101F1000002210E05A4B1400E4B203EB84030400E7
:101F2000E4B203EB440333F8023C6C461500EDB217
:101F300024F81530521C1300DBB2142BEADB00200E
:101F40002CE06B461400E4B203EB44035B886C4660
:101F50001500EDB234F81540A34215D26B461400BB
:101F6000E4B233F814306C461500EDB204EB4504CE
:101F700064886D461600F6B225F816406C461500CA
:101F8000EDB204EB45046380521C1300DBB2040085
:101F9000E4B2D4F11304A342D3DB401C0200D2B25A
:101FA000142A01DA0022F0E7022007E06A46030063
:101FB000DBB232F8132011FA82F1401C0200D2B2D7
:101FC000122AF3DB0909080080B20AB070BC70471E
:101FD00080B50220FFF799FF01F058FB5FF06632F1
:101FE000104B01F061FB00220F4B01F033FC254A3E
:101FF000254B01F065FD154A244B01F02BFC002216
:10200000234B01F05DFD01F08BFE0D4981F8670067
:1020100001BD0000002001400021014000220140DC
:10202000C451002066660A4000FEAF40E17A14AE5B
:1020300047E11040AE47E17A140E5A400000594083
:10204000000000205C8FC2F5285C05407B14AE4781
:10205000E1AA594066660AC000002E4033F34340AF
:10206000F6285C8FC2F51340A4703D0AD7E33D40CB
:102070008FC2F5285CBF5C40000024400000344063
:10208000046F002052B81E85EB51E8BFE17A643F2F
:102090000000394030B4002200220022002347E033
:1020A00001229A400C681440944240D104680325F0
:1020B0001A00D2B252009540AC43046004680D7916
:1020C0001A00D2B2520095402C4304600A79012ACA
:1020D00002D00A79022A1AD1846803251A00D2B2E2
:1020E00052009540AC43846084684D791A00D2B2A6
:1020F000520095402C438460426801249C40A243D6
:10210000426042688C799C40A4B222434260C46819
:1021100003251A00D2B252009540AC43C460C46893
:10212000CD791A00D2B2520095402C43C4605B1C9A
:10213000102BB5D330BC70470022006989B2084229
:1021400001D0012000E00020C0B270470183704739
:1021500041837047426989B251404161704770B410
:1021600000230023D2B211F00703DBB29B009A4098
:102170000B009BB2DB1000EB83040B009BB2DB1067
:1021800000EB83031D6A0F2611F00703DBB29B00EF
:102190009E40B54325620B009BB2DB1000EB83032E
:1021A0001B6A1A4389B2C91000EB8100026270BC3D
:1021B00070470A0080B51320DFF860168870082089
:1021C000DFF85816C870DFF85806B0F8480080B23B
:1021D000000ADFF8481649680870DFF84406B0F8CE
:1021E0004800DFF8381649684870DFF83406B0F860
:1021F0004A0080B2000ADFF8241649688870DFF8C8
:102200002006B0F84A00DFF814164968C870DFF8F5
:102210001006B0F84C0080B2000ADFF800164968DA
:102220000871DFF8FC05B0F84C00DFF8F0154968DC
:102230004871DFF8EC05B0F84E0080B2000ADFF814
:10224000DC1549688871DFF8D805B0F84E00DFF872
:10225000CC154968C871DFF8C80590F881000128DD
:102260000DD1DFF8C005FEF7EFFFDFF8B805C17844
:10227000891DDFF8B005DFF8B025D268904701BDB1
:10228000DFF89C05008A9630DFF894150884DFF8A3
:102290009005008A9638DFF888154884DFF88005B5
:1022A000008A9630DFF878158884DFF87405008A94
:1022B0009638DFF86C15C884DFF8640500780128CB
:1022C0001BD1DFF85C05808A9630DFF8541508854D
:1022D000DFF84C05808A9638DFF844154885DFF82A
:1022E0004005808A9630DFF838158885DFF830059C
:1022F000808A9638DFF82815C885DFF824054078ED
:1023000001281BD1DFF81805808A6430DFF810152A
:102310000885DFF80C05808A6438DFF804154885E5
:10232000DFF8FC04C08A6430DFF8F4148885DFF835
:10233000F004C08A6438DFF8E814C885704780B5B7
:102340000178427852EA0122DFF8141D0A8281786E
:10235000C27852EA0122DFF8081D4A8201794279E7
:1023600052EA0122DFF8F81C8A828179C07950EAAA
:102370000120DFF8EC1CC882DFF8E40C008AB0F51D
:10238000FA7041F65931884280F0FB80DFF8D00CBA
:10239000408AB0F5FA7041F65931884280F0F180F8
:1023A000DFF8BC0C808AB0F5FA7041F659318842EA
:1023B00080F0E780DFF8A80CC08AB0F5FA7041F62B
:1023C0005931884280F0DD80DFF8940C008ADFF814
:1023D000901C098B884207D1DFF8840C408ADFF813
:1023E000801C498B884204D00120DFF8741C0872DD
:1023F00003E00020DFF8681C0872DFF8640C808AB4
:10240000DFF85C1C898B884207D1DFF8540CC08A46
:10241000DFF84C1CC98B884204D00120DFF8401C37
:10242000487203E00020DFF8381C48720120DFF812
:10243000301C08720120DFF8281C4872DFF8200CDD
:10244000007A012805D0DFF8180C407A012840F006
:102450009880DFF80C0C008BDFF8041C098A884296
:1024600007D2DFF8FC0B408BDFF8F41B498A884267
:102470000FD3DFF8EC0B808BDFF8E41B898A8842EE
:1024800010D2DFF8DC0BC08BDFF8D41BC98A88427E
:1024900008D2DFF8D00B01F05FFC6420DFF8C01B2E
:1024A000C8812DE0DFF8B80B008ADFF8B41B098B78
:1024B000884207D1DFF8A80B408ADFF8A41B498BBC
:1024C00088420FD0DFF8980B808ADFF8941B898B45
:1024D00088420CD1DFF8880BC08ADFF8841BC98BD7
:1024E000884204D1DFF8800B01F036FC08E0DFF809
:1024F0007C0B01F031FC4FF4FA70DFF8641BC881EB
:10250000DFF85C0B008ADFF8581B0883DFF8500BFC
:10251000408ADFF84C1B4883DFF8440B808ADFF8E1
:10252000401B8883DFF8380BC08ADFF8341BC88370
:10253000FFF7A6FE01F028FDDFF8240BC08E009007
:10254000DFF81C0B838EDFF8180B428EDFF8100BC0
:10255000018EDFF81C0B01F0FFFB0120DFF8001BF0
:1025600008710020DFF8F81AC8700020DFF8F01AB0
:1025700088810120DFF8E81AC8710020DFF8E01A2E
:10258000887201BD80B50178427852EA0122DFF8F5
:10259000D01A0A828178C27852EA0122DFF8C01A82
:1025A0004A820179427952EA0122DFF8B41A8A821A
:1025B0008179C07950EA0120DFF8A41AC882DFF8D7
:1025C000A00A008AB0F5FA7041F65931884280F0CD
:1025D0002381DFF88C0A408AB0F5FA7041F6593150
:1025E000884280F01981DFF8780A808AFA38FB285F
:1025F00080F01281DFF8680AC08AFA38FB2880F080
:102600000B81DFF85C0A008ADFF8541A098B8842D4
:1026100007D1DFF84C0A408ADFF8441A498B884218
:1026200004D00120DFF8381A087203E00020DFF838
:10263000301A0872DFF8280A808ADFF8241A898B9A
:10264000884207D1DFF8180AC08ADFF8141AC98B4C
:10265000884204D00120DFF8081A487203E0002005
:10266000DFF8FC1948720120DFF8F4190872012024
:10267000DFF8EC194872DFF8E809007A012805D084
:10268000DFF8DC09407A012840F09F80DFF8D009AC
:10269000008BDFF8CC19098A884207D2DFF8C0091D
:1026A000408BDFF8BC19498A88420FD3DFF8B009A4
:1026B000808BDFF8AC19898A884210D2DFF8A00934
:1026C000C08BDFF89C19C98A884208D2DFF89409C8
:1026D00001F042FB6420DFF88819C8812DE0DFF8A3
:1026E0008009008ADFF87819098B88421CD1DFF84D
:1026F0007009408ADFF86819498B884214D1DFF8E5
:102700006009808ADFF85819898B88420CD1DFF87C
:102710005009C08ADFF84819C98B884204D1DFF814
:10272000480901F019FB08E0DFF8400901F014FB4B
:102730004FF4FA70DFF82819C881DFF82409008AFD
:10274000DFF81C190883DFF81809408ADFF8101930
:102750004883DFF80C09808ADFF804198883DFF8E2
:102760000009C08ADFF8F818C883FFF789FDDFF891
:10277000F008008A01F004FBDFF8E4180886DFF8AF
:10278000E0188887DFF8D808408A01F020FBDFF8DE
:10279000D0184886DFF8C818C887DFF8C408808AD0
:1027A00001F038FBDFF8B8180887DFF8B418A1F893
:1027B0004400DFF8AC08C08A01F043FBDFF8A01842
:1027C0004887DFF89C18A1F8460001F0F9FBDFF814
:1027D0009008408F0090DFF88808038FDFF88008AA
:1027E000428EDFF87C08018EDFF8840801F0B4FA2D
:1027F0000120DFF86C1808710020DFF86418C87039
:102800000020DFF85C1888810120DFF85418C871B7
:102810000020DFF84C18887201BD00005002002033
:1028200000000020A46F0020000200201FB55FE11F
:10283000DFF82C08B0F84E000190DFF82408B0F85B
:102840004C000090DFF81808B0F84A30DFF81008A4
:10285000B0F84820DFF808088189DFF8180801F08F
:102860007BFA0020DFF8F81708710120DFF8F01775
:1028700088710020DFF8E817C8702FE1DFF8E00763
:10288000B0F84E000290DFF8D807B0F84C00019085
:10289000DFF8CC07B0F84A000090DFF8C407B0F8C2
:1028A0004830DFF8BC078289DFF8B407817ADFF8A7
:1028B000C80701F051FADFF8A807C078002800F037
:1028C0009080DFF89C07408CDFF89417B1F848102F
:1028D00088423ED2DFF88807B0F84800DFF880175A
:1028E000098C884235D2DFF87807C08CDFF8701782
:1028F000B1F84A1088422CD2DFF86407B0F84A00D9
:10290000DFF85C17898C884223D2DFF85407408DAA
:10291000DFF84C17B1F84C1088421AD2DFF84007A4
:10292000B0F84C00DFF83817098D884211D2DFF873
:102930003007C08DDFF82817B1F84E10884208D252
:10294000DFF81C07B0F84E00DFF81417898D8842B5
:1029500018D3DFF80C07B0F84E000090DFF800073E
:10296000B0F84C30DFF8F806B0F84A20DFF8F0068F
:10297000B0F84810DFF8040701F0EEF90020DFF8A6
:10298000E016C870DFF8D806B0F84800DFF8D016B7
:10299000B1F84C10C83988420ADBDFF8C406B0F839
:1029A0004A00DFF8BC16B1F84E10C839884218DA70
:1029B000DFF8AC06B0F84E000090DFF8A406B0F8DF
:1029C0004C30DFF89C06B0F84A20DFF89406B0F8E7
:1029D0004810DFF8AC0601F0BFF90020DFF88016E0
:1029E000C870DFF87C060079002877D0DFF8700621
:1029F000C089DFF86C1689898842FFF419AFDFF8C7
:102A00006006B0F84800DFF85816498C884265D354
:102A1000DFF84C06008CDFF84816B1F84810884201
:102A20005CD3DFF83C06B0F84A00DFF83416C98CF6
:102A3000884253D3DFF82806808CDFF82416B1F8DB
:102A40004A1088424AD3DFF81806B0F84C00DFF885
:102A50001016498D884241D3DFF80406008DDFF857
:102A60000016B1F84C10884238D3DFF8F405B0F8FE
:102A70004E00DFF8EC15C98D88422FD3DFF8E00552
:102A8000808DDFF8DC15B1F84E10884226D3DFF8D0
:102A9000D005B0F84E000190DFF8C405B0F84C0046
:102AA0000090DFF8BC05B0F84A30DFF8B405B0F8A4
:102AB0004820DFF8AC058189DFF8C80501F04CF942
:102AC0000020DFF89C1508710120DFF8941588714B
:102AD0000020DFF88C15C870FFF76CFB03A801908D
:102AE00008200090052300220021002001F014FBA3
:102AF000DFF86C05807900283FF4DDAEDFF8600573
:102B0000807A401CDFF858158872DFF85405807A07
:102B1000322835DBDFF8700501F01EF9DFF84005DB
:102B2000B0F84E000290DFF83805B0F84C00019084
:102B3000DFF82C05B0F84A000090DFF82405B0F863
:102B40004830DFF81C058289DFF81405817ADFF848
:102B50003C0501F001F90020DFF804158881002010
:102B6000DFF8FC14C8713320DFF8F41488720020F9
:102B7000DFF8EC1488710120DFF8E414C8709AE6DD
:102B8000DFF8DC04B0F84800DFF8D414098A401AF2
:102B900001F0BAFB0B286EDBDFF8C404B0F9480083
:102BA000DFF8BC14B1F91040041BDFF8B404038A49
:102BB000DFF8AC04B0F84820210009B2DFF8D004F7
:102BC00001F0CAF8200000B2012829DBDFF89004E8
:102BD000808F1430B0F5805F05DB40F6FF70DFF8C2
:102BE0008014888712E0200000B21F2807DBDFF87E
:102BF0007004808F0A30DFF86814888706E0DFF8F9
:102C00006004808F401DDFF858148887DFF8500477
:102C1000818F002001F0C1FB0121002001F0A5FB04
:102C2000200000B2002826D5DFF83404808F142855
:102C300004DA0020DFF82814888712E024B214F1A7
:102C40001E0F07DADFF81804808F0A38DFF8101437
:102C5000888706E0DFF80804808F401FDFF8001443
:102C60008887DFF8FC03818F002001F096FB0121AB
:102C7000002001F07AFBDFF8E803B0F84A00DFF843
:102C8000E013498A401A01F03FFB0B286FDBDFF8A5
:102C9000D003B0F94A00DFF8C813B1F91240041BA1
:102CA000DFF8BC03438ADFF8B803B0F84A202100FC
:102CB00009B2DFF8E00301F04FF8200000B201286C
:102CC00029DBDFF89C03C08FC01CB0F5807F04DBDC
:102CD000FF20DFF88C13C88712E0200000B21F2805
:102CE00007DBDFF87C03C08F801CDFF87413C88714
:102CF00006E0DFF86C03C08F401CDFF86413C88760
:102D0000DFF85C03B0F84210C9B2DFF85403C08F9B
:102D1000C0B201F06CFB200000B2002827D5DFF81C
:102D20004003C08F032804DA0020DFF83413C8877B
:102D300012E024B214F11E0F07DADFF82403C08F6B
:102D4000801EDFF81C13C88706E0DFF81403C08F6D
:102D5000401EDFF80C13C887DFF80403B0F84210F8
:102D6000C9B2DFF8FC02C08FC0B201F040FBBC4822
:102D70000078002800F0F380B948B0F84C00B8495A
:102D8000898A401A01F0C0FA0B2869DBB448B0F90F
:102D90004C00B349B1F91440041BB148838AB048D0
:102DA000B0F84C20210009B2BB4800F0D5FF20004C
:102DB00000B2012829DBAA48B0F840001430B0F571
:102DC000805F05DB40F6FF70A549A1F8400012E0E6
:102DD000200000B21F2807DBA148B0F840000A30ED
:102DE0009F49A1F8400006E09D48B0F84000401D12
:102DF0009B49A1F840009A48B0F84010002001F02B
:102E0000DAFA0121102001F0B0FA200000B2002807
:102E100026D59348B0F84000142804DA00209049E1
:102E2000A1F8400012E024B214F11E0F07DA8C481A
:102E3000B0F840000A388A49A1F8400006E0884806
:102E4000B0F84000401F8649A1F840008448B0F81F
:102E50004010002001F0AFFA0121102001F085FAA6
:102E60007F48B0F84E007E49C98A401A01F04CFAFA
:102E70000B2866DB7A48B0F94E007949B1F9164063
:102E8000041B7748C38A7648B0F84E20210009B267
:102E9000824800F061FF200000B2012827DB704863
:102EA000B0F84200C01CB0F5807F04DBFF206C4905
:102EB000A1F8420012E0200000B21F2807DB68489A
:102EC000B0F84200801C6649A1F8420006E0644860
:102ED000B0F84200401C6249A1F842006048B0F8D6
:102EE0004210C9B25E48C08FC0B201F080FA200023
:102EF00000B2002825D55A48B0F84200032804DA69
:102F000000205749A1F8420012E024B214F11E0F2C
:102F100007DA5348B0F84200801E5149A1F8420038
:102F200006E04F48B0F84200401E4D49A1F842006B
:102F30004B48B0F84210C9B24948C08FC0B201F046
:102F400056FA4748B0F8420000904548B0F8403083
:102F50004348C28F4248818F514800F0FDFE03A8CC
:102F6000019008200090502300220021002001F051
:102F7000D3F83B48B0F848003949498C8842FFF4FF
:102F80007DAC3748008C3649B1F848108842FFF4D0
:102F900075AC3348B0F84A003149C98C8842FFF417
:102FA0006DAC2F48808C2E49B1F84A108842FFF44E
:102FB00065AC2B48B0F84C002949498D8842FFF494
:102FC0005DAC2748008D2649B1F84C108842FFF4CB
:102FD00055AC2348B0F84E002149C98D8842FFF412
:102FE0004DAC1F48808D1E49B1F84E108842FFF449
:102FF00045ACFFF7DFF81A48B0F84E0002901848C9
:10300000B0F84C0001901648B0F84A0000901448FF
:10301000B0F84830124882891148817A214800F07E
:103020009BFE48E480B58AB009A808900320079069
:103030000020069000200590002004904FF480604E
:1030400003906620029018480190142000900023FD
:10305000164A1749174801F069FA0BB000BD000085
:103060000000002030E6020880E502083CE6020885
:1030700084E3020868E10208DCE00208DCE10208FF
:10308000F8E302082CE10208D0E40208F4DE0208AA
:103090009CDF0208ECDF02083CE002088CE002083A
:1030A000F0DD020848DF0208900200202D28020807
:1030B00090E50208F462002000220368514A1340A0
:1030C0000A681343CA6813434A6913438A6913435E
:1030D000CA6913430A6A13434A6A13438A6A134349
:1030E0004A6B13438A6B134303604369DB08DB00BD
:1030F000CA6A13430A6B134343610A6942604A6810
:1031000082608968C1607047C9B2002904D0016833
:1031100051F00101016003E00168490849000160C4
:10312000704789B241607047406880B27047344A46
:10313000904201D2344A00E0344A880003D5344832
:103140000140D16002E032480140916070470B06B7
:103150000CD51300DBB2002B04D0436953F080037D
:10316000436103E0436933F08003436180290ED05B
:10317000D2B2002A05D0026811F01E01114301608D
:1031800005E0026811F01E0132EA0101016070479A
:103190000022002200221A4A904201D21A4B00E07B
:1031A0001A4B1C4A114206D00A00D20A12F01E0223
:1031B0000068024002E0426912F08002880001D5F6
:1031C0005B6800E01B68124803400B4203D0002AF2
:1031D00001D0012000E00020C0B27047084A9042B0
:1031E00001D2094A00E0094A880003D50848014095
:1031F000D16002E006480140916070470000000085
:10320000106402403F801CF00060024000640240F5
:103210007D0F7D0F3C0F3C0F0021DFF8A0211170C6
:103220000021DFF898211170C0B2012802D00428D3
:1032300005D009E00120DFF88411087004E00520C2
:10324000DFF878110870FFE77047002100210021A6
:10325000022100210221DFF85C11096811F00C0144
:10326000002904D0042906D0082908D033E0DFF86B
:103270005011016032E0DFF84C1101602EE0DFF800
:1032800038110968C1F38051DFF82C21126812F05F
:103290003F0200290AD0DFF82C11B1FBF2F2DFF86F
:1032A00018110968C1F388114A4309E0DFF81011C9
:1032B000B1FBF2F2DFF800110968C1F388114A434B
:1032C000DFF8F4100968C1F30141491C4900B2FB61
:1032D000F1F1016002E0DFF8E8100160DFF8D410DE
:1032E000096811F0F0010909DFF8DC20515C02687F
:1032F000CA404260DFF8BC10096811F4E051890A45
:10330000DFF8C420515C4268CA408260DFF8A41034
:10331000096811F46041490BDFF8AC20515C426848
:10332000CA40C2607047C9B2002907D0DFF89C10BC
:1033300009680843DFF89410086007E0DFF88C1094
:10334000096831EA0000DFF8841008607047C9B2EC
:10335000002907D0DFF8781009680843DFF87010FB
:10336000086005E01A49096831EA00001849086058
:103370007047C9B2002905D01649096808431549A4
:10338000086005E01349096831EA00001149086046
:103390007047C9B2002905D00F49096808430E4992
:1033A000086005E00C49096831EA00000A49086034
:1033B000704700000838024004380240703802406C
:1033C0000024F40000127A00280200203038024065
:1033D000343802404038024044380240020052B2C1
:1033E000002A08D50901314A40B210F00F001044FC
:1033F00000F8041C03E009012D4A40B21154704743
:1034000080B5411EB1F1807F01D301200EE0401E46
:10341000284908600F215FF0FF30FFF7DFFF002031
:1034200025490860072025490860002002BD80B5B5
:1034300045F20820FFF7E4FF7FF0040001F086FF6B
:1034400001BD1F480068002804D01D480068401EC8
:103450001B490860704780B5684602F00EF901BD4F
:1034600080B5684602F039F901BD70B50400A4B218
:10347000152044430F4805680F480668FFF7EBFF27
:103480000D480068002801D10B480068B042F7D011
:10349000B04203D2301AA042F2D303E0281A301807
:1034A000A042EDD3FFF7DCFF70BD000018ED00E097
:1034B00000E400E014E000E018E000E010E000E0CC
:1034C0006471002010B40022002344686B4A144049
:1034D0000A7954EA02240A68144344608468684AFA
:1034E00014400A691443CA6814438A6814434A7929
:1034F00054EA42048460C26A32F47002097D491EB3
:103500000B43DBB252EA0352C26210BC7047002187
:103510005C490A685C490A4001680A4341680A43F9
:1035200081680A43C0680243564802607047C9B2C6
:10353000002904D0816851F00101816003E08168B5
:103540004908490081607047C0B2002806D04D4844
:10355000006850F400004B49086005E049480068E5
:1035600030F40000474908607047F0B4002400249C
:103570000C00E4B20A2C13DBC5680726B1F10A047B
:10358000032714FB07F416FA04F4A543DBB2B1F1E8
:103590000A04032614FB06F4A3402B43C3600EE089
:1035A00005690726032411FB04F416FA04F4A54365
:1035B000DBB2032411FB04F4A3402B43036113008B
:1035C000DBB2072B11DA436B1F25541E052614FBB3
:1035D00006F415FA04F4A343C9B2521E052412FBE3
:1035E00004F291401943416327E01300DBB20D2B35
:1035F00011DA036B1F25D41F052614FB06F415FAF8
:1036000004F4A343C9B2D21F052412FB04F2914073
:103610001943016311E0C36A1F25B2F10D040526A9
:1036200014FB06F415FA04F4A343C9B20D3A0524B9
:1036300012FB04F291401943C162F0BC70478168EB
:1036400051F0804181607047C9B2002904D081687F
:1036500051F48071816003E0816831F48071816090
:103660007047C9B2002904D0816851F400718160AB
:1036700003E0816831F4007181607047FFFEFFFC58
:10368000FDF7FFC004230140E030FCFF50B1B0FA69
:1036900080F18840C91CC1F58461090501EBD02186
:1036A000400570470146704730B540F2FF7C1CEA88
:1036B00011541DBF1CEA1355644565453FE064196C
:1036C00081EA030C6FF35F530CF0004C43F480135A
:1036D000C90241F0004141EA505EC5021100A5FB5C
:1036E000020200284FF00000EEFB01204FF0000125
:1036F000E3FB052118BF42F00102401800214941B7
:10370000E3FB0E01A4F580640D0302D29218404140
:10371000494154F1010470DD450872F1004250F155
:10372000000051EB0451A1F5801102D441EA0C01D3
:1037300030BD40F2FF7E4CEA0E51002030BD0CEA55
:103740001355644518BF654581EA030C0CF0004C25
:1037500041D050EA410E1CBF52EA430E02E06146DE
:10376000002030BD24422C441BD15FEA050EF6D068
:10377000090302BF01460020AEF1140EB1FA81F533
:10378000AEEB050401FA05FE0C35C5F1200100FA87
:1037900005F5C8404EEA000E6FF35F5343F4801303
:1037A0009CE733F00043B3FA83F504BFB2FA82FE1C
:1037B00075440B3D641BB5F1200E2FBF02FA0EF3CA
:1037C000AB40C5F1200E22FA0EFE38BF43EA0E03CD
:1037D000AA40641C7CE750EA410E14BF52EA430E33
:1037E0006FF000014FF4001515EB430F8EBF194623
:1037F00015EB410F9DE7B4D830BDD4F10104B4F10D
:1038000020050FDAC4F12005520828BF42F001025A
:1038100010FA05FE01FA05F57244E2BFE0402843C4
:10382000E1400FE0352C9ADCC5F1200452EA400259
:1038300020FA05F218BF42F0010231FA05F0A1406A
:103840000A43002172F1004250F1000051EB0C01DB
:1038500030BD6400F0B540F2FF7581EA030C0CF056
:10386000004C15EA11541DBF15EA1357AC42AF4284
:10387000E5E0BC41C1F31301C3F31303801A99417E
:1038800043F4801304D2641E001849418018594142
:10389000C90241EA5051B1FBF3F603FB1611A2FB3A
:1038A0000675D7EBC020A94102D2761E8018594177
:1038B000C90241EA5051B1FBF3FE03FB1E11A2FB0A
:1038C0000E75D7EBC020A94103D2AEF1010E8018CE
:1038D0005941890241EA9051760546EA8E2EB1FBA4
:1038E000F3F603FB1611A2FB0675D7EB8020A94166
:1038F00002D2761E80185941C90241EA50514EEA5F
:10390000060EB1FBF3F603FB1611A2FB0675D7EB0F
:10391000C020A94102D2761E80185941C90241EA4D
:103920005051B1FBF3F703FB1711A2FB0735D3EBA3
:10393000C020A94167F100070CBF004247F0010712
:1039400066F3D5274FEA1E31B80814F5806412DDFE
:10395000BD0775F1004250EB0E5051EB045111F5CB
:10396000801F5CBF41EA0C01F0BD4CF07F6141F06B
:10397000E0410020F0BDBD076D0840EA0E5041F463
:103980008011D4F10104B4F120060ADAC4F1200652
:103990000200E04001FA06F3E1401843B24015434B
:1039A0000EE0342C13DCC6F1200445EA40056D0816
:1039B00020FA06F2154321FA06F0A1400D4300213A
:1039C00075F1004250F1000051EB0C01F0BD0020F8
:1039D0005FEA0C01F0BDCFB992185B41B3FA83F7EF
:1039E00004BFB2FA82F6BF190B3FB7F120062FBF12
:1039F00002FA06F3BB40C7F1200622FA06F638BFEA
:103A00003343BA401CB1E419641E33E77F4231F0FE
:103A10000041B1FA81F404BFB0FA80F6A4190B3C5E
:103A2000B4F120062FBF00FA06F1A140C4F1200630
:103A300020FA06F638BF3143A0403C1B1AE7AC42DF
:103A40001ABF05EA1357AF4212E050EA41061CBF05
:103A500052EA4306BFE750EA4107304661461CBFC1
:103A600041EA0551F0BD52EA430C08BFC143F0BD25
:103A700000204FF4001616EB410F98BF16EB430FD2
:103A800008BF16EB410F24BFC14305E016EB430FFF
:103A90000CBF61464CEA0551F0BD2800400D40F2D4
:103AA0001E4C40EAC120BCEB115C40F0004003D446
:103AB0008CF30701C84070476FEAE170704704005B
:103AC00070B491EA030F4FF0004540F1BF806B40A6
:103AD000841A71EB030604D26E40001BB141121927
:103AE00073414FF4001C1CEB410F34BF7CEB4306C9
:103AF00083E00C0DA4EB1356362E00F37C80012ED0
:103B000045EAC32341DC43EA525312BFD202920278
:103B10005B08240545EAC12141EA5051D2EBC0209F
:103B2000994125D407D1B0FA80F610FA06F162D097
:103B30000020203608E0B1FA81F6B140C6F120023B
:103B400020FA02F21143B0404FEAF474B4EB465449
:103B500034F001064FEA74040AD8D6F50016760D43
:103B600004F00044F04061FA06F25040F140484051
:103B7000C00A40EA415021F0004128BF5FEA5005E9
:103B800050F1000044EBD12135E0DB0A45EAC121C8
:103B9000C90AB6F120050EDD42EA0242120CC5F157
:103BA000200603FA06F6EB4042EA06056D4298410C
:103BB00061F100010DE062FA06F5F240554063FA4A
:103BC00006FC82EA0C02F3405A406D42904161EBE0
:103BD000030111F4801F05D1641E620502D06D003F
:103BE0004041494121F48011430875F1004350F1EF
:103BF000000041EB045170BC70471CEB410F15D223
:103C000023F0004352EA43060BD04FEA4C0CBCEBC6
:103C1000410F04D80C0D661E342EB7DDEBE7801A79
:103C2000994150EA410608BF0021E4E708BF1CEBB8
:103C3000430F28BF6FF00001DDE7000070B491EA88
:103C4000030F4FF000457FF543AF6B40841A71EBD3
:103C5000030603D2001BB141121973414FF4001C3B
:103C60001CEB410F34BF7CEB430442E00C0DA4EB92
:103C70001356352E4FDC45EAC323DB0A45EAC12142
:103C8000C912B6F120050DDD63FA05F6EB4086EAB0
:103C90000305124218BF45F00105C01851F100019B
:103CA0000CD213E062FA06F5F2405540F3415A4057
:103CB000B340F3405A408018594107D349085FEA9E
:103CC00030005FEA350528BF45F0010501F5801198
:103CD000420875F1004250F1000041EB04514E00E2
:103CE00016F5001F70BC38BF70470020090D09058C
:103CF00070471CEB410F10D252EA43060BD0BCEBCD
:103D0000410F05D80C0DAB43661E342EB6DD02E024
:103D1000AB438018594170BC704770BC704720009D
:103D2000C1F30A5340F21E42D31A0CDDCA0283F3D8
:103D3000070342EA505242F00042DA4002EBE172DD
:103D400082EAE17070476FEAE17203F2E13008B194
:103D500082F00040704720000EB4C0B5024603A8B0
:103D600000210190009101AB0121044878440C30FE
:103D700002F0D4F806BC5DF810FB00BF1DA70000E0
:103D800080B580B2FFF782FC00229D4BFFF762FDF9
:103D90009C4A9D4BFFF75EFD02000B009B489C492F
:103DA000FFF74CFF02F04AF902F07CF95FF066324F
:103DB000984BFFF74FFD0022974BFFF775FC002251
:103DC000964BFFF77DFEFFF7ABFF80B202BD80B5DB
:103DD00080B2FFF75BFC924A924BFFF765FC002232
:103DE000874BFFF737FD02000B008F488F49FFF725
:103DF00025FF02F023F95FF08B4102F077F902F022
:103E000051F98B4A8B4BFFF725FDFFF789FF001116
:103E100080B202BD80B580B2FFF738FC5FF0663239
:103E2000854BFFF741FC0022754BFFF713FD0200A5
:103E30000B0000208149FFF701FFFFF771FF80B2FF
:103E400002BD80B580B2FFF721FC5FF033327C4BBE
:103E5000FFF72AFC00226A4BFFF7FCFC02000B0074
:103E600000207849FFF7EAFEFFF75AFF80B202BD53
:103E700080B580B2FFF784FF73490886724988874E
:103E80007148018E002000F088FA0121002000F026
:103E90006CFA01BD80B580B2FFF772FF6A4988866F
:103EA0006949A1F840006848818E002000F083FA3B
:103EB0000121102000F059FA01BD10B50C0080B2AC
:103EC000FFF785FF604948865F49C887200080B2B8
:103ED000FFF77DFF5C49C8865B49A1F842005A485C
:103EE000C18EC9B25848408EC0B200F080FA10BDF1
:103EF00010B50C0080B2FFF78DFF53490887524977
:103F0000A1F84400200080B2FFF79BFF4E4948878C
:103F10004D49A1F846004C48418FC9B24A48008F2C
:103F2000C0B200F0B1FA10BD80B540F68C2100207F
:103F300000F033FA0121002000F017FA40F68C213E
:103F4000002000F038FA0121102000F00EFAFF21C5
:103F5000FF2000F04CFA01BD80B5FF21FF2000F0EA
:103F600093FA01BD80B5FFF7DFFFFA21FA20FFF7D2
:103F7000BFFF4FF400413548FEF7E8F84FF48041A9
:103F80003248FEF7E3F801BD80B5FFF7E5FF4FF4D7
:103F900000412E48FEF7DCF84FF480412B48FEF735
:103FA000D7F82948008AFFF763FF2748808AFFF780
:103FB00071FF2548C18A2448408AFFF77EFF01BD72
:103FC00080B54FF400412148FEF7C2F84FF480411C
:103FD0001E48FEF7BBF81C48008AFFF749FF40F671
:103FE0008C20FFF757FFFF211748408AFFF765FF36
:103FF0001548C18A1448808AFFF77AFF01BD000086
:10400000000059409A99999999994540F853E3A528
:104010009BC4004066660A4000FEAF400000E03FDF
:104020005A643BDF4F8D973F62105839B4C8004047
:10403000FCA9F1D24D62004066663C4000707140C0
:1040400033333D4000E07340000000200018024080
:1040500070B504000E0015000020DFF89002007813
:10406000002803D047F27520288054E0DFF8800252
:104070000078002803D046F6635028804BE03000DB
:1040800080B2002805D0022803D004282AD00828AE
:1040900029D1002C03D147F27E2028803BE002F09A
:1040A00095F8DFF84C120978491CDFF844221170AA
:1040B00002F090F82B00320092B22100DFF83402B7
:1040C000006802F08FF92888002810D002F07EF8EE
:1040D000DFF81C120978491EDFF81422117002F073
:1040E00079F818E0DBE745F62560288013E0DFF873
:1040F0000402006801F010FE02F068F8DFF8F01129
:104100000978491EDFF8E821117002F063F801F028
:1041100071FA0020288070BDF8B50E00079C0021C0
:10412000DFF8C8110978002903D047F275202080F4
:10413000C1E0DFF8BC110978002903D046F66350CE
:104140002080B8E0069911F00E073D00ADB2002DB9
:1041500005D0022D03D0042D19D0082D18D1002B25
:104160000FD11500ADB2002D0BD13500ADB2002D31
:1041700007D10500ADB2002D03D147F27E2020808B
:1041800099E04FF6E175294206D1002505E0F8E7F0
:1041900045F6256020808EE00125EDB2012D03D18A
:1041A00045F62560208086E0C9B2090911F00101B9
:1041B000C9B201291ED0B3F57A7F03D347F27B2021
:1041C000208078E0110089B23C2903DB47F27A2095
:1041D000208070E0310089B23C2903DB47F279206E
:1041E000208068E0010089B2642916DB47F278205C
:1041F000208060E0310089B242F21075A94203DBF1
:1042000047F27920208056E0010089B2B1F57A7F2B
:1042100003DB47F2782020804DE037490D6880B2FB
:104220004FF4616CB6B23C214E430CFB006010FAB7
:1042300082F14FF4FA70B0FBF5F0C31803FB05F3FD
:104240004FF47A70B3FBF0F005FB0105002D2FD081
:1042500001F0BCFF26490978491C254A117001F07C
:10426000B9FF23003A0092B229002248006802F008
:10427000B9F82088002809D001F0A8FF1C49097866
:10428000491E1B4A117001F0A5FF14E0194800688F
:1042900001F042FD01F09AFF15490978491E144AC0
:1042A000117001F097FF01F0A5F90020208002E0D5
:1042B00047F27E202080F1BD18B585B002F0CDFA1E
:1042C00002F00CFB04A90391029000200190002051
:1042D0000090002300220949094804780C20444337
:1042E0002144084802F004FB06B010BDB77100205D
:1042F000BC7100205C710020C4E60208C44E00209E
:10430000B97100205449434B002848BF40427047D0
:1043100010B4002200222F4A136840F6FE72824039
:1043200093430C684A6814438A681443C9680C4371
:1043300014FA00F018432749086010BC7047C9B24E
:10434000002908D023490968012212FA00F0084325
:104350002049086008E01F490968012212FA00F0AC
:1043600031EA00001B4908607047C9B2002909D032
:10437000194909680122000912FA00F00843164998
:10438000086009E0144909680122000912FA00F0E6
:1043900031EA000010490860704781B000220092A5
:1043A0000C4A0092009A80180830009089B2009858
:1043B000016001B0704781B000220092054A00926E
:1043C000009A80181430009089B20098016001B002
:1043D00070470000007400400474004080B5002362
:1043E00002224FF400614F4802F096FC01BD38B53F
:1043F00004000D004FF400514B48FDF7A9FE49F2AF
:104400000101484802F0F4FC4FF47A6002F086FEA5
:104410004FF400514448FDF799FE4FF4FA6002F062
:104420007DFE4FF400514048FDF792FEEDB22D01A4
:1044300055F48055290089B23A4802F0D9FC4FF46E
:104440007A6002F06BFE4FF400513748FDF77EFEB4
:104450004FF4FA6002F062FE4FF400513248FDF76B
:1044600077FEE4B2240154F40044210089B22D48BF
:1044700002F0BEFC4FF47A6002F050FE4FF400519F
:104480002948FDF763FE31BD38B504000D004FF437
:1044900080412548FDF75CFE49F20101214802F008
:1044A000A7FC4FF47A6002F039FE4FF480411E48B9
:1044B000FDF74CFE4FF4FA6002F030FE4FF48041FD
:1044C0001948FDF745FEEDB22D0155F48055290040
:1044D00089B2144802F08CFC4FF47A6002F01EFEA0
:1044E0004FF480411048FDF731FE4FF4FA6002F0BE
:1044F00015FE4FF480410C48FDF72AFEE4B224017A
:1045000054F40044210089B2064802F071FC4FF4D3
:104510007A6002F003FE4FF480410348FDF716FE77
:1045200031BD0000003C0040000402402DE9F34F83
:1045300083B09846DDF858900021DFF8901509788F
:10454000002904D047F24A10A9F80000F3E0040063
:10455000002C04D147F2AD10A9F80000EBE0029264
:104560000298002804D147F24F10A9F80000E2E0B9
:104570000F9D002D04D146F62F60A9F80000DAE067
:10458000DDF844B0DFF8F4050068834504D246F650
:104590003060A9F80000CEE0DDF840A0DA4504D391
:1045A00046F63160A9F80000C5E00E9E3000C0B2AA
:1045B000402804D346F27320A9F80000BBE0300085
:1045C000C0B2002808D1DFF80806844204D046F2C1
:1045D0007320A9F80000AEE03000C0B23F2808D137
:1045E000DFF8F005844204D046F27320A9F80000F9
:1045F000A1E0159F200000F047FB0020A9F8000073
:10460000F8070AD5B80708D52900002003E00022E2
:104610000A60091D401C5845F9D3DDF84C9005EBA4
:104620008A0A380080B20190CDF800B053462A00C3
:104630004146029802F094F80299A162C4F82C80D5
:104640000499216284F837602060C4F808A0C4F897
:104650005090B9F1000F04D1DFF8B405006860652F
:1046600001E0C4F85490149860606562C4F838B0F2
:10467000A787002006E000210200D2B204EB8202EC
:104680009167401C0100C9B20029F4D0129989B287
:1046900014F1600002F04FFE200002F046F801F035
:1046A00095FDDFF830140978491CDFF828241170D3
:1046B00001F090FD94F8370002F0B8FE200001F000
:1046C000DBFA200000F088FADFF8B0050088401C13
:1046D000DFF8A8150880DFF8A805007801281DD0AC
:1046E00001F074FDDFF8EC130978491EDFF8E423CC
:1046F0001170DFF8E013097800290CD1DFF8781485
:104700000988002904D001F065FD01F033FB04E0C5
:1047100001F060FD01E001F05DFD0CE001F056FDEF
:10472000DFF8B0130978491EDFF8A823117001F0F3
:1047300051FD00F05FFF05B0BDE8F08F38B5040013
:104740000D000020DFF884030078002803D047F232
:104750004E1028805CE0DFF87C04844203D147F2ED
:104760004C10288054E0DFF86804844203D147F2FB
:104770004D1028804CE0002C06D101F027FDDFF819
:1047800050130C6801F026FD01F020FDDFF8441302
:104790000978491CDFF83C23117001F01BFD94F8E7
:1047A000360000280BD0022838D033D3042830D06C
:1047B00034D3062832D02DD307282FD044E0200050
:1047C00001F0AAFA14F1600002F093FD200001F05C
:1047D000B5FF200000F01EFADFF8A0040088401E9C
:1047E000DFF898140880200000F04EFAFF2084F8CB
:1047F000360001F0EBFCDFF8DC120978491EDFF827
:10480000D422117001F0E6FC0020288000F0F2FEB6
:1048100031BDD7E7200001F03BFED3E794F8340028
:10482000002808D0401E07D0401E04D0401E032898
:1048300002D9001F04D103E0200001F004F9FFE7D2
:10484000200001F025FEBDE701F0C0FCDFF8841276
:104850000978491EDFF87C221170DFF87812097898
:1048600000290CD1DFF81C140988002904D001F0BC
:10487000B1FC01F07FFA04E001F0ACFC01E001F0D2
:10488000A9FC46F62D602880C2E738B584B0040044
:104890000D00002001F09AFC002C03D08C4909681F
:1048A0008C4205D101F096FC47F25710288018E0A1
:1048B00001F090FC8548007800280ED00395002078
:1048C000029000200190002000900023002221008F
:1048D000DFF8E00902F00CF803E02900200000F006
:1048E00017FB05B030BD2DE9F041070088461400E4
:1048F0001D00002075480078002804D046F2AE1054
:1049000028800020DEE0404680B2002802D0B0F5CA
:10491000004F49D1002C01D00020206001F056FC4E
:104920000600DFF88C090068406C002841D0DFF8F1
:1049300080090068406C401EDFF8741909684864FB
:10494000DFF86C090068476C002C04D0DFF86009C0
:104950000068006C206001F0C1FFDFF8541909689D
:10496000096C401ADFF848190968C1F8A000DFF89F
:1049700040090068D0F8A400DFF834190968D1F8BC
:10498000A010884209D2DFF828090068D0F8A000FA
:10499000DFF81C190968C1F8A400300001F01AFC06
:1049A0000020288038008DE045F625602880002012
:1049B00088E05FEA084007D5300001F00BFC46F2C2
:1049C000B010288000207DE042480078002807D001
:1049D000300001F0FFFB46F663502880002071E0B4
:1049E0003C480078401C3B490870300001F0F2FB65
:1049F0003B0007220021002000F045FF01F0E6FB0C
:104A000034490978491E334A117001F0E3FB00F084
:104A1000F1FD01F0DBFB0600DFF89408006890F878
:104A20003500002804D001282ED0032837D03EE0DE
:104A3000002C26D0DFF878080068006C206001F0B8
:104A40004DFFDFF86C180968096C401ADFF8601830
:104A50000968C1F8A000DFF858080068D0F8A40081
:104A6000DFF84C180968D1F8A010884209D2DFF8A5
:104A700040080068D0F8A000DFF834180968C1F8D1
:104A8000A4000020288015E0002C04D0DFF82008C6
:104A90000068006C206046F2A91028800AE0002C13
:104AA00001D00020206047F2D920288002E046F69D
:104AB0002E602880DFF8F8070068446C300001F0B1
:104AC00089FB2000BDE8F08100000000B7710020E4
:104AD0005C710020BC710020F8B504000D001600C8
:104AE0001F000020DFF8D0070078002803D047F22D
:104AF000591038803DE0002D03D146F2D520388092
:104B000037E0002E03D146F2D520388031E001F0A5
:104B10005DFB002C02D1DFF898170C682168002992
:104B200009D101F057FB002028600020306047F2D7
:104B3000521038801DE094F83C10C90709D401F0E8
:104B400049FB002028600020306047F25410388074
:104B50000FE001F03FFB0021626A01E0121D491CD9
:104B600010680028FAD02960A06B411A316000203B
:104B70003880F1BD0000000096710020C0E60208F8
:104B8000F8B5144A904203D147F25B1008801CE04C
:104B90000F4A904203D147F25C10088015E0DFF81D
:104BA00018271278002A0ED00391002102910021CB
:104BB000019100210091002300220100DFF800078D
:104BC00001F096FE01E000F005FB05B000BD00001D
:104BD000746A0020B46900200021C0F8B410DFF826
:104BE000E4160968002903D10021C0F8B81009E0D3
:104BF000DFF8D0160968C0F8B810DFF8C8160968E1
:104C0000C1F8B400DFF8BC1608607047000000006F
:104C10001C710020D0F8B420D0F8B810002A0BD1B5
:104C2000DFF8A0261160002902D00022C1F8B420CC
:104C30000021C0F8B81012E0002906D10021C2F806
:104C4000B8100021C0F8B41009E0C2F8B810C1F8DB
:104C5000B4200021C0F8B8100021C0F8B41070478B
:104C60000021DFF8602611600021044A1180002134
:104C7000DFF854261160002101807047AA710020DE
:104C8000B87100209671002010B50400002020604B
:104C90000020A060002060600020E0600020206113
:104CA000002060610020A0610020E061DFF81C06A8
:104CB0002062002060620020A0620020E0620020EC
:104CC00020640020A0650020A4F85C00002114F1FD
:104CD000600002F030FB00202067002060670020A9
:104CE000E0670020A4F884000020C4F880000020C1
:104CF00006E000210200D2B204EB82029167401C60
:104D00000100C9B20029F4D0002060640020C4F87A
:104D1000A0000020C4F8A4000020A063002084F8B4
:104D200086000020C4F8AC000020C4F8A8000020D1
:104D3000A0870020A0640020E064002020650020FF
:104D400060650020A4F888000020A4F88A000020F4
:104D5000C4F88C000020C4F8900001F0BFFDC4F836
:104D600094000020C4F898000020C4F8B00000208F
:104D700084F83400002084F83500002084F83600E0
:104D8000402084F837000020C4F8B4000020C4F8A4
:104D9000B8009FA0C4F8BC0010BD2DE9FC41040080
:104DA0000F0090461E00099D00200020288001F081
:104DB0000DFADFF808150978491CDFF80025117095
:104DC00001F008FA002C02D1DFF8E4040468089826
:104DD00094F8361000290BD0022932D008D30429C8
:104DE00006D02ED306292CD002D3072929D06DE076
:104DF0000195009033009BB2424692B2390014F103
:104E0000600002F0A2FA01F0E1F9DFF8B0140978CD
:104E1000491EDFF8A8241170DFF8A01409780029D2
:104E20000CD1DFF8AC140988002904D001F0D2F9C4
:104E300000F0A0FF04E001F0CDF901E001F0CAF9B3
:104E400064E094F83410022917D1009043469BB2D5
:104E50003A002100002000F02FFE01F0B7F9DFF842
:104E60005C140978491EDFF85424117001F0B2F97E
:104E700030042AD400F0BEFB27E0019500903300F7
:104E80009BB2424692B2390014F1600002F05DFA22
:104E900001F09CF9DFF824140978491EDFF81C247E
:104EA0001170DFF81814097800290CD1DFF82014EC
:104EB0000988002904D001F08DF900F05BFF04E0BF
:104EC00001F088F901E001F085F91FE001F07EF9B9
:104ED000DFF8E8130978491EDFF8E0231170DFF8E6
:104EE000DC13097800290CD1DFF8E41309880029C4
:104EF00004D001F06FF900F03DFF04E001F06AF921
:104F000001E001F067F946F62D602880BDE8F381E5
:104F100038B504000D00002001F058F90021298067
:104F200094F836100029032908D9091F0ED0491E0C
:104F300030D0491E3DD0491E4AD058E001F04AF910
:104F400047F25310288000F055FB31BDDFF86C1399
:104F50000978491CDFF86423117001F03BF994F8DB
:104F60008600401E84F8860094F88600002805D14B
:104F7000002084F83600200000F036FE01F026F90B
:104F8000DFF838130978491EDFF83023117001F07B
:104F900021F9D8E794F88610491E84F8861094F811
:104FA0008610002902D1012184F8361001F012F98F
:104FB000C9E794F88610491E84F8861094F8861084
:104FC000002902D1022184F8361001F003F9BAE772
:104FD00094F88610491E84F8861094F886100029EB
:104FE00002D1032184F8361001F0F4F8ABE701F0A8
:104FF000F1F846F62D602880A7E780B5AC48006838
:1050000001F0A5FB69460020FFF798FB01BD0000F9
:1050100020000000F8B504000E0017001D0000205D
:1050200001F0D4F8A5490978491CA44A117001F08F
:10503000D1F8002C01D19E48046827640020288004
:1050400094F8360000280BD0022849D008D3042851
:1050500006D045D3062843D002D3072840D099E094
:10506000606C10F1010F1DD101F0B0F8934909787F
:10507000491E924A11709149097800290BD194492F
:105080000988002904D001F0A5F800F073FE04E0BF
:1050900001F0A0F801E001F09DF846F6C550288027
:1050A000002095E0606C401C6064646C01F08EF838
:1050B00082490978491E814A11708049097800297E
:1050C0000BD183490988002904D001F083F800F04E
:1050D00051FE04E001F07EF801E001F07BF876E09B
:1050E00094F83400072815D10097002300222100EE
:1050F000002000F0E1FC646C01F068F86F49097869
:10510000491E6E4A117001F065F8300441D400F078
:1051100071FA3EE0606C10F1010F1DD101F056F8FC
:1051200066490978491E654A117064490978002961
:105130000BD167490988002904D001F04BF800F031
:1051400019FE04E001F046F801E001F043F846F6EC
:10515000C550288000203BE0606C401C6064646C9B
:1051600001F034F855490978491E544A11705349E1
:10517000097800290BD156490988002904D001F08B
:1051800029F800F0F7FD04E001F024F801E001F057
:1051900021F81CE001F01AF848490978491E474AED
:1051A00011704649097800290BD14949098800291D
:1051B00004D001F00FF800F0DDFD04E001F00AF882
:1051C00001E001F007F846F62D6028800024200059
:1051D000F2BD000038B504000D00002000F0F6FF1D
:1051E000002C01D132490C68314909688C4209D13F
:1051F00032490978002905D000F0ECFF46F66350EB
:1052000028802AE00021298094F83610002909D04E
:10521000491E23D0491E2AD0491E31D0491E0329D8
:1052200037D93EE025490978491C244A117000F01D
:10523000D1FF042084F83600012084F88600200085
:1052400000F06AFD00F0C2FF1C490978491E1B4AA4
:10525000117000F0BFFF00F0CDF931BD052184F8D9
:105260003610012184F8861000F0B4FFF3E7062120
:1052700084F83610012184F8861000F0ABFFEAE7CD
:10528000072184F83610012184F8861000F0A2FF6F
:10529000E1E794F88610491C84F8861000F09AFF24
:1052A000D9E700F097FF46F62D602880D5E700008B
:1052B0005C71002054524553B7710020BC7100202E
:1052C00054535553387100203471002068E60208A9
:1052D0009671002025490843254908607047002140
:1052E00000210F23C17800291FD02149096811F43A
:1052F000E061D1F5E061090AD1F10402DBB20B41B2
:10530000417811FA02F281780B401A4312011949CF
:105310000378CA540121027812F01F029140164A04
:105320000078401142F8201009E00121027812F0C3
:105330001F029140114A0078401142F82010704736
:105340000F4A114008430F4908607047042806D1EE
:105350000D48006850F004000B49086005E00A4859
:10536000006830F004000849086070470000FA0542
:105370000CED00E000E400E000E100E080E100E08E
:1053800080FFFF1F08ED00E010E000E010B5040012
:1053900001F0B3F90020DFF8481808700020DFF8AA
:1053A000441808700020DFF8681808700020DFF843
:1053B000641808600020DFF8601808600020DFF83B
:1053C0005C1808700020DFF8581808700020DFF81B
:1053D000901808700020DFF88C1808600020DFF8B3
:1053E000881808600020DFF8841808600020DFF8C3
:1053F00080180870DFF87C0800680A21B0FBF1F023
:10540000DFF8AC180860DFF8AC08006800280ED0A0
:10541000DFF8A4080168002909D0DFF898080068BF
:1054200003E0401E00220A60091D0028F9D1002077
:10543000DFF8881808600020DFF884180860002072
:10544000DFF8801808600020DFF87C180860002072
:10545000DFF8781808600020DFF874180860002072
:10546000DFF8701808600020DFF88819087001F074
:10547000C3FF00F0A0FB200002F008F820880028FD
:1054800045D1200002F0F6F8208800283FD1200006
:1054900001F0EAFE2088002839D1200002F054FBF8
:1054A0002088002833D1200002F06AFB20880028E1
:1054B0002DD1200002F0E6FB2088002827D1200013
:1054C000FFF7CEFB2088002821D1200001F076FBD9
:1054D000208800281BD1200000F0ADF9208800288A
:1054E00015D1200000F0D8FE208800280FD1200020
:1054F00002F036FE2088002809D1200002F0A2FF29
:105500002088002803D103F0ADF803F07FF910BD27
:10551000DFF8D006007801280BD1DFF8C406007848
:10552000FA2806DADFF8B8060078401CDFF8B01673
:105530000870704710B50020DFF8A8060078012831
:1055400057D100F043FE0400DFF8940600780028ED
:1055500003D1200000F03EFE4BE0DFF88406007827
:10556000401EDFF87C160870DFF87406007800280B
:1055700003D0200000F02EFE3BE0DFF89406007818
:10558000002803D0200000F025FE32E001F03EFFAD
:10559000DFF88C160870DFF86018DFF884060278F0
:1055A0000C2042438858DFF870160860DFF8680660
:1055B0000068DFF860160968884203D1200000F017
:1055C00009FE16E0DFF850060068D0F88C00401C99
:1055D000DFF844160968C1F88C00DFF8D4080068C9
:1055E000401CDFF8CC18086003F093F9200000F0AD
:1055F000F1FD10BD10B50020DFF8E40500780028AB
:105600003AD1DFF80C060078002835D100F0DEFD35
:10561000040001F0FBFEDFF808160870DFF8D81769
:10562000DFF8FC0502780C2042438858DFF8E815C3
:105630000860DFF8E4050068DFF8D81509688842DB
:1056400003D1200000F0C6FD16E0DFF8CC050068AD
:10565000D0F88C00401CDFF8C0150968C1F88C0038
:10566000DFF84C080068401CDFF84418086003F0BD
:105670004CF9200000F0AEFD10BD38B5040000204C
:10568000DFF85C050078002803D046F662502080E1
:1056900022E0DFF850050078012803D045F6896044
:1056A000208019E0DFF80C080078FA2803DB45F2C7
:1056B0000920208010E000F089FD0500DFF8F407E4
:1056C0000078401CDFF8EC17087000F072FB28002F
:1056D00000F080FD0020208031BD38B5040000209E
:1056E000DFF8FC040078002803D046F665502080DF
:1056F00030E0DFF8F0040078012803D045F6896037
:10570000208027E0DFF8AC070078002803D146F6B8
:10571000645020801EE000F059FD0500DFF894077A
:105720000078401EDFF88C170870DFF888070078D3
:10573000002806D0280000F04DFD46F6635020807A
:1057400008E000F040FB280000F044FDFFF752FFA6
:105750000020208031BD70B506000C00150000202F
:1057600000F034FDF6B2012E04D00021DFF8002550
:10577000117003E00121DFF8F8241170002C03D030
:10578000DFF82C150C6008E0DFF8E81409680A223D
:10579000B1FBF2F1DFF81825116000F01BFD0020CD
:1057A000288070BD10B50400DFF8380400780028A8
:1057B00025D101F02BFEDFF868140870DFF86004D3
:1057C0000078DFF858140870DFF82C16DFF8500462
:1057D00002780C2042438858DFF83C140860DFF858
:1057E00038040068DFF82C1408600120DFF8F41397
:1057F000087003F07BF843F69920208002E045F61C
:105800008A60208010BD80B50020684600F0DEFC74
:10581000DFF8A4160968491CDFF89C261160DFF840
:105820009C160968491CDFF89426116000F0D2FC30
:1058300000F05AFFEAE700B589B00021DFF87826CA
:10584000116008900B200790002006900020059022
:1058500000200490DFF8680600680390DFF8640613
:1058600000680290DFF86006006801903F20009019
:105870000023DFF85826DFF85816DFF85806FEF741
:1058800055FE09B000BD70B505000C00DFF88403BB
:10589000006880F834200020DFF87813096881F868
:1058A00035001900DFF86C03006800F0ECFA002CFA
:1058B0000ED014F10806EC6001222900DFF8540331
:1058C000006800F016F82900300000F083F809E0C5
:1058D0000020DFF840130968C8870020DFF8341380
:1058E00009680863DFF82C030168200000F01DF848
:1058F00070BD30B4C287016300230EE000244C6009
:1059000000240C6000240C6100244C6100240C83F2
:105910000024CC61886020315B1C1C001500A4B2FF
:10592000ADB2AC42EAD330BC7047002809D042681F
:10593000C1F8BC2010F1080109688968096AC161D1
:1059400013E091F83400022802D0072805D009E0BE
:10595000DFF88405C1F8BC0007E0DFF88005C1F876
:10596000BC0002E009A0C1F8BC00704707A2C1F862
:10597000BC2010F108010968002903D08968096A70
:10598000C16101E001A1C161704700002000000079
:1059900070B580F83710056BC48F0FE0E86810F120
:1059A00008063089022807D32900300000F060F88B
:1059B0002900300000F00EF82035641E200080B26F
:1059C0000028EBD170BD0021016000214160002161
:1059D0000181704730B40200886890F83730108930
:1059E000002808D1012010810020486000200860B4
:1059F0001160516025E01089401C1081106800E0A2
:105A00004068002806D084681D0094F83740EDB245
:105A1000A542F5D2002806D10020486050680860F1
:105A2000416051600DE00368002B05D10160002347
:105A30000B604860116004E002680A6048605160D1
:105A4000016030BC704770B50400266BE58F06E03E
:105A5000F0680830310000F00BF820366D1E280089
:105A600080B20028F4D10020E0870020206370BDC0
:105A70000289012A04D1002202600022426013E060
:105A80000A68002A04D14A680023136002600BE010
:105A90004A68002A04D10A6800235360426003E088
:105AA0000A684B6853601A600289521E0281002006
:105AB000486000200860704738B504000D00049865
:105AC00095F8361000290BD002290AD008D30429F2
:105AD00006D006D3062930D002D307292DD055E0B1
